{
  "_format": "hh-sol-artifact-1",
  "contractName": "ContractTwo",
  "sourceName": "contracts/ChainedContractCalls.sol",
  "abi": [
    {
      "inputs": [],
      "stateMutability": "payable",
      "type": "constructor"
    },
    {
      "anonymous": false,
      "inputs": [],
      "name": "FinalMessageTwo",
      "type": "event"
    },
    {
      "inputs": [
        {
          "internalType": "address payable[]",
          "name": "destinations",
          "type": "address[]"
        },
        {
          "internalType": "uint256",
          "name": "index",
          "type": "uint256"
        }
      ],
      "name": "chainedCall",
      "outputs": [
        {
          "internalType": "bool",
          "name": "success",
          "type": "bool"
        }
      ],
      "stateMutability": "nonpayable",
      "type": "function"
    }
  ],
  "bytecode": "0x60806040526106c9806100136000396000f3fe608060405234801561001057600080fd5b506004361061002b5760003560e01c806312cbb1ad14610030575b600080fd5b61004a600480360381019061004591906103f7565b610060565b604051610057919061046e565b60405180910390f35b600081835111156101c05760008383815181106100805761007f610489565b5b602002602001015190508073ffffffffffffffffffffffffffffffffffffffff166312cbb1ad856001866100b491906104e7565b6040518363ffffffff1660e01b81526004016100d192919061060a565b602060405180830381600087803b1580156100eb57600080fd5b505af11580156100ff573d6000803e3d6000fd5b505050506040513d601f19601f820116820180604052508101906101239190610666565b508073ffffffffffffffffffffffffffffffffffffffff166312cbb1ad8560018661014e91906104e7565b6040518363ffffffff1660e01b815260040161016b92919061060a565b602060405180830381600087803b15801561018557600080fd5b505af1158015610199573d6000803e3d6000fd5b505050506040513d601f19601f820116820180604052508101906101bd9190610666565b50505b7f7034c2993071949b58774f6e74c9d4fbc6e950bc3ea689ca80ddd68b60bada9360405160405180910390a16001905092915050565b6000604051905090565b600080fd5b600080fd5b600080fd5b6000601f19601f8301169050919050565b7f4e487b7100000000000000000000000000000000000000000000000000000000600052604160045260246000fd5b6102588261020f565b810181811067ffffffffffffffff8211171561027757610276610220565b5b80604052505050565b600061028a6101f6565b9050610296828261024f565b919050565b600067ffffffffffffffff8211156102b6576102b5610220565b5b602082029050602081019050919050565b600080fd5b600073ffffffffffffffffffffffffffffffffffffffff82169050919050565b60006102f7826102cc565b9050919050565b610307816102ec565b811461031257600080fd5b50565b600081359050610324816102fe565b92915050565b600061033d6103388461029b565b610280565b905080838252602082019050602084028301858111156103605761035f6102c7565b5b835b8181101561038957806103758882610315565b845260208401935050602081019050610362565b5050509392505050565b600082601f8301126103a8576103a761020a565b5b81356103b884826020860161032a565b91505092915050565b6000819050919050565b6103d4816103c1565b81146103df57600080fd5b50565b6000813590506103f1816103cb565b92915050565b6000806040838503121561040e5761040d610200565b5b600083013567ffffffffffffffff81111561042c5761042b610205565b5b61043885828601610393565b9250506020610449858286016103e2565b9150509250929050565b60008115159050919050565b61046881610453565b82525050565b6000602082019050610483600083018461045f565b92915050565b7f4e487b7100000000000000000000000000000000000000000000000000000000600052603260045260246000fd5b7f4e487b7100000000000000000000000000000000000000000000000000000000600052601160045260246000fd5b60006104f2826103c1565b91506104fd836103c1565b9250827fffffffffffffffffffffffffffffffffffffffffffffffffffffffffffffffff03821115610532576105316104b8565b5b828201905092915050565b600081519050919050565b600082825260208201905092915050565b6000819050602082019050919050565b610572816102ec565b82525050565b60006105848383610569565b60208301905092915050565b6000602082019050919050565b60006105a88261053d565b6105b28185610548565b93506105bd83610559565b8060005b838110156105ee5781516105d58882610578565b97506105e083610590565b9250506001810190506105c1565b5085935050505092915050565b610604816103c1565b82525050565b60006040820190508181036000830152610624818561059d565b905061063360208301846105fb565b9392505050565b61064381610453565b811461064e57600080fd5b50565b6000815190506106608161063a565b92915050565b60006020828403121561067c5761067b610200565b5b600061068a84828501610651565b9150509291505056fea2646970667358221220de9b26b24fbbcc89d2a2927f714e2f15d6c5c423cf2cb14e521ac5d4d748661664736f6c63430008090033",
  "linkReferences": {},
  "deployedLinkReferences": {}
}