{
  "_format": "hh-sol-artifact-1",
  "contractName": "ContractThree",
  "sourceName": "contracts/ChainedContractCalls.sol",
  "abi": [
    {
      "inputs": [],
      "stateMutability": "payable",
      "type": "constructor"
    },
    {
      "anonymous": false,
      "inputs": [],
      "name": "FinalMessageThree",
      "type": "event"
    },
    {
      "inputs": [
        {
          "internalType": "address payable[]",
          "name": "destinations",
          "type": "address[]"
        },
        {
          "internalType": "uint256",
          "name": "index",
          "type": "uint256"
        }
      ],
      "name": "chainedCall",
      "outputs": [
        {
          "internalType": "bool",
          "name": "success",
          "type": "bool"
        }
      ],
      "stateMutability": "nonpayable",
      "type": "function"
    }
  ],
  "bytecode": "0x608060405261062f806100136000396000f3fe608060405234801561001057600080fd5b506004361061002b5760003560e01c806312cbb1ad14610030575b600080fd5b61004a6004803603810190610045919061035d565b610060565b60405161005791906103d4565b60405180910390f35b600081835111156101265760008383815181106100805761007f6103ef565b5b602002602001015190508073ffffffffffffffffffffffffffffffffffffffff166312cbb1ad856001866100b4919061044d565b6040518363ffffffff1660e01b81526004016100d1929190610570565b602060405180830381600087803b1580156100eb57600080fd5b505af11580156100ff573d6000803e3d6000fd5b505050506040513d601f19601f8201168201806040525081019061012391906105cc565b50505b7f52223b02452ce54219e308a730c11d91fe97c893daab1653b5bf7a5900a7490e60405160405180910390a16001905092915050565b6000604051905090565b600080fd5b600080fd5b600080fd5b6000601f19601f8301169050919050565b7f4e487b7100000000000000000000000000000000000000000000000000000000600052604160045260246000fd5b6101be82610175565b810181811067ffffffffffffffff821117156101dd576101dc610186565b5b80604052505050565b60006101f061015c565b90506101fc82826101b5565b919050565b600067ffffffffffffffff82111561021c5761021b610186565b5b602082029050602081019050919050565b600080fd5b600073ffffffffffffffffffffffffffffffffffffffff82169050919050565b600061025d82610232565b9050919050565b61026d81610252565b811461027857600080fd5b50565b60008135905061028a81610264565b92915050565b60006102a361029e84610201565b6101e6565b905080838252602082019050602084028301858111156102c6576102c561022d565b5b835b818110156102ef57806102db888261027b565b8452602084019350506020810190506102c8565b5050509392505050565b600082601f83011261030e5761030d610170565b5b813561031e848260208601610290565b91505092915050565b6000819050919050565b61033a81610327565b811461034557600080fd5b50565b60008135905061035781610331565b92915050565b6000806040838503121561037457610373610166565b5b600083013567ffffffffffffffff8111156103925761039161016b565b5b61039e858286016102f9565b92505060206103af85828601610348565b9150509250929050565b60008115159050919050565b6103ce816103b9565b82525050565b60006020820190506103e960008301846103c5565b92915050565b7f4e487b7100000000000000000000000000000000000000000000000000000000600052603260045260246000fd5b7f4e487b7100000000000000000000000000000000000000000000000000000000600052601160045260246000fd5b600061045882610327565b915061046383610327565b9250827fffffffffffffffffffffffffffffffffffffffffffffffffffffffffffffffff038211156104985761049761041e565b5b828201905092915050565b600081519050919050565b600082825260208201905092915050565b6000819050602082019050919050565b6104d881610252565b82525050565b60006104ea83836104cf565b60208301905092915050565b6000602082019050919050565b600061050e826104a3565b61051881856104ae565b9350610523836104bf565b8060005b8381101561055457815161053b88826104de565b9750610546836104f6565b925050600181019050610527565b5085935050505092915050565b61056a81610327565b82525050565b6000604082019050818103600083015261058a8185610503565b90506105996020830184610561565b9392505050565b6105a9816103b9565b81146105b457600080fd5b50565b6000815190506105c6816105a0565b92915050565b6000602082840312156105e2576105e1610166565b5b60006105f0848285016105b7565b9150509291505056fea26469706673582212200026f5ac9d236445ac69dd1387211dad69eee1df8dfd1499c72a891ff02efe9a64736f6c63430008090033",
  "linkReferences": {},
  "deployedLinkReferences": {}
}