{
  "_format": "hh-sol-artifact-1",
  "contractName": "SingleTransfer",
  "sourceName": "contracts/SingleTransfer.sol",
  "abi": [
    {
      "inputs": [],
      "stateMutability": "payable",
      "type": "constructor"
    },
    {
      "anonymous": false,
      "inputs": [
        {
          "indexed": false,
          "internalType": "string",
          "name": "message",
          "type": "string"
        }
      ],
      "name": "DebugMessage",
      "type": "event"
    },
    {
      "anonymous": false,
      "inputs": [
        {
          "indexed": false,
          "internalType": "uint256",
          "name": "amount",
          "type": "uint256"
        },
        {
          "indexed": true,
          "internalType": "address",
          "name": "addr",
          "type": "address"
        },
        {
          "indexed": false,
          "internalType": "string",
          "name": "message",
          "type": "string"
        }
      ],
      "name": "DebugMessageExtended",
      "type": "event"
    },
    {
      "inputs": [
        {
          "internalType": "address payable",
          "name": "destination",
          "type": "address"
        },
        {
          "internalType": "uint256",
          "name": "amount",
          "type": "uint256"
        }
      ],
      "name": "doTransfer",
      "outputs": [],
      "stateMutability": "payable",
      "type": "function"
    }
  ],
  "bytecode": "0x608060405261043a806100136000396000f3fe60806040526004361061001e5760003560e01c80630f24f5c814610023575b600080fd5b61003d6004803603810190610038919061020c565b61003f565b005b8173ffffffffffffffffffffffffffffffffffffffff167fc5fc0d5b3e2c80693d626b26b4036877639b62766e5432c43d3db18ec0fb070c8260405161008591906102b8565b60405180910390a260008273ffffffffffffffffffffffffffffffffffffffff16826040516100b390610317565b60006040518083038185875af1925050503d80600081146100f0576040519150601f19603f3d011682016040523d82523d6000602084013e6100f5565b606091505b5050905080610139576040517f08c379a000000000000000000000000000000000000000000000000000000000815260040161013090610378565b60405180910390fd5b7f2ca7ea951db3bc93c3c659c7ddf08261b1b1153e0685c16b88444c6235865c53604051610166906103e4565b60405180910390a1505050565b600080fd5b600073ffffffffffffffffffffffffffffffffffffffff82169050919050565b60006101a382610178565b9050919050565b6101b381610198565b81146101be57600080fd5b50565b6000813590506101d0816101aa565b92915050565b6000819050919050565b6101e9816101d6565b81146101f457600080fd5b50565b600081359050610206816101e0565b92915050565b6000806040838503121561022357610222610173565b5b6000610231858286016101c1565b9250506020610242858286016101f7565b9150509250929050565b610255816101d6565b82525050565b600082825260208201905092915050565b7f73656e64696e672e2e2e00000000000000000000000000000000000000000000600082015250565b60006102a2600a8361025b565b91506102ad8261026c565b602082019050919050565b60006040820190506102cd600083018461024c565b81810360208301526102de81610295565b905092915050565b600081905092915050565b50565b60006103016000836102e6565b915061030c826102f1565b600082019050919050565b6000610322826102f4565b9150819050919050565b7f556e61626c6520746f2073656e6420616d6f756e740000000000000000000000600082015250565b600061036260158361025b565b915061036d8261032c565b602082019050919050565b6000602082019050818103600083015261039181610355565b9050919050565b7f446f6e652e000000000000000000000000000000000000000000000000000000600082015250565b60006103ce60058361025b565b91506103d982610398565b602082019050919050565b600060208201905081810360008301526103fd816103c1565b905091905056fea2646970667358221220bfc0cab271367f4b0c73114def2a013de3abb40018f8e502b93189547f7fbf1a64736f6c63430008090033",
  "linkReferences": {},
  "deployedLinkReferences": {}
}