{
  "_format": "hh-sol-artifact-1",
  "contractName": "Delegatecall",
  "sourceName": "contracts/Delegatecall.sol",
  "abi": [
    {
      "inputs": [],
      "name": "num",
      "outputs": [
        {
          "internalType": "uint256",
          "name": "",
          "type": "uint256"
        }
      ],
      "stateMutability": "view",
      "type": "function"
    },
    {
      "inputs": [],
      "name": "sender",
      "outputs": [
        {
          "internalType": "address",
          "name": "",
          "type": "address"
        }
      ],
      "stateMutability": "view",
      "type": "function"
    },
    {
      "inputs": [
        {
          "internalType": "address",
          "name": "_test",
          "type": "address"
        },
        {
          "internalType": "uint256",
          "name": "_num",
          "type": "uint256"
        }
      ],
      "name": "setVars",
      "outputs": [],
      "stateMutability": "payable",
      "type": "function"
    },
    {
      "inputs": [],
      "name": "value",
      "outputs": [
        {
          "internalType": "uint256",
          "name": "",
          "type": "uint256"
        }
      ],
      "stateMutability": "view",
      "type": "function"
    }
  ],
  "bytecode": "0x608060405234801561001057600080fd5b50610570806100206000396000f3fe60806040526004361061003f5760003560e01c80633fa4f245146100445780634e70b1dc1461006f57806367e404ce1461009a578063d1e0f308146100c5575b600080fd5b34801561005057600080fd5b506100596100e1565b60405161006691906102ac565b60405180910390f35b34801561007b57600080fd5b506100846100e7565b60405161009191906102ac565b60405180910390f35b3480156100a657600080fd5b506100af6100ed565b6040516100bc9190610308565b60405180910390f35b6100df60048036038101906100da9190610380565b610111565b005b60015481565b60025481565b60008054906101000a900473ffffffffffffffffffffffffffffffffffffffff1681565b63deadbeef60028190555063f00df00d6001819055506000808373ffffffffffffffffffffffffffffffffffffffff16636466414b60e01b8460405160240161015a91906102ac565b604051602081830303815290604052907bffffffffffffffffffffffffffffffffffffffffffffffffffffffff19166020820180517bffffffffffffffffffffffffffffffffffffffffffffffffffffffff83818316178352505050506040516101c4919061043a565b600060405180830381855af49150503d80600081146101ff576040519150601f19603f3d011682016040523d82523d6000602084013e610204565b606091505b5091509150826002541461024d576040517f08c379a0000000000000000000000000000000000000000000000000000000008152600401610244906104ae565b60405180910390fd5b8161028d576040517f08c379a00000000000000000000000000000000000000000000000000000000081526004016102849061051a565b60405180910390fd5b50505050565b6000819050919050565b6102a681610293565b82525050565b60006020820190506102c1600083018461029d565b92915050565b600073ffffffffffffffffffffffffffffffffffffffff82169050919050565b60006102f2826102c7565b9050919050565b610302816102e7565b82525050565b600060208201905061031d60008301846102f9565b92915050565b600080fd5b610331816102e7565b811461033c57600080fd5b50565b60008135905061034e81610328565b92915050565b61035d81610293565b811461036857600080fd5b50565b60008135905061037a81610354565b92915050565b6000806040838503121561039757610396610323565b5b60006103a58582860161033f565b92505060206103b68582860161036b565b9150509250929050565b600081519050919050565b600081905092915050565b60005b838110156103f45780820151818401526020810190506103d9565b83811115610403576000848401525b50505050565b6000610414826103c0565b61041e81856103cb565b935061042e8185602086016103d6565b80840191505092915050565b60006104468284610409565b915081905092915050565b600082825260208201905092915050565b7f4469646e2774207365742069742e2e2e00000000000000000000000000000000600082015250565b6000610498601083610451565b91506104a382610462565b602082019050919050565b600060208201905081810360008301526104c78161048b565b9050919050565b7f64656c656761746563616c6c206661696c656400000000000000000000000000600082015250565b6000610504601383610451565b915061050f826104ce565b602082019050919050565b60006020820190508181036000830152610533816104f7565b905091905056fea26469706673582212204f055b3cbec0b39db80162bfcb9269527444b8d7b5964fdaa4d05d76cc48afc264736f6c63430008090033",
  "linkReferences": {},
  "deployedLinkReferences": {}
}