{
  "_format": "hh-sol-artifact-1",
  "contractName": "TestDelegatecall",
  "sourceName": "contracts/Delegatecall.sol",
  "abi": [
    {
      "inputs": [],
      "name": "num",
      "outputs": [
        {
          "internalType": "uint256",
          "name": "",
          "type": "uint256"
        }
      ],
      "stateMutability": "view",
      "type": "function"
    },
    {
      "inputs": [],
      "name": "sender",
      "outputs": [
        {
          "internalType": "address",
          "name": "",
          "type": "address"
        }
      ],
      "stateMutability": "view",
      "type": "function"
    },
    {
      "inputs": [
        {
          "internalType": "uint256",
          "name": "_num",
          "type": "uint256"
        }
      ],
      "name": "setVars",
      "outputs": [],
      "stateMutability": "payable",
      "type": "function"
    },
    {
      "inputs": [],
      "name": "value",
      "outputs": [
        {
          "internalType": "uint256",
          "name": "",
          "type": "uint256"
        }
      ],
      "stateMutability": "view",
      "type": "function"
    }
  ],
  "bytecode": "0x608060405234801561001057600080fd5b50610371806100206000396000f3fe60806040526004361061003f5760003560e01c80633fa4f245146100445780634e70b1dc1461006f5780636466414b1461009a57806367e404ce146100b6575b600080fd5b34801561005057600080fd5b506100596100e1565b60405161006691906101c3565b60405180910390f35b34801561007b57600080fd5b506100846100e7565b60405161009191906101c3565b60405180910390f35b6100b460048036038101906100af919061020f565b6100ed565b005b3480156100c257600080fd5b506100cb610186565b6040516100d8919061027d565b60405180910390f35b60015481565b60025481565b63deadbeef60025414610135576040517f08c379a000000000000000000000000000000000000000000000000000000000815260040161012c9061031b565b60405180910390fd5b336000806101000a81548173ffffffffffffffffffffffffffffffffffffffff021916908373ffffffffffffffffffffffffffffffffffffffff160217905550346001819055508060028190555050565b60008054906101000a900473ffffffffffffffffffffffffffffffffffffffff1681565b6000819050919050565b6101bd816101aa565b82525050565b60006020820190506101d860008301846101b4565b92915050565b600080fd5b6101ec816101aa565b81146101f757600080fd5b50565b600081359050610209816101e3565b92915050565b600060208284031215610225576102246101de565b5b6000610233848285016101fa565b91505092915050565b600073ffffffffffffffffffffffffffffffffffffffff82169050919050565b60006102678261023c565b9050919050565b6102778161025c565b82525050565b6000602082019050610292600083018461026e565b92915050565b600082825260208201905092915050565b7f4469646e2774207265666c656374207661726961626c65732066726f6d20636160008201527f6c6c696e6720636f6e747261637420636f72726563746c790000000000000000602082015250565b6000610305603883610298565b9150610310826102a9565b604082019050919050565b60006020820190508181036000830152610334816102f8565b905091905056fea2646970667358221220c0ce15eef945ce67fc6b96c09e1dbd7a5abcd6e17df4f3acc72ae8d691ece20064736f6c63430008090033",
  "linkReferences": {},
  "deployedLinkReferences": {}
}