{
  "_format": "hh-sol-artifact-1",
  "contractName": "OpenZeppelinRoleBasedToken",
  "sourceName": "contracts/openzeppelin/access-control/RoleBased.sol",
  "abi": [
    {
      "inputs": [
        {
          "internalType": "address",
          "name": "minter",
          "type": "address"
        }
      ],
      "stateMutability": "nonpayable",
      "type": "constructor"
    },
    {
      "anonymous": false,
      "inputs": [
        {
          "indexed": true,
          "internalType": "address",
          "name": "owner",
          "type": "address"
        },
        {
          "indexed": true,
          "internalType": "address",
          "name": "spender",
          "type": "address"
        },
        {
          "indexed": false,
          "internalType": "uint256",
          "name": "value",
          "type": "uint256"
        }
      ],
      "name": "Approval",
      "type": "event"
    },
    {
      "anonymous": false,
      "inputs": [
        {
          "indexed": true,
          "internalType": "bytes32",
          "name": "role",
          "type": "bytes32"
        },
        {
          "indexed": true,
          "internalType": "bytes32",
          "name": "previousAdminRole",
          "type": "bytes32"
        },
        {
          "indexed": true,
          "internalType": "bytes32",
          "name": "newAdminRole",
          "type": "bytes32"
        }
      ],
      "name": "RoleAdminChanged",
      "type": "event"
    },
    {
      "anonymous": false,
      "inputs": [
        {
          "indexed": true,
          "internalType": "bytes32",
          "name": "role",
          "type": "bytes32"
        },
        {
          "indexed": true,
          "internalType": "address",
          "name": "account",
          "type": "address"
        },
        {
          "indexed": true,
          "internalType": "address",
          "name": "sender",
          "type": "address"
        }
      ],
      "name": "RoleGranted",
      "type": "event"
    },
    {
      "anonymous": false,
      "inputs": [
        {
          "indexed": true,
          "internalType": "bytes32",
          "name": "role",
          "type": "bytes32"
        },
        {
          "indexed": true,
          "internalType": "address",
          "name": "account",
          "type": "address"
        },
        {
          "indexed": true,
          "internalType": "address",
          "name": "sender",
          "type": "address"
        }
      ],
      "name": "RoleRevoked",
      "type": "event"
    },
    {
      "anonymous": false,
      "inputs": [
        {
          "indexed": true,
          "internalType": "address",
          "name": "from",
          "type": "address"
        },
        {
          "indexed": true,
          "internalType": "address",
          "name": "to",
          "type": "address"
        },
        {
          "indexed": false,
          "internalType": "uint256",
          "name": "value",
          "type": "uint256"
        }
      ],
      "name": "Transfer",
      "type": "event"
    },
    {
      "inputs": [],
      "name": "BURNER_ROLE",
      "outputs": [
        {
          "internalType": "bytes32",
          "name": "",
          "type": "bytes32"
        }
      ],
      "stateMutability": "view",
      "type": "function"
    },
    {
      "inputs": [],
      "name": "DEFAULT_ADMIN_ROLE",
      "outputs": [
        {
          "internalType": "bytes32",
          "name": "",
          "type": "bytes32"
        }
      ],
      "stateMutability": "view",
      "type": "function"
    },
    {
      "inputs": [],
      "name": "MINTER_ROLE",
      "outputs": [
        {
          "internalType": "bytes32",
          "name": "",
          "type": "bytes32"
        }
      ],
      "stateMutability": "view",
      "type": "function"
    },
    {
      "inputs": [
        {
          "internalType": "address",
          "name": "owner",
          "type": "address"
        },
        {
          "internalType": "address",
          "name": "spender",
          "type": "address"
        }
      ],
      "name": "allowance",
      "outputs": [
        {
          "internalType": "uint256",
          "name": "",
          "type": "uint256"
        }
      ],
      "stateMutability": "view",
      "type": "function"
    },
    {
      "inputs": [
        {
          "internalType": "address",
          "name": "spender",
          "type": "address"
        },
        {
          "internalType": "uint256",
          "name": "amount",
          "type": "uint256"
        }
      ],
      "name": "approve",
      "outputs": [
        {
          "internalType": "bool",
          "name": "",
          "type": "bool"
        }
      ],
      "stateMutability": "nonpayable",
      "type": "function"
    },
    {
      "inputs": [
        {
          "internalType": "address",
          "name": "account",
          "type": "address"
        }
      ],
      "name": "balanceOf",
      "outputs": [
        {
          "internalType": "uint256",
          "name": "",
          "type": "uint256"
        }
      ],
      "stateMutability": "view",
      "type": "function"
    },
    {
      "inputs": [
        {
          "internalType": "address",
          "name": "from",
          "type": "address"
        },
        {
          "internalType": "uint256",
          "name": "amount",
          "type": "uint256"
        }
      ],
      "name": "burn",
      "outputs": [],
      "stateMutability": "nonpayable",
      "type": "function"
    },
    {
      "inputs": [],
      "name": "decimals",
      "outputs": [
        {
          "internalType": "uint8",
          "name": "",
          "type": "uint8"
        }
      ],
      "stateMutability": "view",
      "type": "function"
    },
    {
      "inputs": [
        {
          "internalType": "address",
          "name": "spender",
          "type": "address"
        },
        {
          "internalType": "uint256",
          "name": "subtractedValue",
          "type": "uint256"
        }
      ],
      "name": "decreaseAllowance",
      "outputs": [
        {
          "internalType": "bool",
          "name": "",
          "type": "bool"
        }
      ],
      "stateMutability": "nonpayable",
      "type": "function"
    },
    {
      "inputs": [
        {
          "internalType": "bytes32",
          "name": "role",
          "type": "bytes32"
        }
      ],
      "name": "getRoleAdmin",
      "outputs": [
        {
          "internalType": "bytes32",
          "name": "",
          "type": "bytes32"
        }
      ],
      "stateMutability": "view",
      "type": "function"
    },
    {
      "inputs": [
        {
          "internalType": "bytes32",
          "name": "role",
          "type": "bytes32"
        },
        {
          "internalType": "address",
          "name": "account",
          "type": "address"
        }
      ],
      "name": "grantRole",
      "outputs": [],
      "stateMutability": "nonpayable",
      "type": "function"
    },
    {
      "inputs": [
        {
          "internalType": "bytes32",
          "name": "role",
          "type": "bytes32"
        },
        {
          "internalType": "address",
          "name": "account",
          "type": "address"
        }
      ],
      "name": "hasRole",
      "outputs": [
        {
          "internalType": "bool",
          "name": "",
          "type": "bool"
        }
      ],
      "stateMutability": "view",
      "type": "function"
    },
    {
      "inputs": [
        {
          "internalType": "address",
          "name": "spender",
          "type": "address"
        },
        {
          "internalType": "uint256",
          "name": "addedValue",
          "type": "uint256"
        }
      ],
      "name": "increaseAllowance",
      "outputs": [
        {
          "internalType": "bool",
          "name": "",
          "type": "bool"
        }
      ],
      "stateMutability": "nonpayable",
      "type": "function"
    },
    {
      "inputs": [
        {
          "internalType": "address",
          "name": "to",
          "type": "address"
        },
        {
          "internalType": "uint256",
          "name": "amount",
          "type": "uint256"
        }
      ],
      "name": "mint",
      "outputs": [],
      "stateMutability": "nonpayable",
      "type": "function"
    },
    {
      "inputs": [],
      "name": "name",
      "outputs": [
        {
          "internalType": "string",
          "name": "",
          "type": "string"
        }
      ],
      "stateMutability": "view",
      "type": "function"
    },
    {
      "inputs": [
        {
          "internalType": "bytes32",
          "name": "role",
          "type": "bytes32"
        },
        {
          "internalType": "address",
          "name": "account",
          "type": "address"
        }
      ],
      "name": "renounceRole",
      "outputs": [],
      "stateMutability": "nonpayable",
      "type": "function"
    },
    {
      "inputs": [
        {
          "internalType": "bytes32",
          "name": "role",
          "type": "bytes32"
        },
        {
          "internalType": "address",
          "name": "account",
          "type": "address"
        }
      ],
      "name": "revokeRole",
      "outputs": [],
      "stateMutability": "nonpayable",
      "type": "function"
    },
    {
      "inputs": [
        {
          "internalType": "bytes4",
          "name": "interfaceId",
          "type": "bytes4"
        }
      ],
      "name": "supportsInterface",
      "outputs": [
        {
          "internalType": "bool",
          "name": "",
          "type": "bool"
        }
      ],
      "stateMutability": "view",
      "type": "function"
    },
    {
      "inputs": [],
      "name": "symbol",
      "outputs": [
        {
          "internalType": "string",
          "name": "",
          "type": "string"
        }
      ],
      "stateMutability": "view",
      "type": "function"
    },
    {
      "inputs": [],
      "name": "totalSupply",
      "outputs": [
        {
          "internalType": "uint256",
          "name": "",
          "type": "uint256"
        }
      ],
      "stateMutability": "view",
      "type": "function"
    },
    {
      "inputs": [
        {
          "internalType": "address",
          "name": "to",
          "type": "address"
        },
        {
          "internalType": "uint256",
          "name": "amount",
          "type": "uint256"
        }
      ],
      "name": "transfer",
      "outputs": [
        {
          "internalType": "bool",
          "name": "",
          "type": "bool"
        }
      ],
      "stateMutability": "nonpayable",
      "type": "function"
    },
    {
      "inputs": [
        {
          "internalType": "address",
          "name": "from",
          "type": "address"
        },
        {
          "internalType": "address",
          "name": "to",
          "type": "address"
        },
        {
          "internalType": "uint256",
          "name": "amount",
          "type": "uint256"
        }
      ],
      "name": "transferFrom",
      "outputs": [
        {
          "internalType": "bool",
          "name": "",
          "type": "bool"
        }
      ],
      "stateMutability": "nonpayable",
      "type": "function"
    }
  ],
  "bytecode": "0x60806040523480156200001157600080fd5b506040516200297e3803806200297e8339818101604052810190620000379190620003ba565b6040518060400160405280600781526020017f4d79546f6b656e000000000000000000000000000000000000000000000000008152506040518060400160405280600381526020017f544b4e00000000000000000000000000000000000000000000000000000000008152508160039080519060200190620000bb929190620002a0565b508060049080519060200190620000d4929190620002a0565b505050620001097f9f2df0fed2c77648de5860a4cc508cd0818c85b8b8a1ab4ceeef8d981c8956a6826200012560201b60201c565b6200011e6000801b336200012560201b60201c565b5062000451565b6200013782826200013b60201b60201c565b5050565b6200014d82826200022d60201b60201c565b620002295760016005600084815260200190815260200160002060000160008373ffffffffffffffffffffffffffffffffffffffff1673ffffffffffffffffffffffffffffffffffffffff16815260200190815260200160002060006101000a81548160ff021916908315150217905550620001ce6200029860201b60201c565b73ffffffffffffffffffffffffffffffffffffffff168173ffffffffffffffffffffffffffffffffffffffff16837f2f8788117e7eff1d82e926ec794901d17c78024a50270940304540a733656f0d60405160405180910390a45b5050565b60006005600084815260200190815260200160002060000160008373ffffffffffffffffffffffffffffffffffffffff1673ffffffffffffffffffffffffffffffffffffffff16815260200190815260200160002060009054906101000a900460ff16905092915050565b600033905090565b828054620002ae906200041b565b90600052602060002090601f016020900481019282620002d257600085556200031e565b82601f10620002ed57805160ff19168380011785556200031e565b828001600101855582156200031e579182015b828111156200031d57825182559160200191906001019062000300565b5b5090506200032d919062000331565b5090565b5b808211156200034c57600081600090555060010162000332565b5090565b600080fd5b600073ffffffffffffffffffffffffffffffffffffffff82169050919050565b6000620003828262000355565b9050919050565b620003948162000375565b8114620003a057600080fd5b50565b600081519050620003b48162000389565b92915050565b600060208284031215620003d357620003d262000350565b5b6000620003e384828501620003a3565b91505092915050565b7f4e487b7100000000000000000000000000000000000000000000000000000000600052602260045260246000fd5b600060028204905060018216806200043457607f821691505b602082108114156200044b576200044a620003ec565b5b50919050565b61251d80620004616000396000f3fe608060405234801561001057600080fd5b50600436106101425760003560e01c806340c10f19116100b8578063a217fddf1161007c578063a217fddf1461039d578063a457c2d7146103bb578063a9059cbb146103eb578063d53913931461041b578063d547741f14610439578063dd62ed3e1461045557610142565b806340c10f19146102e757806370a082311461030357806391d148541461033357806395d89b41146103635780639dc29fac1461038157610142565b8063248a9ca31161010a578063248a9ca314610213578063282c51f3146102435780632f2ff15d14610261578063313ce5671461027d57806336568abe1461029b57806339509351146102b757610142565b806301ffc9a71461014757806306fdde0314610177578063095ea7b31461019557806318160ddd146101c557806323b872dd146101e3575b600080fd5b610161600480360381019061015c91906117cb565b610485565b60405161016e9190611813565b60405180910390f35b61017f6104ff565b60405161018c91906118c7565b60405180910390f35b6101af60048036038101906101aa919061197d565b610591565b6040516101bc9190611813565b60405180910390f35b6101cd6105b4565b6040516101da91906119cc565b60405180910390f35b6101fd60048036038101906101f891906119e7565b6105be565b60405161020a9190611813565b60405180910390f35b61022d60048036038101906102289190611a70565b6105ed565b60405161023a9190611aac565b60405180910390f35b61024b61060d565b6040516102589190611aac565b60405180910390f35b61027b60048036038101906102769190611ac7565b610631565b005b610285610652565b6040516102929190611b23565b60405180910390f35b6102b560048036038101906102b09190611ac7565b61065b565b005b6102d160048036038101906102cc919061197d565b6106de565b6040516102de9190611813565b60405180910390f35b61030160048036038101906102fc919061197d565b610715565b005b61031d60048036038101906103189190611b3e565b61074e565b60405161032a91906119cc565b60405180910390f35b61034d60048036038101906103489190611ac7565b610796565b60405161035a9190611813565b60405180910390f35b61036b610801565b60405161037891906118c7565b60405180910390f35b61039b6004803603810190610396919061197d565b610893565b005b6103a56108cc565b6040516103b29190611aac565b60405180910390f35b6103d560048036038101906103d0919061197d565b6108d3565b6040516103e29190611813565b60405180910390f35b6104056004803603810190610400919061197d565b61094a565b6040516104129190611813565b60405180910390f35b61042361096d565b6040516104309190611aac565b60405180910390f35b610453600480360381019061044e9190611ac7565b610991565b005b61046f600480360381019061046a9190611b6b565b6109b2565b60405161047c91906119cc565b60405180910390f35b60007f7965db0b000000000000000000000000000000000000000000000000000000007bffffffffffffffffffffffffffffffffffffffffffffffffffffffff1916827bffffffffffffffffffffffffffffffffffffffffffffffffffffffff191614806104f857506104f782610a39565b5b9050919050565b60606003805461050e90611bda565b80601f016020809104026020016040519081016040528092919081815260200182805461053a90611bda565b80156105875780601f1061055c57610100808354040283529160200191610587565b820191906000526020600020905b81548152906001019060200180831161056a57829003601f168201915b5050505050905090565b60008061059c610aa3565b90506105a9818585610aab565b600191505092915050565b6000600254905090565b6000806105c9610aa3565b90506105d6858285610c76565b6105e1858585610d02565b60019150509392505050565b600060056000838152602001908152602001600020600101549050919050565b7f3c11d16cbaffd01df69ce1c404f6340ee057498f5f00246190ea54220576a84881565b61063a826105ed565b61064381610f7a565b61064d8383610f8e565b505050565b60006012905090565b610663610aa3565b73ffffffffffffffffffffffffffffffffffffffff168173ffffffffffffffffffffffffffffffffffffffff16146106d0576040517f08c379a00000000000000000000000000000000000000000000000000000000081526004016106c790611c7e565b60405180910390fd5b6106da828261106f565b5050565b6000806106e9610aa3565b905061070a8185856106fb85896109b2565b6107059190611ccd565b610aab565b600191505092915050565b7f9f2df0fed2c77648de5860a4cc508cd0818c85b8b8a1ab4ceeef8d981c8956a661073f81610f7a565b6107498383611151565b505050565b60008060008373ffffffffffffffffffffffffffffffffffffffff1673ffffffffffffffffffffffffffffffffffffffff168152602001908152602001600020549050919050565b60006005600084815260200190815260200160002060000160008373ffffffffffffffffffffffffffffffffffffffff1673ffffffffffffffffffffffffffffffffffffffff16815260200190815260200160002060009054906101000a900460ff16905092915050565b60606004805461081090611bda565b80601f016020809104026020016040519081016040528092919081815260200182805461083c90611bda565b80156108895780601f1061085e57610100808354040283529160200191610889565b820191906000526020600020905b81548152906001019060200180831161086c57829003601f168201915b5050505050905090565b7f3c11d16cbaffd01df69ce1c404f6340ee057498f5f00246190ea54220576a8486108bd81610f7a565b6108c783836112a8565b505050565b6000801b81565b6000806108de610aa3565b905060006108ec82866109b2565b905083811015610931576040517f08c379a000000000000000000000000000000000000000000000000000000000815260040161092890611d95565b60405180910390fd5b61093e8286868403610aab565b60019250505092915050565b600080610955610aa3565b9050610962818585610d02565b600191505092915050565b7f9f2df0fed2c77648de5860a4cc508cd0818c85b8b8a1ab4ceeef8d981c8956a681565b61099a826105ed565b6109a381610f7a565b6109ad838361106f565b505050565b6000600160008473ffffffffffffffffffffffffffffffffffffffff1673ffffffffffffffffffffffffffffffffffffffff16815260200190815260200160002060008373ffffffffffffffffffffffffffffffffffffffff1673ffffffffffffffffffffffffffffffffffffffff16815260200190815260200160002054905092915050565b60007f01ffc9a7000000000000000000000000000000000000000000000000000000007bffffffffffffffffffffffffffffffffffffffffffffffffffffffff1916827bffffffffffffffffffffffffffffffffffffffffffffffffffffffff1916149050919050565b600033905090565b600073ffffffffffffffffffffffffffffffffffffffff168373ffffffffffffffffffffffffffffffffffffffff161415610b1b576040517f08c379a0000000000000000000000000000000000000000000000000000000008152600401610b1290611e27565b60405180910390fd5b600073ffffffffffffffffffffffffffffffffffffffff168273ffffffffffffffffffffffffffffffffffffffff161415610b8b576040517f08c379a0000000000000000000000000000000000000000000000000000000008152600401610b8290611eb9565b60405180910390fd5b80600160008573ffffffffffffffffffffffffffffffffffffffff1673ffffffffffffffffffffffffffffffffffffffff16815260200190815260200160002060008473ffffffffffffffffffffffffffffffffffffffff1673ffffffffffffffffffffffffffffffffffffffff168152602001908152602001600020819055508173ffffffffffffffffffffffffffffffffffffffff168373ffffffffffffffffffffffffffffffffffffffff167f8c5be1e5ebec7d5bd14f71427d1e84f3dd0314c0f7b2291e5b200ac8c7c3b92583604051610c6991906119cc565b60405180910390a3505050565b6000610c8284846109b2565b90507fffffffffffffffffffffffffffffffffffffffffffffffffffffffffffffffff8114610cfc5781811015610cee576040517f08c379a0000000000000000000000000000000000000000000000000000000008152600401610ce590611f25565b60405180910390fd5b610cfb8484848403610aab565b5b50505050565b600073ffffffffffffffffffffffffffffffffffffffff168373ffffffffffffffffffffffffffffffffffffffff161415610d72576040517f08c379a0000000000000000000000000000000000000000000000000000000008152600401610d6990611fb7565b60405180910390fd5b600073ffffffffffffffffffffffffffffffffffffffff168273ffffffffffffffffffffffffffffffffffffffff161415610de2576040517f08c379a0000000000000000000000000000000000000000000000000000000008152600401610dd990612049565b60405180910390fd5b610ded838383611476565b60008060008573ffffffffffffffffffffffffffffffffffffffff1673ffffffffffffffffffffffffffffffffffffffff16815260200190815260200160002054905081811015610e73576040517f08c379a0000000000000000000000000000000000000000000000000000000008152600401610e6a906120db565b60405180910390fd5b8181036000808673ffffffffffffffffffffffffffffffffffffffff1673ffffffffffffffffffffffffffffffffffffffff16815260200190815260200160002081905550816000808573ffffffffffffffffffffffffffffffffffffffff1673ffffffffffffffffffffffffffffffffffffffff168152602001908152602001600020600082825401925050819055508273ffffffffffffffffffffffffffffffffffffffff168473ffffffffffffffffffffffffffffffffffffffff167fddf252ad1be2c89b69c2b068fc378daa952ba7f163c4a11628f55a4df523b3ef84604051610f6191906119cc565b60405180910390a3610f7484848461147b565b50505050565b610f8b81610f86610aa3565b611480565b50565b610f988282610796565b61106b5760016005600084815260200190815260200160002060000160008373ffffffffffffffffffffffffffffffffffffffff1673ffffffffffffffffffffffffffffffffffffffff16815260200190815260200160002060006101000a81548160ff021916908315150217905550611010610aa3565b73ffffffffffffffffffffffffffffffffffffffff168173ffffffffffffffffffffffffffffffffffffffff16837f2f8788117e7eff1d82e926ec794901d17c78024a50270940304540a733656f0d60405160405180910390a45b5050565b6110798282610796565b1561114d5760006005600084815260200190815260200160002060000160008373ffffffffffffffffffffffffffffffffffffffff1673ffffffffffffffffffffffffffffffffffffffff16815260200190815260200160002060006101000a81548160ff0219169083151502179055506110f2610aa3565b73ffffffffffffffffffffffffffffffffffffffff168173ffffffffffffffffffffffffffffffffffffffff16837ff6391f5c32d9c69d2a47ea670b442974b53935d1edc7fd64eb21e047a839171b60405160405180910390a45b5050565b600073ffffffffffffffffffffffffffffffffffffffff168273ffffffffffffffffffffffffffffffffffffffff1614156111c1576040517f08c379a00000000000000000000000000000000000000000000000000000000081526004016111b890612147565b60405180910390fd5b6111cd60008383611476565b80600260008282546111df9190611ccd565b92505081905550806000808473ffffffffffffffffffffffffffffffffffffffff1673ffffffffffffffffffffffffffffffffffffffff168152602001908152602001600020600082825401925050819055508173ffffffffffffffffffffffffffffffffffffffff16600073ffffffffffffffffffffffffffffffffffffffff167fddf252ad1be2c89b69c2b068fc378daa952ba7f163c4a11628f55a4df523b3ef8360405161129091906119cc565b60405180910390a36112a46000838361147b565b5050565b600073ffffffffffffffffffffffffffffffffffffffff168273ffffffffffffffffffffffffffffffffffffffff161415611318576040517f08c379a000000000000000000000000000000000000000000000000000000000815260040161130f906121d9565b60405180910390fd5b61132482600083611476565b60008060008473ffffffffffffffffffffffffffffffffffffffff1673ffffffffffffffffffffffffffffffffffffffff168152602001908152602001600020549050818110156113aa576040517f08c379a00000000000000000000000000000000000000000000000000000000081526004016113a19061226b565b60405180910390fd5b8181036000808573ffffffffffffffffffffffffffffffffffffffff1673ffffffffffffffffffffffffffffffffffffffff1681526020019081526020016000208190555081600260008282540392505081905550600073ffffffffffffffffffffffffffffffffffffffff168373ffffffffffffffffffffffffffffffffffffffff167fddf252ad1be2c89b69c2b068fc378daa952ba7f163c4a11628f55a4df523b3ef8460405161145d91906119cc565b60405180910390a36114718360008461147b565b505050565b505050565b505050565b61148a8282610796565b6115015761149781611505565b6114a58360001c6020611532565b6040516020016114b692919061235f565b6040516020818303038152906040526040517f08c379a00000000000000000000000000000000000000000000000000000000081526004016114f891906118c7565b60405180910390fd5b5050565b606061152b8273ffffffffffffffffffffffffffffffffffffffff16601460ff16611532565b9050919050565b6060600060028360026115459190612399565b61154f9190611ccd565b67ffffffffffffffff811115611568576115676123f3565b5b6040519080825280601f01601f19166020018201604052801561159a5781602001600182028036833780820191505090505b5090507f3000000000000000000000000000000000000000000000000000000000000000816000815181106115d2576115d1612422565b5b60200101907effffffffffffffffffffffffffffffffffffffffffffffffffffffffffffff1916908160001a9053507f78000000000000000000000000000000000000000000000000000000000000008160018151811061163657611635612422565b5b60200101907effffffffffffffffffffffffffffffffffffffffffffffffffffffffffffff1916908160001a905350600060018460026116769190612399565b6116809190611ccd565b90505b6001811115611720577f3031323334353637383961626364656600000000000000000000000000000000600f8616601081106116c2576116c1612422565b5b1a60f81b8282815181106116d9576116d8612422565b5b60200101907effffffffffffffffffffffffffffffffffffffffffffffffffffffffffffff1916908160001a905350600485901c94508061171990612451565b9050611683565b5060008414611764576040517f08c379a000000000000000000000000000000000000000000000000000000000815260040161175b906124c7565b60405180910390fd5b8091505092915050565b600080fd5b60007fffffffff0000000000000000000000000000000000000000000000000000000082169050919050565b6117a881611773565b81146117b357600080fd5b50565b6000813590506117c58161179f565b92915050565b6000602082840312156117e1576117e061176e565b5b60006117ef848285016117b6565b91505092915050565b60008115159050919050565b61180d816117f8565b82525050565b60006020820190506118286000830184611804565b92915050565b600081519050919050565b600082825260208201905092915050565b60005b8381101561186857808201518184015260208101905061184d565b83811115611877576000848401525b50505050565b6000601f19601f8301169050919050565b60006118998261182e565b6118a38185611839565b93506118b381856020860161184a565b6118bc8161187d565b840191505092915050565b600060208201905081810360008301526118e1818461188e565b905092915050565b600073ffffffffffffffffffffffffffffffffffffffff82169050919050565b6000611914826118e9565b9050919050565b61192481611909565b811461192f57600080fd5b50565b6000813590506119418161191b565b92915050565b6000819050919050565b61195a81611947565b811461196557600080fd5b50565b60008135905061197781611951565b92915050565b600080604083850312156119945761199361176e565b5b60006119a285828601611932565b92505060206119b385828601611968565b9150509250929050565b6119c681611947565b82525050565b60006020820190506119e160008301846119bd565b92915050565b600080600060608486031215611a00576119ff61176e565b5b6000611a0e86828701611932565b9350506020611a1f86828701611932565b9250506040611a3086828701611968565b9150509250925092565b6000819050919050565b611a4d81611a3a565b8114611a5857600080fd5b50565b600081359050611a6a81611a44565b92915050565b600060208284031215611a8657611a8561176e565b5b6000611a9484828501611a5b565b91505092915050565b611aa681611a3a565b82525050565b6000602082019050611ac16000830184611a9d565b92915050565b60008060408385031215611ade57611add61176e565b5b6000611aec85828601611a5b565b9250506020611afd85828601611932565b9150509250929050565b600060ff82169050919050565b611b1d81611b07565b82525050565b6000602082019050611b386000830184611b14565b92915050565b600060208284031215611b5457611b5361176e565b5b6000611b6284828501611932565b91505092915050565b60008060408385031215611b8257611b8161176e565b5b6000611b9085828601611932565b9250506020611ba185828601611932565b9150509250929050565b7f4e487b7100000000000000000000000000000000000000000000000000000000600052602260045260246000fd5b60006002820490506001821680611bf257607f821691505b60208210811415611c0657611c05611bab565b5b50919050565b7f416363657373436f6e74726f6c3a2063616e206f6e6c792072656e6f756e636560008201527f20726f6c657320666f722073656c660000000000000000000000000000000000602082015250565b6000611c68602f83611839565b9150611c7382611c0c565b604082019050919050565b60006020820190508181036000830152611c9781611c5b565b9050919050565b7f4e487b7100000000000000000000000000000000000000000000000000000000600052601160045260246000fd5b6000611cd882611947565b9150611ce383611947565b9250827fffffffffffffffffffffffffffffffffffffffffffffffffffffffffffffffff03821115611d1857611d17611c9e565b5b828201905092915050565b7f45524332303a2064656372656173656420616c6c6f77616e63652062656c6f7760008201527f207a65726f000000000000000000000000000000000000000000000000000000602082015250565b6000611d7f602583611839565b9150611d8a82611d23565b604082019050919050565b60006020820190508181036000830152611dae81611d72565b9050919050565b7f45524332303a20617070726f76652066726f6d20746865207a65726f2061646460008201527f7265737300000000000000000000000000000000000000000000000000000000602082015250565b6000611e11602483611839565b9150611e1c82611db5565b604082019050919050565b60006020820190508181036000830152611e4081611e04565b9050919050565b7f45524332303a20617070726f766520746f20746865207a65726f20616464726560008201527f7373000000000000000000000000000000000000000000000000000000000000602082015250565b6000611ea3602283611839565b9150611eae82611e47565b604082019050919050565b60006020820190508181036000830152611ed281611e96565b9050919050565b7f45524332303a20696e73756666696369656e7420616c6c6f77616e6365000000600082015250565b6000611f0f601d83611839565b9150611f1a82611ed9565b602082019050919050565b60006020820190508181036000830152611f3e81611f02565b9050919050565b7f45524332303a207472616e736665722066726f6d20746865207a65726f20616460008201527f6472657373000000000000000000000000000000000000000000000000000000602082015250565b6000611fa1602583611839565b9150611fac82611f45565b604082019050919050565b60006020820190508181036000830152611fd081611f94565b9050919050565b7f45524332303a207472616e7366657220746f20746865207a65726f206164647260008201527f6573730000000000000000000000000000000000000000000000000000000000602082015250565b6000612033602383611839565b915061203e82611fd7565b604082019050919050565b6000602082019050818103600083015261206281612026565b9050919050565b7f45524332303a207472616e7366657220616d6f756e742065786365656473206260008201527f616c616e63650000000000000000000000000000000000000000000000000000602082015250565b60006120c5602683611839565b91506120d082612069565b604082019050919050565b600060208201905081810360008301526120f4816120b8565b9050919050565b7f45524332303a206d696e7420746f20746865207a65726f206164647265737300600082015250565b6000612131601f83611839565b915061213c826120fb565b602082019050919050565b6000602082019050818103600083015261216081612124565b9050919050565b7f45524332303a206275726e2066726f6d20746865207a65726f2061646472657360008201527f7300000000000000000000000000000000000000000000000000000000000000602082015250565b60006121c3602183611839565b91506121ce82612167565b604082019050919050565b600060208201905081810360008301526121f2816121b6565b9050919050565b7f45524332303a206275726e20616d6f756e7420657863656564732062616c616e60008201527f6365000000000000000000000000000000000000000000000000000000000000602082015250565b6000612255602283611839565b9150612260826121f9565b604082019050919050565b6000602082019050818103600083015261228481612248565b9050919050565b600081905092915050565b7f416363657373436f6e74726f6c3a206163636f756e7420000000000000000000600082015250565b60006122cc60178361228b565b91506122d782612296565b601782019050919050565b60006122ed8261182e565b6122f7818561228b565b935061230781856020860161184a565b80840191505092915050565b7f206973206d697373696e6720726f6c6520000000000000000000000000000000600082015250565b600061234960118361228b565b915061235482612313565b601182019050919050565b600061236a826122bf565b915061237682856122e2565b91506123818261233c565b915061238d82846122e2565b91508190509392505050565b60006123a482611947565b91506123af83611947565b9250817fffffffffffffffffffffffffffffffffffffffffffffffffffffffffffffffff04831182151516156123e8576123e7611c9e565b5b828202905092915050565b7f4e487b7100000000000000000000000000000000000000000000000000000000600052604160045260246000fd5b7f4e487b7100000000000000000000000000000000000000000000000000000000600052603260045260246000fd5b600061245c82611947565b915060008214156124705761246f611c9e565b5b600182039050919050565b7f537472696e67733a20686578206c656e67746820696e73756666696369656e74600082015250565b60006124b1602083611839565b91506124bc8261247b565b602082019050919050565b600060208201905081810360008301526124e0816124a4565b905091905056fea26469706673582212204f9dbee420ab8f0547853363e8f7d6174b56d24b394964f6a676d779dcc4f59a64736f6c63430008090033",
  "linkReferences": {},
  "deployedLinkReferences": {}
}