{
  "_format": "hh-sol-artifact-1",
  "contractName": "ContractSupportingScillaReceiver",
  "sourceName": "contracts/ERC20isZRC2.sol",
  "abi": [
    {
      "inputs": [
        {
          "internalType": "string",
          "name": "",
          "type": "string"
        },
        {
          "internalType": "bytes",
          "name": "",
          "type": "bytes"
        }
      ],
      "name": "handle_scilla_message",
      "outputs": [],
      "stateMutability": "payable",
      "type": "function"
    },
    {
      "inputs": [
        {
          "internalType": "bytes4",
          "name": "interfaceID",
          "type": "bytes4"
        }
      ],
      "name": "supportsInterface",
      "outputs": [
        {
          "internalType": "bool",
          "name": "",
          "type": "bool"
        }
      ],
      "stateMutability": "view",
      "type": "function"
    }
  ],
  "bytecode": "0x608060405234801561001057600080fd5b50610453806100206000396000f3fe6080604052600436106100295760003560e01c806301ffc9a71461002e578063ebc8a27f1461006b575b600080fd5b34801561003a57600080fd5b5061005560048036038101906100509190610198565b610087565b60405161006291906101e0565b60405180910390f35b610085600480360381019061008091906103a1565b610127565b005b60006301ffc9a760e01b7bffffffffffffffffffffffffffffffffffffffffffffffffffffffff1916827bffffffffffffffffffffffffffffffffffffffffffffffffffffffff19161480610120575063ebc8a27f60e01b7bffffffffffffffffffffffffffffffffffffffffffffffffffffffff1916827bffffffffffffffffffffffffffffffffffffffffffffffffffffffff1916145b9050919050565b505050565b6000604051905090565b600080fd5b600080fd5b60007fffffffff0000000000000000000000000000000000000000000000000000000082169050919050565b61017581610140565b811461018057600080fd5b50565b6000813590506101928161016c565b92915050565b6000602082840312156101ae576101ad610136565b5b60006101bc84828501610183565b91505092915050565b60008115159050919050565b6101da816101c5565b82525050565b60006020820190506101f560008301846101d1565b92915050565b600080fd5b600080fd5b6000601f19601f8301169050919050565b7f4e487b7100000000000000000000000000000000000000000000000000000000600052604160045260246000fd5b61024e82610205565b810181811067ffffffffffffffff8211171561026d5761026c610216565b5b80604052505050565b600061028061012c565b905061028c8282610245565b919050565b600067ffffffffffffffff8211156102ac576102ab610216565b5b6102b582610205565b9050602081019050919050565b82818337600083830152505050565b60006102e46102df84610291565b610276565b905082815260208101848484011115610300576102ff610200565b5b61030b8482856102c2565b509392505050565b600082601f830112610328576103276101fb565b5b81356103388482602086016102d1565b91505092915050565b600080fd5b600080fd5b60008083601f840112610361576103606101fb565b5b8235905067ffffffffffffffff81111561037e5761037d610341565b5b60208301915083600182028301111561039a57610399610346565b5b9250929050565b6000806000604084860312156103ba576103b9610136565b5b600084013567ffffffffffffffff8111156103d8576103d761013b565b5b6103e486828701610313565b935050602084013567ffffffffffffffff8111156104055761040461013b565b5b6104118682870161034b565b9250925050925092509256fea26469706673582212201116dd256513a40479b7d33de85f7746ad9598f5590dc5a70f6baa0e9f619c1664736f6c63430008090033",
  "linkReferences": {},
  "deployedLinkReferences": {}
}