{
  "_format": "hh-sol-artifact-1",
  "contractName": "ERC20isZRC2",
  "sourceName": "contracts/ERC20isZRC2.sol",
  "abi": [
    {
      "inputs": [
        {
          "internalType": "address",
          "name": "zrc2_address",
          "type": "address"
        }
      ],
      "stateMutability": "nonpayable",
      "type": "constructor"
    },
    {
      "anonymous": false,
      "inputs": [],
      "name": "DecreasedAllowanceEvent",
      "type": "event"
    },
    {
      "anonymous": false,
      "inputs": [],
      "name": "IncreasedAllowanceEvent",
      "type": "event"
    },
    {
      "anonymous": false,
      "inputs": [],
      "name": "TransferEvent",
      "type": "event"
    },
    {
      "inputs": [
        {
          "internalType": "string",
          "name": "variable_name",
          "type": "string"
        }
      ],
      "name": "_read_scilla_string",
      "outputs": [
        {
          "internalType": "string",
          "name": "retVal",
          "type": "string"
        }
      ],
      "stateMutability": "view",
      "type": "function"
    },
    {
      "inputs": [
        {
          "internalType": "address",
          "name": "tokenOwner",
          "type": "address"
        },
        {
          "internalType": "address",
          "name": "spender",
          "type": "address"
        }
      ],
      "name": "allowance",
      "outputs": [
        {
          "internalType": "uint128",
          "name": "",
          "type": "uint128"
        }
      ],
      "stateMutability": "view",
      "type": "function"
    },
    {
      "inputs": [
        {
          "internalType": "address",
          "name": "spender",
          "type": "address"
        },
        {
          "internalType": "uint128",
          "name": "new_allowance",
          "type": "uint128"
        }
      ],
      "name": "approve",
      "outputs": [
        {
          "internalType": "bool",
          "name": "",
          "type": "bool"
        }
      ],
      "stateMutability": "nonpayable",
      "type": "function"
    },
    {
      "inputs": [
        {
          "internalType": "address",
          "name": "tokenOwner",
          "type": "address"
        }
      ],
      "name": "balanceOf",
      "outputs": [
        {
          "internalType": "uint128",
          "name": "",
          "type": "uint128"
        }
      ],
      "stateMutability": "view",
      "type": "function"
    },
    {
      "inputs": [
        {
          "internalType": "address",
          "name": "to",
          "type": "address"
        },
        {
          "internalType": "uint128",
          "name": "tokens",
          "type": "uint128"
        }
      ],
      "name": "burn",
      "outputs": [
        {
          "internalType": "bool",
          "name": "",
          "type": "bool"
        }
      ],
      "stateMutability": "nonpayable",
      "type": "function"
    },
    {
      "inputs": [],
      "name": "initSupply",
      "outputs": [
        {
          "internalType": "uint128",
          "name": "",
          "type": "uint128"
        }
      ],
      "stateMutability": "view",
      "type": "function"
    },
    {
      "inputs": [
        {
          "internalType": "address",
          "name": "to",
          "type": "address"
        },
        {
          "internalType": "uint128",
          "name": "tokens",
          "type": "uint128"
        }
      ],
      "name": "mint",
      "outputs": [
        {
          "internalType": "bool",
          "name": "",
          "type": "bool"
        }
      ],
      "stateMutability": "nonpayable",
      "type": "function"
    },
    {
      "inputs": [
        {
          "internalType": "uint128",
          "name": "a",
          "type": "uint128"
        },
        {
          "internalType": "uint128",
          "name": "b",
          "type": "uint128"
        }
      ],
      "name": "safeAdd",
      "outputs": [
        {
          "internalType": "uint128",
          "name": "c",
          "type": "uint128"
        }
      ],
      "stateMutability": "pure",
      "type": "function"
    },
    {
      "inputs": [
        {
          "internalType": "uint128",
          "name": "a",
          "type": "uint128"
        },
        {
          "internalType": "uint128",
          "name": "b",
          "type": "uint128"
        }
      ],
      "name": "safeDiv",
      "outputs": [
        {
          "internalType": "uint128",
          "name": "c",
          "type": "uint128"
        }
      ],
      "stateMutability": "pure",
      "type": "function"
    },
    {
      "inputs": [
        {
          "internalType": "uint128",
          "name": "a",
          "type": "uint128"
        },
        {
          "internalType": "uint128",
          "name": "b",
          "type": "uint128"
        }
      ],
      "name": "safeMul",
      "outputs": [
        {
          "internalType": "uint128",
          "name": "c",
          "type": "uint128"
        }
      ],
      "stateMutability": "pure",
      "type": "function"
    },
    {
      "inputs": [
        {
          "internalType": "uint128",
          "name": "a",
          "type": "uint128"
        },
        {
          "internalType": "uint128",
          "name": "b",
          "type": "uint128"
        }
      ],
      "name": "safeSub",
      "outputs": [
        {
          "internalType": "uint128",
          "name": "c",
          "type": "uint128"
        }
      ],
      "stateMutability": "pure",
      "type": "function"
    },
    {
      "inputs": [],
      "name": "tokenName",
      "outputs": [
        {
          "internalType": "string",
          "name": "",
          "type": "string"
        }
      ],
      "stateMutability": "view",
      "type": "function"
    },
    {
      "inputs": [],
      "name": "totalSupply",
      "outputs": [
        {
          "internalType": "uint128",
          "name": "",
          "type": "uint128"
        }
      ],
      "stateMutability": "view",
      "type": "function"
    },
    {
      "inputs": [
        {
          "internalType": "address",
          "name": "to",
          "type": "address"
        },
        {
          "internalType": "uint128",
          "name": "tokens",
          "type": "uint128"
        }
      ],
      "name": "transfer",
      "outputs": [
        {
          "internalType": "bool",
          "name": "",
          "type": "bool"
        }
      ],
      "stateMutability": "nonpayable",
      "type": "function"
    },
    {
      "inputs": [
        {
          "internalType": "address",
          "name": "to",
          "type": "address"
        },
        {
          "internalType": "uint128",
          "name": "tokens",
          "type": "uint128"
        }
      ],
      "name": "transferFailed",
      "outputs": [
        {
          "internalType": "bool",
          "name": "",
          "type": "bool"
        }
      ],
      "stateMutability": "nonpayable",
      "type": "function"
    },
    {
      "inputs": [
        {
          "internalType": "address",
          "name": "from",
          "type": "address"
        },
        {
          "internalType": "address",
          "name": "to",
          "type": "address"
        },
        {
          "internalType": "uint128",
          "name": "tokens",
          "type": "uint128"
        }
      ],
      "name": "transferFrom",
      "outputs": [
        {
          "internalType": "bool",
          "name": "",
          "type": "bool"
        }
      ],
      "stateMutability": "nonpayable",
      "type": "function"
    }
  ],
  "bytecode": "0x60806040523480156200001157600080fd5b50604051620019f9380380620019f9833981810160405281019062000037919062000129565b336000806101000a81548173ffffffffffffffffffffffffffffffffffffffff021916908373ffffffffffffffffffffffffffffffffffffffff16021790555080600160006101000a81548173ffffffffffffffffffffffffffffffffffffffff021916908373ffffffffffffffffffffffffffffffffffffffff160217905550506200015b565b600080fd5b600073ffffffffffffffffffffffffffffffffffffffff82169050919050565b6000620000f182620000c4565b9050919050565b6200010381620000e4565b81146200010f57600080fd5b50565b6000815190506200012381620000f8565b92915050565b600060208284031215620001425762000141620000bf565b5b6000620001528482850162000112565b91505092915050565b61188e806200016b6000396000f3fe608060405234801561001057600080fd5b50600436106101005760003560e01c80637b78145211610097578063be29184f11610066578063be29184f1461030f578063c4b7d1501461033f578063dd62ed3e1461036f578063fbb001d61461039f57610100565b80637b78145214610261578063958ec7d11461029157806397d63f93146102c1578063a1ed6f23146102df57610100565b80636c02a931116100d35780636c02a931146101b357806370a08231146101d15780637261e46914610201578063777411811461023157610100565b806315c9951b1461010557806318160ddd146101355780632d68a03c1461015357806336feb49814610183575b600080fd5b61011f600480360381019061011a9190610f8f565b6103cf565b60405161012c9190610fde565b60405180910390f35b61013d610416565b60405161014a9190610fde565b60405180910390f35b61016d60048036038101906101689190610f8f565b61045b565b60405161017a9190610fde565b60405180910390f35b61019d6004803603810190610198919061113f565b6104a2565b6040516101aa9190611210565b60405180910390f35b6101bb610596565b6040516101c89190611210565b60405180910390f35b6101eb60048036038101906101e69190611290565b6105db565b6040516101f89190610fde565b60405180910390f35b61021b600480360381019061021691906112bd565b610623565b6040516102289190611318565b60405180910390f35b61024b600480360381019061024691906112bd565b6106fe565b6040516102589190611318565b60405180910390f35b61027b60048036038101906102769190611333565b61074a565b6040516102889190611318565b60405180910390f35b6102ab60048036038101906102a691906112bd565b610798565b6040516102b89190611318565b60405180910390f35b6102c9610907565b6040516102d69190610fde565b60405180910390f35b6102f960048036038101906102f49190610f8f565b61094c565b6040516103069190610fde565b60405180910390f35b610329600480360381019061032491906112bd565b610980565b6040516103369190611318565b60405180910390f35b61035960048036038101906103549190610f8f565b610a5b565b6040516103669190610fde565b60405180910390f35b61038960048036038101906103849190611386565b610ac9565b6040516103969190610fde565b60405180910390f35b6103b960048036038101906103b491906112bd565b610b13565b6040516103c69190611318565b60405180910390f35b600081836103dd91906113f5565b9050826fffffffffffffffffffffffffffffffff16816fffffffffffffffffffffffffffffffff16101561041057600080fd5b92915050565b60006104566040518060400160405280600c81526020017f746f74616c5f737570706c790000000000000000000000000000000000000000815250610b8b565b905090565b6000826fffffffffffffffffffffffffffffffff16826fffffffffffffffffffffffffffffffff16111561048e57600080fd5b818361049a919061143b565b905092915050565b60606000600160009054906101000a900473ffffffffffffffffffffffffffffffffffffffff16836040516020016104db92919061147e565b6040516020818303038152906040529050600081519050600080608067ffffffffffffffff8111156105105761050f611014565b5b6040519080825280601f01601f1916602001820160405280156105425781602001600182028036833780820191505090505b50905060006004825161055591906114b8565b905080602083018560208801635a494c92615208fa92508261057657600080fd5b8180602001905181019061058a919061155c565b95505050505050919050565b60606105d66040518060400160405280600481526020017f6e616d65000000000000000000000000000000000000000000000000000000008152506104a2565b905090565b600061061c6040518060400160405280600881526020017f62616c616e63657300000000000000000000000000000000000000000000000081525083610c6b565b9050919050565b60008060009054906101000a900473ffffffffffffffffffffffffffffffffffffffff1673ffffffffffffffffffffffffffffffffffffffff163373ffffffffffffffffffffffffffffffffffffffff16146106b4576040517f08c379a00000000000000000000000000000000000000000000000000000000081526004016106ab906115f1565b60405180910390fd5b6106f46040518060400160405280600481526020017f4275726e000000000000000000000000000000000000000000000000000000008152508484610d4e565b6001905092915050565b60006107406040518060400160405280600e81526020017f5472616e736665724661696c65640000000000000000000000000000000000008152508484610d4e565b6001905092915050565b600061078d6040518060400160405280600c81526020017f5472616e7366657246726f6d0000000000000000000000000000000000000000815250858585610dcc565b600190509392505050565b6000806107db6040518060400160405280600a81526020017f616c6c6f77616e636573000000000000000000000000000000000000000000008152503386610e4d565b9050826fffffffffffffffffffffffffffffffff16816fffffffffffffffffffffffffffffffff1610610884576108536040518060400160405280601181526020017f4465637265617365416c6c6f77616e636500000000000000000000000000000081525085858461084e919061143b565b610d4e565b7f534b9f3c9f750cacb081bfbac384a166e9fb729da74b606cdead4ed866fbc12960405160405180910390a16108fc565b6108cf6040518060400160405280601181526020017f496e637265617365416c6c6f77616e63650000000000000000000000000000008152508583866108ca919061143b565b610d4e565b7fb1c0a3c3e92ea083289f647d3c2db3bd9c6a2044f15f5f36b5383884efe498c760405160405180910390a15b600191505092915050565b60006109476040518060400160405280600b81526020017f696e69745f737570706c79000000000000000000000000000000000000000000815250610b8b565b905090565b600080826fffffffffffffffffffffffffffffffff161161096c57600080fd5b81836109789190611640565b905092915050565b60008060009054906101000a900473ffffffffffffffffffffffffffffffffffffffff1673ffffffffffffffffffffffffffffffffffffffff163373ffffffffffffffffffffffffffffffffffffffff1614610a11576040517f08c379a0000000000000000000000000000000000000000000000000000000008152600401610a08906115f1565b60405180910390fd5b610a516040518060400160405280600481526020017f4d696e74000000000000000000000000000000000000000000000000000000008152508484610d4e565b6001905092915050565b60008183610a699190611671565b90506000836fffffffffffffffffffffffffffffffff161480610aba5750816fffffffffffffffffffffffffffffffff168382610aa69190611640565b6fffffffffffffffffffffffffffffffff16145b610ac357600080fd5b92915050565b6000610b0b6040518060400160405280600a81526020017f616c6c6f77616e636573000000000000000000000000000000000000000000008152508484610e4d565b905092915050565b6000610b556040518060400160405280600881526020017f5472616e736665720000000000000000000000000000000000000000000000008152508484610d4e565b7f0c6221d88a8ea39a8a13fba624ad0d417e0d618ac9363931d5ed211a9c02a31860405160405180910390a16001905092915050565b600080600160009054906101000a900473ffffffffffffffffffffffffffffffffffffffff1683604051602001610bc392919061147e565b6040516020818303038152906040529050600081519050600080602467ffffffffffffffff811115610bf857610bf7611014565b5b6040519080825280601f01601f191660200182016040528015610c2a5781602001600182028036833780820191505090505b50905060208082018460208701635a494c92615208fa915081610c4c57600080fd5b80806020019051810190610c6091906116d0565b945050505050919050565b600080600160009054906101000a900473ffffffffffffffffffffffffffffffffffffffff168484604051602001610ca5939291906116fd565b6040516020818303038152906040529050600081519050600080602467ffffffffffffffff811115610cda57610cd9611014565b5b6040519080825280601f01601f191660200182016040528015610d0c5781602001600182028036833780820191505090505b50905060208082018460208701635a494c92615208fa915081610d2e57600080fd5b80806020019051810190610d4291906116d0565b94505050505092915050565b6000600160009054906101000a900473ffffffffffffffffffffffffffffffffffffffff168460018585604051602001610d8c95949392919061174a565b6040516020818303038152906040529050600081519050600080602083602086016000635a494c53615208f1905080610dc457600080fd5b505050505050565b6000600160009054906101000a900473ffffffffffffffffffffffffffffffffffffffff16856001868686604051602001610e0c969594939291906117a4565b6040516020818303038152906040529050600081519050600080602083602086016000635a494c53615208f1905080610e4457600080fd5b50505050505050565b600080600160009054906101000a900473ffffffffffffffffffffffffffffffffffffffff16858585604051602001610e89949392919061180c565b6040516020818303038152906040529050600081519050600080602467ffffffffffffffff811115610ebe57610ebd611014565b5b6040519080825280601f01601f191660200182016040528015610ef05781602001600182028036833780820191505090505b50905060208082018460208701635a494c92615208fa915081610f1257600080fd5b80806020019051810190610f2691906116d0565b9450505050509392505050565b6000604051905090565b600080fd5b600080fd5b60006fffffffffffffffffffffffffffffffff82169050919050565b610f6c81610f47565b8114610f7757600080fd5b50565b600081359050610f8981610f63565b92915050565b60008060408385031215610fa657610fa5610f3d565b5b6000610fb485828601610f7a565b9250506020610fc585828601610f7a565b9150509250929050565b610fd881610f47565b82525050565b6000602082019050610ff36000830184610fcf565b92915050565b600080fd5b600080fd5b6000601f19601f8301169050919050565b7f4e487b7100000000000000000000000000000000000000000000000000000000600052604160045260246000fd5b61104c82611003565b810181811067ffffffffffffffff8211171561106b5761106a611014565b5b80604052505050565b600061107e610f33565b905061108a8282611043565b919050565b600067ffffffffffffffff8211156110aa576110a9611014565b5b6110b382611003565b9050602081019050919050565b82818337600083830152505050565b60006110e26110dd8461108f565b611074565b9050828152602081018484840111156110fe576110fd610ffe565b5b6111098482856110c0565b509392505050565b600082601f83011261112657611125610ff9565b5b81356111368482602086016110cf565b91505092915050565b60006020828403121561115557611154610f3d565b5b600082013567ffffffffffffffff81111561117357611172610f42565b5b61117f84828501611111565b91505092915050565b600081519050919050565b600082825260208201905092915050565b60005b838110156111c25780820151818401526020810190506111a7565b838111156111d1576000848401525b50505050565b60006111e282611188565b6111ec8185611193565b93506111fc8185602086016111a4565b61120581611003565b840191505092915050565b6000602082019050818103600083015261122a81846111d7565b905092915050565b600073ffffffffffffffffffffffffffffffffffffffff82169050919050565b600061125d82611232565b9050919050565b61126d81611252565b811461127857600080fd5b50565b60008135905061128a81611264565b92915050565b6000602082840312156112a6576112a5610f3d565b5b60006112b48482850161127b565b91505092915050565b600080604083850312156112d4576112d3610f3d565b5b60006112e28582860161127b565b92505060206112f385828601610f7a565b9150509250929050565b60008115159050919050565b611312816112fd565b82525050565b600060208201905061132d6000830184611309565b92915050565b60008060006060848603121561134c5761134b610f3d565b5b600061135a8682870161127b565b935050602061136b8682870161127b565b925050604061137c86828701610f7a565b9150509250925092565b6000806040838503121561139d5761139c610f3d565b5b60006113ab8582860161127b565b92505060206113bc8582860161127b565b9150509250929050565b7f4e487b7100000000000000000000000000000000000000000000000000000000600052601160045260246000fd5b600061140082610f47565b915061140b83610f47565b9250826fffffffffffffffffffffffffffffffff038211156114305761142f6113c6565b5b828201905092915050565b600061144682610f47565b915061145183610f47565b925082821015611464576114636113c6565b5b828203905092915050565b61147881611252565b82525050565b6000604082019050611493600083018561146f565b81810360208301526114a581846111d7565b90509392505050565b6000819050919050565b60006114c3826114ae565b91506114ce836114ae565b9250828210156114e1576114e06113c6565b5b828203905092915050565b60006114ff6114fa8461108f565b611074565b90508281526020810184848401111561151b5761151a610ffe565b5b6115268482856111a4565b509392505050565b600082601f83011261154357611542610ff9565b5b81516115538482602086016114ec565b91505092915050565b60006020828403121561157257611571610f3d565b5b600082015167ffffffffffffffff8111156115905761158f610f42565b5b61159c8482850161152e565b91505092915050565b7f4f6e6c7920616c6c6f77656420666f7220636f6e7472616374206f776e657200600082015250565b60006115db601f83611193565b91506115e6826115a5565b602082019050919050565b6000602082019050818103600083015261160a816115ce565b9050919050565b7f4e487b7100000000000000000000000000000000000000000000000000000000600052601260045260246000fd5b600061164b82610f47565b915061165683610f47565b92508261166657611665611611565b5b828204905092915050565b600061167c82610f47565b915061168783610f47565b9250816fffffffffffffffffffffffffffffffff04831182151516156116b0576116af6113c6565b5b828202905092915050565b6000815190506116ca81610f63565b92915050565b6000602082840312156116e6576116e5610f3d565b5b60006116f4848285016116bb565b91505092915050565b6000606082019050611712600083018661146f565b818103602083015261172481856111d7565b9050611733604083018461146f565b949350505050565b611744816114ae565b82525050565b600060a08201905061175f600083018861146f565b818103602083015261177181876111d7565b9050611780604083018661173b565b61178d606083018561146f565b61179a6080830184610fcf565b9695505050505050565b600060c0820190506117b9600083018961146f565b81810360208301526117cb81886111d7565b90506117da604083018761173b565b6117e7606083018661146f565b6117f4608083018561146f565b61180160a0830184610fcf565b979650505050505050565b6000608082019050611821600083018761146f565b818103602083015261183381866111d7565b9050611842604083018561146f565b61184f606083018461146f565b9594505050505056fea26469706673582212204da4884c66cb6269d87352eeacca3ad773758ba2738d4f98c22842494a840f9564736f6c63430008090033",
  "linkReferences": {},
  "deployedLinkReferences": {}
}