{
  "_format": "hh-sol-artifact-1",
  "contractName": "BlockchainInstructions",
  "sourceName": "contracts/BlockchainInstructions.sol",
  "abi": [
    {
      "inputs": [],
      "name": "_blockHash",
      "outputs": [
        {
          "internalType": "bytes32",
          "name": "",
          "type": "bytes32"
        }
      ],
      "stateMutability": "view",
      "type": "function"
    },
    {
      "inputs": [],
      "name": "_coinbase",
      "outputs": [
        {
          "internalType": "address",
          "name": "",
          "type": "address"
        }
      ],
      "stateMutability": "view",
      "type": "function"
    },
    {
      "inputs": [],
      "name": "_difficulty",
      "outputs": [
        {
          "internalType": "uint256",
          "name": "",
          "type": "uint256"
        }
      ],
      "stateMutability": "view",
      "type": "function"
    },
    {
      "inputs": [],
      "name": "_gaslimit",
      "outputs": [
        {
          "internalType": "uint256",
          "name": "",
          "type": "uint256"
        }
      ],
      "stateMutability": "view",
      "type": "function"
    },
    {
      "inputs": [],
      "name": "_gasprice",
      "outputs": [
        {
          "internalType": "uint256",
          "name": "",
          "type": "uint256"
        }
      ],
      "stateMutability": "view",
      "type": "function"
    },
    {
      "inputs": [],
      "name": "_origin",
      "outputs": [
        {
          "internalType": "address",
          "name": "",
          "type": "address"
        }
      ],
      "stateMutability": "view",
      "type": "function"
    },
    {
      "inputs": [],
      "name": "_timestamp",
      "outputs": [
        {
          "internalType": "uint256",
          "name": "",
          "type": "uint256"
        }
      ],
      "stateMutability": "view",
      "type": "function"
    },
    {
      "inputs": [
        {
          "internalType": "uint256",
          "name": "blockNumber",
          "type": "uint256"
        }
      ],
      "name": "blockHash",
      "outputs": [
        {
          "internalType": "bytes32",
          "name": "",
          "type": "bytes32"
        }
      ],
      "stateMutability": "nonpayable",
      "type": "function"
    },
    {
      "inputs": [],
      "name": "coinbase",
      "outputs": [
        {
          "internalType": "address",
          "name": "",
          "type": "address"
        }
      ],
      "stateMutability": "nonpayable",
      "type": "function"
    },
    {
      "inputs": [],
      "name": "difficulty",
      "outputs": [
        {
          "internalType": "uint256",
          "name": "",
          "type": "uint256"
        }
      ],
      "stateMutability": "nonpayable",
      "type": "function"
    },
    {
      "inputs": [],
      "name": "gaslimit",
      "outputs": [
        {
          "internalType": "uint256",
          "name": "",
          "type": "uint256"
        }
      ],
      "stateMutability": "nonpayable",
      "type": "function"
    },
    {
      "inputs": [],
      "name": "gasprice",
      "outputs": [
        {
          "internalType": "uint256",
          "name": "",
          "type": "uint256"
        }
      ],
      "stateMutability": "nonpayable",
      "type": "function"
    },
    {
      "inputs": [
        {
          "internalType": "uint256",
          "name": "blockNumber",
          "type": "uint256"
        }
      ],
      "name": "getBlockHash",
      "outputs": [
        {
          "internalType": "bytes32",
          "name": "",
          "type": "bytes32"
        }
      ],
      "stateMutability": "view",
      "type": "function"
    },
    {
      "inputs": [],
      "name": "getCoinbase",
      "outputs": [
        {
          "internalType": "address",
          "name": "",
          "type": "address"
        }
      ],
      "stateMutability": "view",
      "type": "function"
    },
    {
      "inputs": [],
      "name": "getDifficulty",
      "outputs": [
        {
          "internalType": "uint256",
          "name": "",
          "type": "uint256"
        }
      ],
      "stateMutability": "view",
      "type": "function"
    },
    {
      "inputs": [],
      "name": "getGaslimit",
      "outputs": [
        {
          "internalType": "uint256",
          "name": "",
          "type": "uint256"
        }
      ],
      "stateMutability": "view",
      "type": "function"
    },
    {
      "inputs": [],
      "name": "getGasprice",
      "outputs": [
        {
          "internalType": "uint256",
          "name": "",
          "type": "uint256"
        }
      ],
      "stateMutability": "view",
      "type": "function"
    },
    {
      "inputs": [],
      "name": "getOrigin",
      "outputs": [
        {
          "internalType": "address",
          "name": "",
          "type": "address"
        }
      ],
      "stateMutability": "view",
      "type": "function"
    },
    {
      "inputs": [],
      "name": "getTimestamp",
      "outputs": [
        {
          "internalType": "uint256",
          "name": "",
          "type": "uint256"
        }
      ],
      "stateMutability": "view",
      "type": "function"
    },
    {
      "inputs": [],
      "name": "origin",
      "outputs": [
        {
          "internalType": "address",
          "name": "",
          "type": "address"
        }
      ],
      "stateMutability": "nonpayable",
      "type": "function"
    },
    {
      "inputs": [],
      "name": "timestamp",
      "outputs": [
        {
          "internalType": "uint256",
          "name": "",
          "type": "uint256"
        }
      ],
      "stateMutability": "nonpayable",
      "type": "function"
    }
  ],
  "bytecode": "0x608060405234801561001057600080fd5b506106fc806100206000396000f3fe608060405234801561001057600080fd5b50600436106101375760003560e01c8063a6ae0aac116100b8578063b80777ea1161007c578063b80777ea14610310578063d1a82a9d1461032e578063ddc72d231461034c578063df1f29ee1461036a578063ee82ac5e14610388578063f0edefe6146103b857610137565b8063a6ae0aac1461027a578063ab70fd6914610298578063abc96831146102b6578063b0ab2ac0146102d4578063b6baffe3146102f257610137565b80636ec232d3116100ff5780636ec232d3146101d257806385df51fd146101f0578063938b5f3214610220578063a0f0ad441461023e578063a16963b31461025c57610137565b8063188ec3561461013c57806319cae4621461015a5780632a7228391461017857806336f169fc14610196578063669475b7146101b4575b600080fd5b6101446103d6565b60405161015191906105bd565b60405180910390f35b6101626103de565b60405161016f91906105bd565b60405180910390f35b6101806103ef565b60405161018d91906105bd565b60405180910390f35b61019e610400565b6040516101ab91906105bd565b60405180910390f35b6101bc610406565b6040516101c991906105bd565b60405180910390f35b6101da61040c565b6040516101e791906105bd565b60405180910390f35b61020a60048036038101906102059190610609565b61041d565b604051610217919061064f565b60405180910390f35b610228610431565b60405161023591906106ab565b60405180910390f35b610246610499565b60405161025391906106ab565b60405180910390f35b6102646104bf565b60405161027191906105bd565b60405180910390f35b6102826104c7565b60405161028f91906106ab565b60405180910390f35b6102a0610532565b6040516102ad91906105bd565b60405180910390f35b6102be61053a565b6040516102cb919061064f565b60405180910390f35b6102dc610540565b6040516102e991906105bd565b60405180910390f35b6102fa610546565b60405161030791906105bd565b60405180910390f35b61031861054e565b60405161032591906105bd565b60405180910390f35b61033661055f565b60405161034391906106ab565b60405180910390f35b610354610567565b60405161036191906105bd565b60405180910390f35b61037261056d565b60405161037f91906106ab565b60405180910390f35b6103a2600480360381019061039d9190610609565b610575565b6040516103af919061064f565b60405180910390f35b6103c0610580565b6040516103cd91906106ab565b60405180910390f35b600042905090565b600044600581905550600554905090565b600045600681905550600654905090565b60065481565b60045481565b60003a600281905550600254905090565b600081406003819055506003549050919050565b6000326000806101000a81548173ffffffffffffffffffffffffffffffffffffffff021916908373ffffffffffffffffffffffffffffffffffffffff16021790555060008054906101000a900473ffffffffffffffffffffffffffffffffffffffff16905090565b600160009054906101000a900473ffffffffffffffffffffffffffffffffffffffff1681565b600045905090565b600041600160006101000a81548173ffffffffffffffffffffffffffffffffffffffff021916908373ffffffffffffffffffffffffffffffffffffffff160217905550600160009054906101000a900473ffffffffffffffffffffffffffffffffffffffff16905090565b60003a905090565b60035481565b60025481565b600044905090565b600042600481905550600454905090565b600041905090565b60055481565b600032905090565b600081409050919050565b60008054906101000a900473ffffffffffffffffffffffffffffffffffffffff1681565b6000819050919050565b6105b7816105a4565b82525050565b60006020820190506105d260008301846105ae565b92915050565b600080fd5b6105e6816105a4565b81146105f157600080fd5b50565b600081359050610603816105dd565b92915050565b60006020828403121561061f5761061e6105d8565b5b600061062d848285016105f4565b91505092915050565b6000819050919050565b61064981610636565b82525050565b60006020820190506106646000830184610640565b92915050565b600073ffffffffffffffffffffffffffffffffffffffff82169050919050565b60006106958261066a565b9050919050565b6106a58161068a565b82525050565b60006020820190506106c0600083018461069c565b9291505056fea26469706673582212206dad4b5ab5de14071e1d1dbe795f0b0bf7a4c70461b0387eb8beb1ae85fe069064736f6c63430008090033",
  "linkReferences": {},
  "deployedLinkReferences": {}
}