{
  "_format": "hh-sol-artifact-1",
  "contractName": "ERC20Interop",
  "sourceName": "contracts/ERC20Interop.sol",
  "abi": [
    {
      "inputs": [
        {
          "internalType": "address",
          "name": "zrc2_address",
          "type": "address"
        }
      ],
      "stateMutability": "nonpayable",
      "type": "constructor"
    },
    {
      "inputs": [
        {
          "internalType": "address",
          "name": "tokenOwner",
          "type": "address"
        },
        {
          "internalType": "address",
          "name": "spender",
          "type": "address"
        }
      ],
      "name": "allowanceERC20",
      "outputs": [
        {
          "internalType": "uint128",
          "name": "",
          "type": "uint128"
        }
      ],
      "stateMutability": "view",
      "type": "function"
    },
    {
      "inputs": [
        {
          "internalType": "address",
          "name": "tokenOwner",
          "type": "address"
        },
        {
          "internalType": "address",
          "name": "spender",
          "type": "address"
        }
      ],
      "name": "allowanceZRC2",
      "outputs": [
        {
          "internalType": "uint128",
          "name": "",
          "type": "uint128"
        }
      ],
      "stateMutability": "view",
      "type": "function"
    },
    {
      "inputs": [
        {
          "internalType": "address",
          "name": "spender",
          "type": "address"
        },
        {
          "internalType": "uint128",
          "name": "tokens",
          "type": "uint128"
        }
      ],
      "name": "approveERC20",
      "outputs": [
        {
          "internalType": "bool",
          "name": "",
          "type": "bool"
        }
      ],
      "stateMutability": "nonpayable",
      "type": "function"
    },
    {
      "inputs": [
        {
          "internalType": "address",
          "name": "spender",
          "type": "address"
        },
        {
          "internalType": "uint128",
          "name": "new_allowance",
          "type": "uint128"
        }
      ],
      "name": "approveZRC2",
      "outputs": [
        {
          "internalType": "bool",
          "name": "",
          "type": "bool"
        }
      ],
      "stateMutability": "nonpayable",
      "type": "function"
    },
    {
      "inputs": [
        {
          "internalType": "address",
          "name": "tokenOwner",
          "type": "address"
        }
      ],
      "name": "balanceOfERC20",
      "outputs": [
        {
          "internalType": "uint128",
          "name": "",
          "type": "uint128"
        }
      ],
      "stateMutability": "view",
      "type": "function"
    },
    {
      "inputs": [
        {
          "internalType": "address",
          "name": "tokenOwner",
          "type": "address"
        }
      ],
      "name": "balanceOfZRC2",
      "outputs": [
        {
          "internalType": "uint128",
          "name": "",
          "type": "uint128"
        }
      ],
      "stateMutability": "view",
      "type": "function"
    },
    {
      "inputs": [
        {
          "internalType": "address",
          "name": "to",
          "type": "address"
        },
        {
          "internalType": "uint128",
          "name": "tokens",
          "type": "uint128"
        }
      ],
      "name": "burnZRC2",
      "outputs": [
        {
          "internalType": "bool",
          "name": "",
          "type": "bool"
        }
      ],
      "stateMutability": "nonpayable",
      "type": "function"
    },
    {
      "inputs": [
        {
          "internalType": "address",
          "name": "to",
          "type": "address"
        },
        {
          "internalType": "uint128",
          "name": "tokens",
          "type": "uint128"
        }
      ],
      "name": "mintZRC2",
      "outputs": [
        {
          "internalType": "bool",
          "name": "",
          "type": "bool"
        }
      ],
      "stateMutability": "nonpayable",
      "type": "function"
    },
    {
      "inputs": [
        {
          "internalType": "uint128",
          "name": "a",
          "type": "uint128"
        },
        {
          "internalType": "uint128",
          "name": "b",
          "type": "uint128"
        }
      ],
      "name": "safeAdd",
      "outputs": [
        {
          "internalType": "uint128",
          "name": "c",
          "type": "uint128"
        }
      ],
      "stateMutability": "pure",
      "type": "function"
    },
    {
      "inputs": [
        {
          "internalType": "uint128",
          "name": "a",
          "type": "uint128"
        },
        {
          "internalType": "uint128",
          "name": "b",
          "type": "uint128"
        }
      ],
      "name": "safeDiv",
      "outputs": [
        {
          "internalType": "uint128",
          "name": "c",
          "type": "uint128"
        }
      ],
      "stateMutability": "pure",
      "type": "function"
    },
    {
      "inputs": [
        {
          "internalType": "uint128",
          "name": "a",
          "type": "uint128"
        },
        {
          "internalType": "uint128",
          "name": "b",
          "type": "uint128"
        }
      ],
      "name": "safeMul",
      "outputs": [
        {
          "internalType": "uint128",
          "name": "c",
          "type": "uint128"
        }
      ],
      "stateMutability": "pure",
      "type": "function"
    },
    {
      "inputs": [
        {
          "internalType": "uint128",
          "name": "a",
          "type": "uint128"
        },
        {
          "internalType": "uint128",
          "name": "b",
          "type": "uint128"
        }
      ],
      "name": "safeSub",
      "outputs": [
        {
          "internalType": "uint128",
          "name": "c",
          "type": "uint128"
        }
      ],
      "stateMutability": "pure",
      "type": "function"
    },
    {
      "inputs": [],
      "name": "totalSupplyERC20",
      "outputs": [
        {
          "internalType": "uint128",
          "name": "",
          "type": "uint128"
        }
      ],
      "stateMutability": "view",
      "type": "function"
    },
    {
      "inputs": [],
      "name": "totalSupplyZRC2",
      "outputs": [
        {
          "internalType": "uint128",
          "name": "",
          "type": "uint128"
        }
      ],
      "stateMutability": "view",
      "type": "function"
    },
    {
      "inputs": [
        {
          "internalType": "address",
          "name": "to",
          "type": "address"
        },
        {
          "internalType": "uint128",
          "name": "tokens",
          "type": "uint128"
        }
      ],
      "name": "transferERC20",
      "outputs": [
        {
          "internalType": "bool",
          "name": "",
          "type": "bool"
        }
      ],
      "stateMutability": "nonpayable",
      "type": "function"
    },
    {
      "inputs": [
        {
          "internalType": "address",
          "name": "to",
          "type": "address"
        },
        {
          "internalType": "uint128",
          "name": "tokens",
          "type": "uint128"
        }
      ],
      "name": "transferErc20ToZrc2",
      "outputs": [
        {
          "internalType": "bool",
          "name": "",
          "type": "bool"
        }
      ],
      "stateMutability": "nonpayable",
      "type": "function"
    },
    {
      "inputs": [
        {
          "internalType": "address",
          "name": "from",
          "type": "address"
        },
        {
          "internalType": "address",
          "name": "to",
          "type": "address"
        },
        {
          "internalType": "uint128",
          "name": "tokens",
          "type": "uint128"
        }
      ],
      "name": "transferFromERC20",
      "outputs": [
        {
          "internalType": "bool",
          "name": "",
          "type": "bool"
        }
      ],
      "stateMutability": "nonpayable",
      "type": "function"
    },
    {
      "inputs": [
        {
          "internalType": "address",
          "name": "from",
          "type": "address"
        },
        {
          "internalType": "address",
          "name": "to",
          "type": "address"
        },
        {
          "internalType": "uint128",
          "name": "tokens",
          "type": "uint128"
        }
      ],
      "name": "transferFromZRC2",
      "outputs": [
        {
          "internalType": "bool",
          "name": "",
          "type": "bool"
        }
      ],
      "stateMutability": "nonpayable",
      "type": "function"
    },
    {
      "inputs": [
        {
          "internalType": "address",
          "name": "to",
          "type": "address"
        },
        {
          "internalType": "uint128",
          "name": "tokens",
          "type": "uint128"
        }
      ],
      "name": "transferZRC2",
      "outputs": [
        {
          "internalType": "bool",
          "name": "",
          "type": "bool"
        }
      ],
      "stateMutability": "nonpayable",
      "type": "function"
    },
    {
      "inputs": [
        {
          "internalType": "address",
          "name": "to",
          "type": "address"
        },
        {
          "internalType": "uint128",
          "name": "tokens",
          "type": "uint128"
        }
      ],
      "name": "transferZrc2ToErc20",
      "outputs": [
        {
          "internalType": "bool",
          "name": "",
          "type": "bool"
        }
      ],
      "stateMutability": "nonpayable",
      "type": "function"
    }
  ],
  "bytecode": "0x60806040523480156200001157600080fd5b506040516200210a3803806200210a83398181016040528101906200003791906200012a565b33600360006101000a81548173ffffffffffffffffffffffffffffffffffffffff021916908373ffffffffffffffffffffffffffffffffffffffff16021790555080600460006101000a81548173ffffffffffffffffffffffffffffffffffffffff021916908373ffffffffffffffffffffffffffffffffffffffff160217905550506200015c565b600080fd5b600073ffffffffffffffffffffffffffffffffffffffff82169050919050565b6000620000f282620000c5565b9050919050565b6200010481620000e5565b81146200011057600080fd5b50565b6000815190506200012481620000f9565b92915050565b600060208284031215620001435762000142620000c0565b5b6000620001538482850162000113565b91505092915050565b611f9e806200016c6000396000f3fe608060405234801561001057600080fd5b506004361061012c5760003560e01c80635a03ae6b116100ad578063c4b7d15011610071578063c4b7d150146103dd578063cdc0cf1b1461040d578063d93db24f1461043d578063f2282fa61461046d578063fa03436b1461049d5761012c565b80635a03ae6b146102ed5780636ec6bfec1461031d578063a1ed6f231461034d578063a7e7ea031461037d578063b84010dd146103ad5761012c565b80632fe7c5fb116100f45780632fe7c5fb1461020f5780633080a9751461023f5780633d7815501461026f578063410566c31461028d5780634ba465eb146102bd5761012c565b8063065a51ce1461013157806315c9951b146101615780631d32a07e14610191578063221028b3146101af5780632d68a03c146101df575b600080fd5b61014b6004803603810190610146919061195b565b6104cd565b60405161015891906119b6565b60405180910390f35b61017b600480360381019061017691906119d1565b6106e1565b6040516101889190611a20565b60405180910390f35b610199610728565b6040516101a69190611a20565b60405180910390f35b6101c960048036038101906101c49190611a3b565b61074e565b6040516101d691906119b6565b60405180910390f35b6101f960048036038101906101f491906119d1565b61079c565b6040516102069190611a20565b60405180910390f35b6102296004803603810190610224919061195b565b6107e3565b60405161023691906119b6565b60405180910390f35b61025960048036038101906102549190611a8e565b6108e4565b6040516102669190611a20565b60405180910390f35b61027761092e565b6040516102849190611a20565b60405180910390f35b6102a760048036038101906102a29190611ace565b610973565b6040516102b49190611a20565b60405180910390f35b6102d760048036038101906102d2919061195b565b6109bb565b6040516102e491906119b6565b60405180910390f35b6103076004803603810190610302919061195b565b610a97565b60405161031491906119b6565b60405180910390f35b61033760048036038101906103329190611a3b565b610b56565b60405161034491906119b6565b60405180910390f35b610367600480360381019061036291906119d1565b610e67565b6040516103749190611a20565b60405180910390f35b6103976004803603810190610392919061195b565b610e9b565b6040516103a491906119b6565b60405180910390f35b6103c760048036038101906103c2919061195b565b610ee7565b6040516103d491906119b6565b60405180910390f35b6103f760048036038101906103f291906119d1565b610fc3565b6040516104049190611a20565b60405180910390f35b6104276004803603810190610422919061195b565b611031565b60405161043491906119b6565b60405180910390f35b61045760048036038101906104529190611ace565b611245565b6040516104649190611a20565b60405180910390f35b61048760048036038101906104829190611a8e565b6112a9565b6040516104949190611a20565b60405180910390f35b6104b760048036038101906104b2919061195b565b61134c565b6040516104c491906119b6565b60405180910390f35b6000600360009054906101000a900473ffffffffffffffffffffffffffffffffffffffff1673ffffffffffffffffffffffffffffffffffffffff163373ffffffffffffffffffffffffffffffffffffffff161461055f576040517f08c379a000000000000000000000000000000000000000000000000000000000815260040161055690611b58565b60405180910390fd5b6105c36000808573ffffffffffffffffffffffffffffffffffffffff1673ffffffffffffffffffffffffffffffffffffffff16815260200190815260200160002060009054906101000a90046fffffffffffffffffffffffffffffffff168361079c565b6000808573ffffffffffffffffffffffffffffffffffffffff1673ffffffffffffffffffffffffffffffffffffffff16815260200190815260200160002060006101000a8154816fffffffffffffffffffffffffffffffff02191690836fffffffffffffffffffffffffffffffff16021790555061065f600260009054906101000a90046fffffffffffffffffffffffffffffffff168361079c565b600260006101000a8154816fffffffffffffffffffffffffffffffff02191690836fffffffffffffffffffffffffffffffff1602179055506106d76040518060400160405280600481526020017f4d696e74000000000000000000000000000000000000000000000000000000008152508484611508565b6001905092915050565b600081836106ef9190611ba7565b9050826fffffffffffffffffffffffffffffffff16816fffffffffffffffffffffffffffffffff16101561072257600080fd5b92915050565b6000600260009054906101000a90046fffffffffffffffffffffffffffffffff16905090565b60006107916040518060400160405280600c81526020017f5472616e7366657246726f6d0000000000000000000000000000000000000000815250858585611586565b600190509392505050565b6000826fffffffffffffffffffffffffffffffff16826fffffffffffffffffffffffffffffffff1611156107cf57600080fd5b81836107db9190611bed565b905092915050565b6000806108266040518060400160405280600a81526020017f616c6c6f77616e636573000000000000000000000000000000000000000000008152503386611607565b9050826fffffffffffffffffffffffffffffffff16816fffffffffffffffffffffffffffffffff1610610898576108936040518060400160405280601181526020017f4465637265617365416c6c6f77616e63650000000000000000000000000000008152508585611508565b6108d9565b6108d86040518060400160405280601181526020017f496e637265617365416c6c6f77616e63650000000000000000000000000000008152508585611508565b5b600191505092915050565b60006109266040518060400160405280600a81526020017f616c6c6f77616e636573000000000000000000000000000000000000000000008152508484611607565b905092915050565b600061096e6040518060400160405280600c81526020017f746f74616c5f737570706c7900000000000000000000000000000000000000008152506116ed565b905090565b60006109b46040518060400160405280600881526020017f62616c616e636573000000000000000000000000000000000000000000000000815250836117cd565b9050919050565b6000600360009054906101000a900473ffffffffffffffffffffffffffffffffffffffff1673ffffffffffffffffffffffffffffffffffffffff163373ffffffffffffffffffffffffffffffffffffffff1614610a4d576040517f08c379a0000000000000000000000000000000000000000000000000000000008152600401610a4490611b58565b60405180910390fd5b610a8d6040518060400160405280600481526020017f4275726e000000000000000000000000000000000000000000000000000000008152508484611508565b6001905092915050565b600081600160003373ffffffffffffffffffffffffffffffffffffffff1673ffffffffffffffffffffffffffffffffffffffff16815260200190815260200160002060008573ffffffffffffffffffffffffffffffffffffffff1673ffffffffffffffffffffffffffffffffffffffff16815260200190815260200160002060006101000a8154816fffffffffffffffffffffffffffffffff02191690836fffffffffffffffffffffffffffffffff1602179055506001905092915050565b6000610bbc6000808673ffffffffffffffffffffffffffffffffffffffff1673ffffffffffffffffffffffffffffffffffffffff16815260200190815260200160002060009054906101000a90046fffffffffffffffffffffffffffffffff168361079c565b6000808673ffffffffffffffffffffffffffffffffffffffff1673ffffffffffffffffffffffffffffffffffffffff16815260200190815260200160002060006101000a8154816fffffffffffffffffffffffffffffffff02191690836fffffffffffffffffffffffffffffffff160217905550610cd2600160008673ffffffffffffffffffffffffffffffffffffffff1673ffffffffffffffffffffffffffffffffffffffff16815260200190815260200160002060003373ffffffffffffffffffffffffffffffffffffffff1673ffffffffffffffffffffffffffffffffffffffff16815260200190815260200160002060009054906101000a90046fffffffffffffffffffffffffffffffff168361079c565b600160008673ffffffffffffffffffffffffffffffffffffffff1673ffffffffffffffffffffffffffffffffffffffff16815260200190815260200160002060003373ffffffffffffffffffffffffffffffffffffffff1673ffffffffffffffffffffffffffffffffffffffff16815260200190815260200160002060006101000a8154816fffffffffffffffffffffffffffffffff02191690836fffffffffffffffffffffffffffffffff160217905550610de86000808573ffffffffffffffffffffffffffffffffffffffff1673ffffffffffffffffffffffffffffffffffffffff16815260200190815260200160002060009054906101000a90046fffffffffffffffffffffffffffffffff16836106e1565b6000808573ffffffffffffffffffffffffffffffffffffffff1673ffffffffffffffffffffffffffffffffffffffff16815260200190815260200160002060006101000a8154816fffffffffffffffffffffffffffffffff02191690836fffffffffffffffffffffffffffffffff160217905550600190509392505050565b600080826fffffffffffffffffffffffffffffffff1611610e8757600080fd5b8183610e939190611c50565b905092915050565b6000610edd6040518060400160405280600881526020017f5472616e736665720000000000000000000000000000000000000000000000008152508484611508565b6001905092915050565b6000600360009054906101000a900473ffffffffffffffffffffffffffffffffffffffff1673ffffffffffffffffffffffffffffffffffffffff163373ffffffffffffffffffffffffffffffffffffffff1614610f79576040517f08c379a0000000000000000000000000000000000000000000000000000000008152600401610f7090611b58565b60405180910390fd5b610fb96040518060400160405280600481526020017f4d696e74000000000000000000000000000000000000000000000000000000008152508484611508565b6001905092915050565b60008183610fd19190611c81565b90506000836fffffffffffffffffffffffffffffffff1614806110225750816fffffffffffffffffffffffffffffffff16838261100e9190611c50565b6fffffffffffffffffffffffffffffffff16145b61102b57600080fd5b92915050565b6000600360009054906101000a900473ffffffffffffffffffffffffffffffffffffffff1673ffffffffffffffffffffffffffffffffffffffff163373ffffffffffffffffffffffffffffffffffffffff16146110c3576040517f08c379a00000000000000000000000000000000000000000000000000000000081526004016110ba90611b58565b60405180910390fd5b6111036040518060400160405280600481526020017f4275726e000000000000000000000000000000000000000000000000000000008152508484611508565b6111676000808573ffffffffffffffffffffffffffffffffffffffff1673ffffffffffffffffffffffffffffffffffffffff16815260200190815260200160002060009054906101000a90046fffffffffffffffffffffffffffffffff16836106e1565b6000808573ffffffffffffffffffffffffffffffffffffffff1673ffffffffffffffffffffffffffffffffffffffff16815260200190815260200160002060006101000a8154816fffffffffffffffffffffffffffffffff02191690836fffffffffffffffffffffffffffffffff160217905550611203600260009054906101000a90046fffffffffffffffffffffffffffffffff16836106e1565b600260006101000a8154816fffffffffffffffffffffffffffffffff02191690836fffffffffffffffffffffffffffffffff1602179055506001905092915050565b60008060008373ffffffffffffffffffffffffffffffffffffffff1673ffffffffffffffffffffffffffffffffffffffff16815260200190815260200160002060009054906101000a90046fffffffffffffffffffffffffffffffff169050919050565b6000600160008473ffffffffffffffffffffffffffffffffffffffff1673ffffffffffffffffffffffffffffffffffffffff16815260200190815260200160002060008373ffffffffffffffffffffffffffffffffffffffff1673ffffffffffffffffffffffffffffffffffffffff16815260200190815260200160002060009054906101000a90046fffffffffffffffffffffffffffffffff16905092915050565b60006113b26000803373ffffffffffffffffffffffffffffffffffffffff1673ffffffffffffffffffffffffffffffffffffffff16815260200190815260200160002060009054906101000a90046fffffffffffffffffffffffffffffffff168361079c565b6000803373ffffffffffffffffffffffffffffffffffffffff1673ffffffffffffffffffffffffffffffffffffffff16815260200190815260200160002060006101000a8154816fffffffffffffffffffffffffffffffff02191690836fffffffffffffffffffffffffffffffff16021790555061148a6000808573ffffffffffffffffffffffffffffffffffffffff1673ffffffffffffffffffffffffffffffffffffffff16815260200190815260200160002060009054906101000a90046fffffffffffffffffffffffffffffffff16836106e1565b6000808573ffffffffffffffffffffffffffffffffffffffff1673ffffffffffffffffffffffffffffffffffffffff16815260200190815260200160002060006101000a8154816fffffffffffffffffffffffffffffffff02191690836fffffffffffffffffffffffffffffffff1602179055506001905092915050565b6000600460009054906101000a900473ffffffffffffffffffffffffffffffffffffffff168460018585604051602001611546959493929190611d7b565b6040516020818303038152906040529050600081519050600080602083602086016000635a494c53615208f190508061157e57600080fd5b505050505050565b6000600460009054906101000a900473ffffffffffffffffffffffffffffffffffffffff168560018686866040516020016115c696959493929190611dd5565b6040516020818303038152906040529050600081519050600080602083602086016000635a494c53615208f19050806115fe57600080fd5b50505050505050565b600080600460009054906101000a900473ffffffffffffffffffffffffffffffffffffffff168585856040516020016116439493929190611e3d565b6040516020818303038152906040529050600081519050600080602467ffffffffffffffff81111561167857611677611e89565b5b6040519080825280601f01601f1916602001820160405280156116aa5781602001600182028036833780820191505090505b50905060208082018460208701635a494c92615208fa9150816116cc57600080fd5b808060200190518101906116e09190611ecd565b9450505050509392505050565b600080600460009054906101000a900473ffffffffffffffffffffffffffffffffffffffff1683604051602001611725929190611efa565b6040516020818303038152906040529050600081519050600080602467ffffffffffffffff81111561175a57611759611e89565b5b6040519080825280601f01601f19166020018201604052801561178c5781602001600182028036833780820191505090505b50905060208082018460208701635a494c92615208fa9150816117ae57600080fd5b808060200190518101906117c29190611ecd565b945050505050919050565b600080600460009054906101000a900473ffffffffffffffffffffffffffffffffffffffff16848460405160200161180793929190611f2a565b6040516020818303038152906040529050600081519050600080602467ffffffffffffffff81111561183c5761183b611e89565b5b6040519080825280601f01601f19166020018201604052801561186e5781602001600182028036833780820191505090505b50905060208082018460208701635a494c92615208fa91508161189057600080fd5b808060200190518101906118a49190611ecd565b94505050505092915050565b600080fd5b600073ffffffffffffffffffffffffffffffffffffffff82169050919050565b60006118e0826118b5565b9050919050565b6118f0816118d5565b81146118fb57600080fd5b50565b60008135905061190d816118e7565b92915050565b60006fffffffffffffffffffffffffffffffff82169050919050565b61193881611913565b811461194357600080fd5b50565b6000813590506119558161192f565b92915050565b60008060408385031215611972576119716118b0565b5b6000611980858286016118fe565b925050602061199185828601611946565b9150509250929050565b60008115159050919050565b6119b08161199b565b82525050565b60006020820190506119cb60008301846119a7565b92915050565b600080604083850312156119e8576119e76118b0565b5b60006119f685828601611946565b9250506020611a0785828601611946565b9150509250929050565b611a1a81611913565b82525050565b6000602082019050611a356000830184611a11565b92915050565b600080600060608486031215611a5457611a536118b0565b5b6000611a62868287016118fe565b9350506020611a73868287016118fe565b9250506040611a8486828701611946565b9150509250925092565b60008060408385031215611aa557611aa46118b0565b5b6000611ab3858286016118fe565b9250506020611ac4858286016118fe565b9150509250929050565b600060208284031215611ae457611ae36118b0565b5b6000611af2848285016118fe565b91505092915050565b600082825260208201905092915050565b7f4f6e6c7920616c6c6f77656420666f7220636f6e7472616374206f776e657200600082015250565b6000611b42601f83611afb565b9150611b4d82611b0c565b602082019050919050565b60006020820190508181036000830152611b7181611b35565b9050919050565b7f4e487b7100000000000000000000000000000000000000000000000000000000600052601160045260246000fd5b6000611bb282611913565b9150611bbd83611913565b9250826fffffffffffffffffffffffffffffffff03821115611be257611be1611b78565b5b828201905092915050565b6000611bf882611913565b9150611c0383611913565b925082821015611c1657611c15611b78565b5b828203905092915050565b7f4e487b7100000000000000000000000000000000000000000000000000000000600052601260045260246000fd5b6000611c5b82611913565b9150611c6683611913565b925082611c7657611c75611c21565b5b828204905092915050565b6000611c8c82611913565b9150611c9783611913565b9250816fffffffffffffffffffffffffffffffff0483118215151615611cc057611cbf611b78565b5b828202905092915050565b611cd4816118d5565b82525050565b600081519050919050565b60005b83811015611d03578082015181840152602081019050611ce8565b83811115611d12576000848401525b50505050565b6000601f19601f8301169050919050565b6000611d3482611cda565b611d3e8185611afb565b9350611d4e818560208601611ce5565b611d5781611d18565b840191505092915050565b6000819050919050565b611d7581611d62565b82525050565b600060a082019050611d906000830188611ccb565b8181036020830152611da28187611d29565b9050611db16040830186611d6c565b611dbe6060830185611ccb565b611dcb6080830184611a11565b9695505050505050565b600060c082019050611dea6000830189611ccb565b8181036020830152611dfc8188611d29565b9050611e0b6040830187611d6c565b611e186060830186611ccb565b611e256080830185611ccb565b611e3260a0830184611a11565b979650505050505050565b6000608082019050611e526000830187611ccb565b8181036020830152611e648186611d29565b9050611e736040830185611ccb565b611e806060830184611ccb565b95945050505050565b7f4e487b7100000000000000000000000000000000000000000000000000000000600052604160045260246000fd5b600081519050611ec78161192f565b92915050565b600060208284031215611ee357611ee26118b0565b5b6000611ef184828501611eb8565b91505092915050565b6000604082019050611f0f6000830185611ccb565b8181036020830152611f218184611d29565b90509392505050565b6000606082019050611f3f6000830186611ccb565b8181036020830152611f518185611d29565b9050611f606040830184611ccb565b94935050505056fea26469706673582212208e021339f47a868ebb4befd3fba12ccba53b4468416f7bc92af52ae58aa2728264736f6c63430008090033",
  "linkReferences": {},
  "deployedLinkReferences": {}
}