{
  "_format": "hh-sol-artifact-1",
  "contractName": "SafeMath",
  "sourceName": "contracts/ERC20Interop.sol",
  "abi": [
    {
      "inputs": [
        {
          "internalType": "uint128",
          "name": "a",
          "type": "uint128"
        },
        {
          "internalType": "uint128",
          "name": "b",
          "type": "uint128"
        }
      ],
      "name": "safeAdd",
      "outputs": [
        {
          "internalType": "uint128",
          "name": "c",
          "type": "uint128"
        }
      ],
      "stateMutability": "pure",
      "type": "function"
    },
    {
      "inputs": [
        {
          "internalType": "uint128",
          "name": "a",
          "type": "uint128"
        },
        {
          "internalType": "uint128",
          "name": "b",
          "type": "uint128"
        }
      ],
      "name": "safeDiv",
      "outputs": [
        {
          "internalType": "uint128",
          "name": "c",
          "type": "uint128"
        }
      ],
      "stateMutability": "pure",
      "type": "function"
    },
    {
      "inputs": [
        {
          "internalType": "uint128",
          "name": "a",
          "type": "uint128"
        },
        {
          "internalType": "uint128",
          "name": "b",
          "type": "uint128"
        }
      ],
      "name": "safeMul",
      "outputs": [
        {
          "internalType": "uint128",
          "name": "c",
          "type": "uint128"
        }
      ],
      "stateMutability": "pure",
      "type": "function"
    },
    {
      "inputs": [
        {
          "internalType": "uint128",
          "name": "a",
          "type": "uint128"
        },
        {
          "internalType": "uint128",
          "name": "b",
          "type": "uint128"
        }
      ],
      "name": "safeSub",
      "outputs": [
        {
          "internalType": "uint128",
          "name": "c",
          "type": "uint128"
        }
      ],
      "stateMutability": "pure",
      "type": "function"
    }
  ],
  "bytecode": "0x608060405234801561001057600080fd5b50610481806100206000396000f3fe608060405234801561001057600080fd5b506004361061004c5760003560e01c806315c9951b146100515780632d68a03c14610081578063a1ed6f23146100b1578063c4b7d150146100e1575b600080fd5b61006b6004803603810190610066919061028e565b610111565b60405161007891906102dd565b60405180910390f35b61009b6004803603810190610096919061028e565b610158565b6040516100a891906102dd565b60405180910390f35b6100cb60048036038101906100c6919061028e565b61019f565b6040516100d891906102dd565b60405180910390f35b6100fb60048036038101906100f6919061028e565b6101d3565b60405161010891906102dd565b60405180910390f35b6000818361011f9190610327565b9050826fffffffffffffffffffffffffffffffff16816fffffffffffffffffffffffffffffffff16101561015257600080fd5b92915050565b6000826fffffffffffffffffffffffffffffffff16826fffffffffffffffffffffffffffffffff16111561018b57600080fd5b8183610197919061036d565b905092915050565b600080826fffffffffffffffffffffffffffffffff16116101bf57600080fd5b81836101cb91906103d0565b905092915050565b600081836101e19190610401565b90506000836fffffffffffffffffffffffffffffffff1614806102325750816fffffffffffffffffffffffffffffffff16838261021e91906103d0565b6fffffffffffffffffffffffffffffffff16145b61023b57600080fd5b92915050565b600080fd5b60006fffffffffffffffffffffffffffffffff82169050919050565b61026b81610246565b811461027657600080fd5b50565b60008135905061028881610262565b92915050565b600080604083850312156102a5576102a4610241565b5b60006102b385828601610279565b92505060206102c485828601610279565b9150509250929050565b6102d781610246565b82525050565b60006020820190506102f260008301846102ce565b92915050565b7f4e487b7100000000000000000000000000000000000000000000000000000000600052601160045260246000fd5b600061033282610246565b915061033d83610246565b9250826fffffffffffffffffffffffffffffffff03821115610362576103616102f8565b5b828201905092915050565b600061037882610246565b915061038383610246565b925082821015610396576103956102f8565b5b828203905092915050565b7f4e487b7100000000000000000000000000000000000000000000000000000000600052601260045260246000fd5b60006103db82610246565b91506103e683610246565b9250826103f6576103f56103a1565b5b828204905092915050565b600061040c82610246565b915061041783610246565b9250816fffffffffffffffffffffffffffffffff04831182151516156104405761043f6102f8565b5b82820290509291505056fea2646970667358221220929d427859e59a86d9dbeaffa27d1cbdd9b78cb047103247356ccdf825d0929164736f6c63430008090033",
  "linkReferences": {},
  "deployedLinkReferences": {}
}