{
  "_format": "hh-sol-artifact-1",
  "contractName": "RevertInChain",
  "sourceName": "contracts/Revert.sol",
  "abi": [
    {
      "inputs": [],
      "name": "okCall",
      "outputs": [],
      "stateMutability": "nonpayable",
      "type": "function"
    },
    {
      "inputs": [],
      "name": "revertCall",
      "outputs": [],
      "stateMutability": "nonpayable",
      "type": "function"
    }
  ],
  "bytecode": "0x6080604052348015600f57600080fd5b5060a38061001e6000396000f3fe6080604052348015600f57600080fd5b506004361060325760003560e01c80638c4086c3146037578063f38fb65b14603f575b600080fd5b603d6047565b005b6045605a565b005b600115156001151514605857600080fd5b565b600015156001151514606b57600080fd5b56fea264697066735822122081c86b78f2157b5a1ef43c47477b8063c6e9a53e5278d149cf16874bb6bd0cfb64736f6c63430008090033",
  "linkReferences": {},
  "deployedLinkReferences": {}
}