{
  "_format": "hh-sol-artifact-1",
  "contractName": "Revert",
  "sourceName": "contracts/Revert.sol",
  "abi": [
    {
      "inputs": [],
      "stateMutability": "nonpayable",
      "type": "constructor"
    },
    {
      "inputs": [
        {
          "internalType": "uint256",
          "name": "value",
          "type": "uint256"
        },
        {
          "internalType": "address",
          "name": "sender",
          "type": "address"
        }
      ],
      "name": "FakeError",
      "type": "error"
    },
    {
      "inputs": [],
      "name": "callChainOk",
      "outputs": [],
      "stateMutability": "nonpayable",
      "type": "function"
    },
    {
      "inputs": [],
      "name": "callChainReverted",
      "outputs": [],
      "stateMutability": "nonpayable",
      "type": "function"
    },
    {
      "inputs": [],
      "name": "outOfGas",
      "outputs": [],
      "stateMutability": "nonpayable",
      "type": "function"
    },
    {
      "inputs": [
        {
          "internalType": "bool",
          "name": "success",
          "type": "bool"
        },
        {
          "internalType": "string",
          "name": "revertMessage",
          "type": "string"
        }
      ],
      "name": "requireCustom",
      "outputs": [],
      "stateMutability": "payable",
      "type": "function"
    },
    {
      "inputs": [],
      "name": "revertCall",
      "outputs": [],
      "stateMutability": "payable",
      "type": "function"
    },
    {
      "inputs": [],
      "name": "revertCallWithCustomError",
      "outputs": [],
      "stateMutability": "payable",
      "type": "function"
    },
    {
      "inputs": [
        {
          "internalType": "string",
          "name": "revertMessage",
          "type": "string"
        }
      ],
      "name": "revertCallWithMessage",
      "outputs": [],
      "stateMutability": "payable",
      "type": "function"
    },
    {
      "inputs": [],
      "name": "value",
      "outputs": [
        {
          "internalType": "int256",
          "name": "",
          "type": "int256"
        }
      ],
      "stateMutability": "pure",
      "type": "function"
    }
  ],
  "bytecode": "0x608060405234801561001057600080fd5b50336000806101000a81548173ffffffffffffffffffffffffffffffffffffffff021916908373ffffffffffffffffffffffffffffffffffffffff160217905550600060405161005f906100c5565b604051809103906000f08015801561007b573d6000803e3d6000fd5b50905080600260006101000a81548173ffffffffffffffffffffffffffffffffffffffff021916908373ffffffffffffffffffffffffffffffffffffffff160217905550506100d1565b60c1806109f783390190565b610917806100e06000396000f3fe60806040526004361061007b5760003560e01c8063721d31bb1161004e578063721d31bb146100f0578063d91a3c6e1461010c578063d9ab3d2914610116578063f38fb65b146101325761007b565b806331fe52e8146100805780633fa4f24514610097578063520da2d3146100c257806358e76e14146100d9575b600080fd5b34801561008c57600080fd5b5061009561013c565b005b3480156100a357600080fd5b506100ac610179565b6040516100b9919061048c565b60405180910390f35b3480156100ce57600080fd5b506100d7610183565b005b3480156100e557600080fd5b506100ee610293565b005b61010a60048036038101906101059190610639565b6103a3565b005b6101146103f2565b005b610130600480360381019061012b9190610695565b610431565b005b61013a61046e565b005b60005b60018190806001815401808255809150506001900390600052602060002001600090919091909150558061017290610717565b905061013f565b600061ffff905090565b600080600260009054906101000a900473ffffffffffffffffffffffffffffffffffffffff1673ffffffffffffffffffffffffffffffffffffffff16638c4086c360e01b604051602401604051602081830303815290604052907bffffffffffffffffffffffffffffffffffffffffffffffffffffffff19166020820180517bffffffffffffffffffffffffffffffffffffffffffffffffffffffff838183161783525050505060405161023791906107da565b6000604051808303816000865af19150503d8060008114610274576040519150601f19603f3d011682016040523d82523d6000602084013e610279565b606091505b5091509150600115158215151461028f57600080fd5b5050565b600080600260009054906101000a900473ffffffffffffffffffffffffffffffffffffffff1673ffffffffffffffffffffffffffffffffffffffff1663f38fb65b60e01b604051602401604051602081830303815290604052907bffffffffffffffffffffffffffffffffffffffffffffffffffffffff19166020820180517bffffffffffffffffffffffffffffffffffffffffffffffffffffffff838183161783525050505060405161034791906107da565b6000604051808303816000865af19150503d8060008114610384576040519150601f19603f3d011682016040523d82523d6000602084013e610389565b606091505b5091509150600015158215151461039f57600080fd5b5050565b600115158215151481906103ed576040517f08c379a00000000000000000000000000000000000000000000000000000000081526004016103e49190610846565b60405180910390fd5b505050565b34336040517fdc3fcb170000000000000000000000000000000000000000000000000000000081526004016104289291906108b8565b60405180910390fd5b806040517f08c379a00000000000000000000000000000000000000000000000000000000081526004016104659190610846565b60405180910390fd5b600080fd5b6000819050919050565b61048681610473565b82525050565b60006020820190506104a1600083018461047d565b92915050565b6000604051905090565b600080fd5b600080fd5b60008115159050919050565b6104d0816104bb565b81146104db57600080fd5b50565b6000813590506104ed816104c7565b92915050565b600080fd5b600080fd5b6000601f19601f8301169050919050565b7f4e487b7100000000000000000000000000000000000000000000000000000000600052604160045260246000fd5b610546826104fd565b810181811067ffffffffffffffff821117156105655761056461050e565b5b80604052505050565b60006105786104a7565b9050610584828261053d565b919050565b600067ffffffffffffffff8211156105a4576105a361050e565b5b6105ad826104fd565b9050602081019050919050565b82818337600083830152505050565b60006105dc6105d784610589565b61056e565b9050828152602081018484840111156105f8576105f76104f8565b5b6106038482856105ba565b509392505050565b600082601f8301126106205761061f6104f3565b5b81356106308482602086016105c9565b91505092915050565b600080604083850312156106505761064f6104b1565b5b600061065e858286016104de565b925050602083013567ffffffffffffffff81111561067f5761067e6104b6565b5b61068b8582860161060b565b9150509250929050565b6000602082840312156106ab576106aa6104b1565b5b600082013567ffffffffffffffff8111156106c9576106c86104b6565b5b6106d58482850161060b565b91505092915050565b7f4e487b7100000000000000000000000000000000000000000000000000000000600052601160045260246000fd5b6000819050919050565b60006107228261070d565b91507fffffffffffffffffffffffffffffffffffffffffffffffffffffffffffffffff821415610755576107546106de565b5b600182019050919050565b600081519050919050565b600081905092915050565b60005b83811015610794578082015181840152602081019050610779565b838111156107a3576000848401525b50505050565b60006107b482610760565b6107be818561076b565b93506107ce818560208601610776565b80840191505092915050565b60006107e682846107a9565b915081905092915050565b600081519050919050565b600082825260208201905092915050565b6000610818826107f1565b61082281856107fc565b9350610832818560208601610776565b61083b816104fd565b840191505092915050565b60006020820190508181036000830152610860818461080d565b905092915050565b6108718161070d565b82525050565b600073ffffffffffffffffffffffffffffffffffffffff82169050919050565b60006108a282610877565b9050919050565b6108b281610897565b82525050565b60006040820190506108cd6000830185610868565b6108da60208301846108a9565b939250505056fea26469706673582212201e4018141894cf66c5f46ef7950ea46e62e7c9c116aa33d7565ee47cb0c7c9d764736f6c634300080900336080604052348015600f57600080fd5b5060a38061001e6000396000f3fe6080604052348015600f57600080fd5b506004361060325760003560e01c80638c4086c3146037578063f38fb65b14603f575b600080fd5b603d6047565b005b6045605a565b005b600115156001151514605857600080fd5b565b600015156001151514606b57600080fd5b56fea264697066735822122081c86b78f2157b5a1ef43c47477b8063c6e9a53e5278d149cf16874bb6bd0cfb64736f6c63430008090033",
  "linkReferences": {},
  "deployedLinkReferences": {}
}