{
  "_format": "hh-sol-artifact-1",
  "contractName": "ScillaCallComplex",
  "sourceName": "contracts/rfc75/ScillaCallComplex.sol",
  "abi": [
    {
      "inputs": [
        {
          "internalType": "address",
          "name": "contract_address",
          "type": "address"
        },
        {
          "internalType": "string",
          "name": "tran_name",
          "type": "string"
        },
        {
          "internalType": "int256",
          "name": "keep_origin",
          "type": "int256"
        },
        {
          "internalType": "address",
          "name": "recipient",
          "type": "address"
        },
        {
          "internalType": "uint128",
          "name": "value",
          "type": "uint128"
        }
      ],
      "name": "SetAndGet",
      "outputs": [],
      "stateMutability": "nonpayable",
      "type": "function"
    },
    {
      "inputs": [
        {
          "internalType": "address",
          "name": "scilla_contract",
          "type": "address"
        },
        {
          "internalType": "string",
          "name": "field_name",
          "type": "string"
        },
        {
          "internalType": "address",
          "name": "idx1",
          "type": "address"
        },
        {
          "internalType": "address",
          "name": "idx2",
          "type": "address"
        }
      ],
      "name": "readNestedMap",
      "outputs": [
        {
          "internalType": "uint128",
          "name": "funds",
          "type": "uint128"
        }
      ],
      "stateMutability": "view",
      "type": "function"
    },
    {
      "inputs": [
        {
          "internalType": "address",
          "name": "scilla_contract",
          "type": "address"
        },
        {
          "internalType": "string",
          "name": "field_name",
          "type": "string"
        },
        {
          "internalType": "address",
          "name": "idx1",
          "type": "address"
        }
      ],
      "name": "readSimpleMap",
      "outputs": [
        {
          "internalType": "uint128",
          "name": "funds",
          "type": "uint128"
        }
      ],
      "stateMutability": "view",
      "type": "function"
    },
    {
      "inputs": [
        {
          "internalType": "address",
          "name": "scilla_contract",
          "type": "address"
        },
        {
          "internalType": "string",
          "name": "field_name",
          "type": "string"
        }
      ],
      "name": "readUint",
      "outputs": [
        {
          "internalType": "uint128",
          "name": "",
          "type": "uint128"
        }
      ],
      "stateMutability": "view",
      "type": "function"
    }
  ],
  "bytecode": "0x608060405234801561001057600080fd5b50610b7c806100206000396000f3fe608060405234801561001057600080fd5b506004361061004c5760003560e01c80636ebcd2f51461005157806371137b7f146100815780637b0224071461009d5780639089f5bd146100cd575b600080fd5b61006b600480360381019061006691906106bd565b6100fd565b6040516100789190610744565b60405180910390f35b61009b600480360381019061009691906107c1565b6101c2565b005b6100b760048036038101906100b29190610858565b61037e565b6040516100c49190610744565b60405180910390f35b6100e760048036038101906100e291906108c7565b610440565b6040516100f49190610744565b60405180910390f35b60008083836040516020016101139291906109e1565b6040516020818303038152906040529050600081519050600080602467ffffffffffffffff81111561014857610147610592565b5b6040519080825280601f01601f19166020018201604052801561017a5781602001600182028036833780820191505090505b50905060208082018460208701635a494c92615208fa91508161019c57600080fd5b6000818060200190518101906101b29190610a26565b9050809550505050505092915050565b600085858585856040516020016101dd959493929190610a62565b6040516020818303038152906040529050600081519050600080602083602086016000635a494c53615208f190508061021557600080fd5b6000610256896040518060400160405280600581526020017f76616c75650000000000000000000000000000000000000000000000000000008152506100fd565b9050846fffffffffffffffffffffffffffffffff16816fffffffffffffffffffffffffffffffff161461028857600080fd5b60006102ca8a6040518060400160405280600981526020017f73696d706c654d617000000000000000000000000000000000000000000000008152508961037e565b6fffffffffffffffffffffffffffffffff169050856fffffffffffffffffffffffffffffffff1681146102fc57600080fd5b600061033f8b6040518060400160405280600981526020017f6e65737465644d617000000000000000000000000000000000000000000000008152508a8b610440565b6fffffffffffffffffffffffffffffffff169050866fffffffffffffffffffffffffffffffff16811461037157600080fd5b5050505050505050505050565b60008084848460405160200161039693929190610abc565b6040516020818303038152906040529050600081519050600080602467ffffffffffffffff8111156103cb576103ca610592565b5b6040519080825280601f01601f1916602001820160405280156103fd5781602001600182028036833780820191505090505b50905060208082018460208701635a494c92615208fa91508161041f57600080fd5b808060200190518101906104339190610a26565b9450505050509392505050565b6000808585858560405160200161045a9493929190610afa565b6040516020818303038152906040529050600081519050600080602467ffffffffffffffff81111561048f5761048e610592565b5b6040519080825280601f01601f1916602001820160405280156104c15781602001600182028036833780820191505090505b50905060208082018460208701635a494c92615208fa9150816104e357600080fd5b808060200190518101906104f79190610a26565b945050505050949350505050565b6000604051905090565b600080fd5b600080fd5b600073ffffffffffffffffffffffffffffffffffffffff82169050919050565b600061054482610519565b9050919050565b61055481610539565b811461055f57600080fd5b50565b6000813590506105718161054b565b92915050565b600080fd5b600080fd5b6000601f19601f8301169050919050565b7f4e487b7100000000000000000000000000000000000000000000000000000000600052604160045260246000fd5b6105ca82610581565b810181811067ffffffffffffffff821117156105e9576105e8610592565b5b80604052505050565b60006105fc610505565b905061060882826105c1565b919050565b600067ffffffffffffffff82111561062857610627610592565b5b61063182610581565b9050602081019050919050565b82818337600083830152505050565b600061066061065b8461060d565b6105f2565b90508281526020810184848401111561067c5761067b61057c565b5b61068784828561063e565b509392505050565b600082601f8301126106a4576106a3610577565b5b81356106b484826020860161064d565b91505092915050565b600080604083850312156106d4576106d361050f565b5b60006106e285828601610562565b925050602083013567ffffffffffffffff81111561070357610702610514565b5b61070f8582860161068f565b9150509250929050565b60006fffffffffffffffffffffffffffffffff82169050919050565b61073e81610719565b82525050565b60006020820190506107596000830184610735565b92915050565b6000819050919050565b6107728161075f565b811461077d57600080fd5b50565b60008135905061078f81610769565b92915050565b61079e81610719565b81146107a957600080fd5b50565b6000813590506107bb81610795565b92915050565b600080600080600060a086880312156107dd576107dc61050f565b5b60006107eb88828901610562565b955050602086013567ffffffffffffffff81111561080c5761080b610514565b5b6108188882890161068f565b945050604061082988828901610780565b935050606061083a88828901610562565b925050608061084b888289016107ac565b9150509295509295909350565b6000806000606084860312156108715761087061050f565b5b600061087f86828701610562565b935050602084013567ffffffffffffffff8111156108a05761089f610514565b5b6108ac8682870161068f565b92505060406108bd86828701610562565b9150509250925092565b600080600080608085870312156108e1576108e061050f565b5b60006108ef87828801610562565b945050602085013567ffffffffffffffff8111156109105761090f610514565b5b61091c8782880161068f565b935050604061092d87828801610562565b925050606061093e87828801610562565b91505092959194509250565b61095381610539565b82525050565b600081519050919050565b600082825260208201905092915050565b60005b83811015610993578082015181840152602081019050610978565b838111156109a2576000848401525b50505050565b60006109b382610959565b6109bd8185610964565b93506109cd818560208601610975565b6109d681610581565b840191505092915050565b60006040820190506109f6600083018561094a565b8181036020830152610a0881846109a8565b90509392505050565b600081519050610a2081610795565b92915050565b600060208284031215610a3c57610a3b61050f565b5b6000610a4a84828501610a11565b91505092915050565b610a5c8161075f565b82525050565b600060a082019050610a77600083018861094a565b8181036020830152610a8981876109a8565b9050610a986040830186610a53565b610aa5606083018561094a565b610ab26080830184610735565b9695505050505050565b6000606082019050610ad1600083018661094a565b8181036020830152610ae381856109a8565b9050610af2604083018461094a565b949350505050565b6000608082019050610b0f600083018761094a565b8181036020830152610b2181866109a8565b9050610b30604083018561094a565b610b3d606083018461094a565b9594505050505056fea264697066735822122036b5aa926ef448e81699764e6b252a10d6524d2f92a3d4695e717fbe84a3841b64736f6c63430008090033",
  "linkReferences": {},
  "deployedLinkReferences": {}
}