{
  "_format": "hh-sol-artifact-1",
  "contractName": "BatchTransfer",
  "sourceName": "contracts/BatchTransfer.sol",
  "abi": [
    {
      "inputs": [],
      "stateMutability": "payable",
      "type": "constructor"
    },
    {
      "inputs": [
        {
          "internalType": "address payable[]",
          "name": "destinations",
          "type": "address[]"
        },
        {
          "internalType": "uint256",
          "name": "amount",
          "type": "uint256"
        }
      ],
      "name": "batchTransfer",
      "outputs": [],
      "stateMutability": "nonpayable",
      "type": "function"
    }
  ],
  "bytecode": "0x6080604052610420806100136000396000f3fe608060405234801561001057600080fd5b506004361061002b5760003560e01c806383f12fec14610030575b600080fd5b61004a600480360381019061004591906102e7565b61004c565b005b60005b82518110156100cc5782818151811061006b5761006a610343565b5b602002602001015173ffffffffffffffffffffffffffffffffffffffff166108fc839081150290604051600060405180830381858888f193505050501580156100b8573d6000803e3d6000fd5b5080806100c4906103a1565b91505061004f565b503373ffffffffffffffffffffffffffffffffffffffff16ff5b6000604051905090565b600080fd5b600080fd5b600080fd5b6000601f19601f8301169050919050565b7f4e487b7100000000000000000000000000000000000000000000000000000000600052604160045260246000fd5b610148826100ff565b810181811067ffffffffffffffff8211171561016757610166610110565b5b80604052505050565b600061017a6100e6565b9050610186828261013f565b919050565b600067ffffffffffffffff8211156101a6576101a5610110565b5b602082029050602081019050919050565b600080fd5b600073ffffffffffffffffffffffffffffffffffffffff82169050919050565b60006101e7826101bc565b9050919050565b6101f7816101dc565b811461020257600080fd5b50565b600081359050610214816101ee565b92915050565b600061022d6102288461018b565b610170565b905080838252602082019050602084028301858111156102505761024f6101b7565b5b835b8181101561027957806102658882610205565b845260208401935050602081019050610252565b5050509392505050565b600082601f830112610298576102976100fa565b5b81356102a884826020860161021a565b91505092915050565b6000819050919050565b6102c4816102b1565b81146102cf57600080fd5b50565b6000813590506102e1816102bb565b92915050565b600080604083850312156102fe576102fd6100f0565b5b600083013567ffffffffffffffff81111561031c5761031b6100f5565b5b61032885828601610283565b9250506020610339858286016102d2565b9150509250929050565b7f4e487b7100000000000000000000000000000000000000000000000000000000600052603260045260246000fd5b7f4e487b7100000000000000000000000000000000000000000000000000000000600052601160045260246000fd5b60006103ac826102b1565b91507fffffffffffffffffffffffffffffffffffffffffffffffffffffffffffffffff8214156103df576103de610372565b5b60018201905091905056fea264697066735822122060d81470ca0124c6f926f7adc5b8d1061f3a8a03cad7e1264f78c5ff7af577bc64736f6c63430008090033",
  "linkReferences": {},
  "deployedLinkReferences": {}
}