{
  "_format": "hh-sol-artifact-1",
  "contractName": "GasTransferTest",
  "sourceName": "contracts/GasTransferTest.sol",
  "abi": [
    {
      "inputs": [],
      "stateMutability": "payable",
      "type": "constructor"
    },
    {
      "inputs": [],
      "name": "blowUp",
      "outputs": [],
      "stateMutability": "nonpayable",
      "type": "function"
    },
    {
      "inputs": [],
      "name": "count",
      "outputs": [
        {
          "internalType": "uint256",
          "name": "",
          "type": "uint256"
        }
      ],
      "stateMutability": "view",
      "type": "function"
    },
    {
      "inputs": [],
      "name": "owner",
      "outputs": [
        {
          "internalType": "address payable",
          "name": "",
          "type": "address"
        }
      ],
      "stateMutability": "view",
      "type": "function"
    },
    {
      "inputs": [
        {
          "internalType": "uint256",
          "name": "amount",
          "type": "uint256"
        }
      ],
      "name": "sendback",
      "outputs": [],
      "stateMutability": "nonpayable",
      "type": "function"
    },
    {
      "inputs": [],
      "name": "takeAllMyMoney",
      "outputs": [],
      "stateMutability": "payable",
      "type": "function"
    }
  ],
  "bytecode": "0x6080604052336000806101000a81548173ffffffffffffffffffffffffffffffffffffffff021916908373ffffffffffffffffffffffffffffffffffffffff16021790555061039a806100536000396000f3fe60806040526004361061004a5760003560e01c806306661abd1461004f5780638da5cb5b1461007a57806392df1a62146100a5578063ce1534c1146100af578063f12600b3146100d8575b600080fd5b34801561005b57600080fd5b506100646100ef565b604051610071919061020a565b60405180910390f35b34801561008657600080fd5b5061008f6100f5565b60405161009c9190610266565b60405180910390f35b6100ad610119565b005b3480156100bb57600080fd5b506100d660048036038101906100d191906102b2565b610134565b005b3480156100e457600080fd5b506100ed6101b8565b005b60015481565b60008054906101000a900473ffffffffffffffffffffffffffffffffffffffff1681565b600180600082825461012b919061030e565b92505081905550565b60008054906101000a900473ffffffffffffffffffffffffffffffffffffffff1673ffffffffffffffffffffffffffffffffffffffff166108fc829081150290604051600060405180830381858888f1935050505015801561019a573d6000803e3d6000fd5b506002600160008282546101ae919061030e565b9250508190555050565b60008054906101000a900473ffffffffffffffffffffffffffffffffffffffff1673ffffffffffffffffffffffffffffffffffffffff16ff5b6000819050919050565b610204816101f1565b82525050565b600060208201905061021f60008301846101fb565b92915050565b600073ffffffffffffffffffffffffffffffffffffffff82169050919050565b600061025082610225565b9050919050565b61026081610245565b82525050565b600060208201905061027b6000830184610257565b92915050565b600080fd5b61028f816101f1565b811461029a57600080fd5b50565b6000813590506102ac81610286565b92915050565b6000602082840312156102c8576102c7610281565b5b60006102d68482850161029d565b91505092915050565b7f4e487b7100000000000000000000000000000000000000000000000000000000600052601160045260246000fd5b6000610319826101f1565b9150610324836101f1565b9250827fffffffffffffffffffffffffffffffffffffffffffffffffffffffffffffffff03821115610359576103586102df565b5b82820190509291505056fea26469706673582212202b0b5a51905b2fb49263de10962a3dc687324f8d1e3c0d5477f3fcf09950b0aa64736f6c63430008090033",
  "linkReferences": {},
  "deployedLinkReferences": {}
}