{
  "_format": "hh-sol-artifact-1",
  "contractName": "ScillaRead",
  "sourceName": "contracts/rfc75/ScillaRead.sol",
  "abi": [
    {
      "anonymous": false,
      "inputs": [
        {
          "indexed": false,
          "internalType": "bool",
          "name": "",
          "type": "bool"
        }
      ],
      "name": "ResultWas",
      "type": "event"
    },
    {
      "inputs": [
        {
          "internalType": "address",
          "name": "contract_address",
          "type": "address"
        },
        {
          "internalType": "string",
          "name": "tran_name",
          "type": "string"
        },
        {
          "internalType": "uint256",
          "name": "keep_origin",
          "type": "uint256"
        },
        {
          "internalType": "address",
          "name": "value",
          "type": "address"
        }
      ],
      "name": "callAddress",
      "outputs": [],
      "stateMutability": "nonpayable",
      "type": "function"
    },
    {
      "inputs": [
        {
          "internalType": "address",
          "name": "contract_address",
          "type": "address"
        },
        {
          "internalType": "string",
          "name": "tran_name",
          "type": "string"
        },
        {
          "internalType": "uint256",
          "name": "keep_origin",
          "type": "uint256"
        },
        {
          "internalType": "int128",
          "name": "amount",
          "type": "int128"
        }
      ],
      "name": "callInt",
      "outputs": [],
      "stateMutability": "nonpayable",
      "type": "function"
    },
    {
      "inputs": [
        {
          "internalType": "address",
          "name": "contract_address",
          "type": "address"
        },
        {
          "internalType": "string",
          "name": "tran_name",
          "type": "string"
        },
        {
          "internalType": "uint256",
          "name": "keep_origin",
          "type": "uint256"
        },
        {
          "internalType": "address",
          "name": "idx1",
          "type": "address"
        },
        {
          "internalType": "address",
          "name": "idx2",
          "type": "address"
        },
        {
          "internalType": "uint128",
          "name": "amount",
          "type": "uint128"
        }
      ],
      "name": "callNestedMap",
      "outputs": [],
      "stateMutability": "nonpayable",
      "type": "function"
    },
    {
      "inputs": [
        {
          "internalType": "address",
          "name": "contract_address",
          "type": "address"
        },
        {
          "internalType": "string",
          "name": "tran_name",
          "type": "string"
        },
        {
          "internalType": "uint256",
          "name": "keep_origin",
          "type": "uint256"
        },
        {
          "internalType": "address",
          "name": "recipient",
          "type": "address"
        },
        {
          "internalType": "uint128",
          "name": "amount",
          "type": "uint128"
        }
      ],
      "name": "callSimpleMap",
      "outputs": [],
      "stateMutability": "nonpayable",
      "type": "function"
    },
    {
      "inputs": [
        {
          "internalType": "address",
          "name": "contract_address",
          "type": "address"
        },
        {
          "internalType": "string",
          "name": "tran_name",
          "type": "string"
        },
        {
          "internalType": "uint256",
          "name": "keep_origin",
          "type": "uint256"
        },
        {
          "internalType": "string",
          "name": "value",
          "type": "string"
        }
      ],
      "name": "callString",
      "outputs": [],
      "stateMutability": "nonpayable",
      "type": "function"
    },
    {
      "inputs": [
        {
          "internalType": "address",
          "name": "contract_address",
          "type": "address"
        },
        {
          "internalType": "string",
          "name": "tran_name",
          "type": "string"
        },
        {
          "internalType": "uint256",
          "name": "keep_origin",
          "type": "uint256"
        },
        {
          "internalType": "uint128",
          "name": "amount",
          "type": "uint128"
        }
      ],
      "name": "callUint",
      "outputs": [],
      "stateMutability": "nonpayable",
      "type": "function"
    },
    {
      "inputs": [
        {
          "internalType": "address",
          "name": "scilla_contract",
          "type": "address"
        },
        {
          "internalType": "string",
          "name": "field_name",
          "type": "string"
        }
      ],
      "name": "readAddress",
      "outputs": [
        {
          "internalType": "address",
          "name": "retVal",
          "type": "address"
        }
      ],
      "stateMutability": "view",
      "type": "function"
    },
    {
      "inputs": [
        {
          "internalType": "address",
          "name": "scilla_contract",
          "type": "address"
        },
        {
          "internalType": "string",
          "name": "field_name",
          "type": "string"
        }
      ],
      "name": "readInt",
      "outputs": [
        {
          "internalType": "int128",
          "name": "",
          "type": "int128"
        }
      ],
      "stateMutability": "view",
      "type": "function"
    },
    {
      "inputs": [
        {
          "internalType": "address",
          "name": "scilla_contract",
          "type": "address"
        },
        {
          "internalType": "string",
          "name": "field_name",
          "type": "string"
        },
        {
          "internalType": "address",
          "name": "idx1",
          "type": "address"
        },
        {
          "internalType": "address",
          "name": "idx2",
          "type": "address"
        }
      ],
      "name": "readNestedMap",
      "outputs": [
        {
          "internalType": "uint128",
          "name": "funds",
          "type": "uint128"
        }
      ],
      "stateMutability": "view",
      "type": "function"
    },
    {
      "inputs": [
        {
          "internalType": "address",
          "name": "scilla_contract",
          "type": "address"
        },
        {
          "internalType": "string",
          "name": "field_name",
          "type": "string"
        },
        {
          "internalType": "address",
          "name": "idx1",
          "type": "address"
        }
      ],
      "name": "readSimpleMap",
      "outputs": [
        {
          "internalType": "uint128",
          "name": "funds",
          "type": "uint128"
        }
      ],
      "stateMutability": "view",
      "type": "function"
    },
    {
      "inputs": [
        {
          "internalType": "address",
          "name": "scilla_contract",
          "type": "address"
        },
        {
          "internalType": "string",
          "name": "field_name",
          "type": "string"
        }
      ],
      "name": "readString",
      "outputs": [
        {
          "internalType": "string",
          "name": "retVal",
          "type": "string"
        }
      ],
      "stateMutability": "view",
      "type": "function"
    },
    {
      "inputs": [
        {
          "internalType": "address",
          "name": "scilla_contract",
          "type": "address"
        },
        {
          "internalType": "string",
          "name": "field_name",
          "type": "string"
        }
      ],
      "name": "readUint",
      "outputs": [
        {
          "internalType": "uint128",
          "name": "",
          "type": "uint128"
        }
      ],
      "stateMutability": "view",
      "type": "function"
    }
  ],
  "bytecode": "0x608060405234801561001057600080fd5b506116ac806100206000396000f3fe608060405234801561001057600080fd5b50600436106100b45760003560e01c80637b022407116100715780637b022407146101755780639089f5bd146101a5578063cd8b1b92146101d5578063da86811f146101f1578063eed6939114610221578063ef58114614610251576100b4565b80630b378822146100b95780630ddacbb6146100d5578063139333b2146100f1578063185978dd1461010d5780636ebcd2f514610129578063769601d914610159575b600080fd5b6100d360048036038101906100ce9190610b92565b610281565b005b6100ef60048036038101906100ea9190610c74565b6102e1565b005b61010b60048036038101906101069190610cf7565b61033b565b005b61012760048036038101906101229190610d96565b610395565b005b610143600480360381019061013e9190610e19565b6103ef565b6040516101509190610e84565b60405180910390f35b610173600480360381019061016e9190610e9f565b6104b4565b005b61018f600480360381019061018a9190610f22565b61050e565b60405161019c9190610e84565b60405180910390f35b6101bf60048036038101906101ba9190610f91565b6105d0565b6040516101cc9190610e84565b60405180910390f35b6101ef60048036038101906101ea9190611014565b610695565b005b61020b60048036038101906102069190610e19565b6106f2565b6040516102189190611133565b60405180910390f35b61023b60048036038101906102369190610e19565b6107c5565b6040516102489190611164565b60405180910390f35b61026b60048036038101906102669190610e19565b610897565b604051610278919061118e565b60405180910390f35b600086868686868660405160200161029e969594939291906111b8565b6040516020818303038152906040529050600081519050600080602083602086016000635a494c53615208f19050806102d657600080fd5b505050505050505050565b6000848484846040516020016102fa9493929190611220565b6040516020818303038152906040529050600081519050600080602083602086016000635a494c53615208f190508061033257600080fd5b50505050505050565b600084848484604051602001610354949392919061126c565b6040516020818303038152906040529050600081519050600080602083602086016000635a494c53615208f190508061038c57600080fd5b50505050505050565b6000848484846040516020016103ae94939291906112bf565b6040516020818303038152906040529050600081519050600080602083602086016000635a494c53615208f19050806103e657600080fd5b50505050505050565b600080838360405160200161040592919061130b565b6040516020818303038152906040529050600081519050600080602467ffffffffffffffff81111561043a576104396109e9565b5b6040519080825280601f01601f19166020018201604052801561046c5781602001600182028036833780820191505090505b50905060208082018460208701635a494c92615208fa91508161048e57600080fd5b6000818060200190518101906104a49190611350565b9050809550505050505092915050565b6000848484846040516020016104cd949392919061137d565b6040516020818303038152906040529050600081519050600080602083602086016000635a494c53615208f190508061050557600080fd5b50505050505050565b600080848484604051602001610526939291906113c9565b6040516020818303038152906040529050600081519050600080602467ffffffffffffffff81111561055b5761055a6109e9565b5b6040519080825280601f01601f19166020018201604052801561058d5781602001600182028036833780820191505090505b50905060208082018460208701635a494c92615208fa9150816105af57600080fd5b808060200190518101906105c39190611350565b9450505050509392505050565b600080858585856040516020016105ea9493929190611407565b6040516020818303038152906040529050600081519050600080602467ffffffffffffffff81111561061f5761061e6109e9565b5b6040519080825280601f01601f1916602001820160405280156106515781602001600182028036833780820191505090505b50905060208082018460208701635a494c92615208fa91508161067357600080fd5b808060200190518101906106879190611350565b945050505050949350505050565b600085858585856040516020016106b0959493929190611453565b6040516020818303038152906040529050600081519050600080602083602086016000635a494c53615208f19050806106e857600080fd5b5050505050505050565b60606000838360405160200161070992919061130b565b6040516020818303038152906040529050600081519050600080608067ffffffffffffffff81111561073e5761073d6109e9565b5b6040519080825280601f01601f1916602001820160405280156107705781602001600182028036833780820191505090505b50905060006004825161078391906114dc565b905080602083018560208801635a494c92615208fa9250826107a457600080fd5b818060200190518101906107b89190611580565b9550505050505092915050565b60008083836040516020016107db92919061130b565b6040516020818303038152906040529050600081519050600080608067ffffffffffffffff8111156108105761080f6109e9565b5b6040519080825280601f01601f1916602001820160405280156108425781602001600182028036833780820191505090505b50905060006004825161085591906114dc565b905080602083018560208801635a494c92615208fa92508261087657600080fd5b8180602001905181019061088a9190611607565b9550505050505092915050565b60008083836040516020016108ad92919061130b565b6040516020818303038152906040529050600081519050600080602467ffffffffffffffff8111156108e2576108e16109e9565b5b6040519080825280601f01601f1916602001820160405280156109145781602001600182028036833780820191505090505b50905060208082018460208701635a494c92615208fa91508161093657600080fd5b60008180602001905181019061094c9190611649565b9050809550505050505092915050565b6000604051905090565b600080fd5b600080fd5b600073ffffffffffffffffffffffffffffffffffffffff82169050919050565b600061099b82610970565b9050919050565b6109ab81610990565b81146109b657600080fd5b50565b6000813590506109c8816109a2565b92915050565b600080fd5b600080fd5b6000601f19601f8301169050919050565b7f4e487b7100000000000000000000000000000000000000000000000000000000600052604160045260246000fd5b610a21826109d8565b810181811067ffffffffffffffff82111715610a4057610a3f6109e9565b5b80604052505050565b6000610a5361095c565b9050610a5f8282610a18565b919050565b600067ffffffffffffffff821115610a7f57610a7e6109e9565b5b610a88826109d8565b9050602081019050919050565b82818337600083830152505050565b6000610ab7610ab284610a64565b610a49565b905082815260208101848484011115610ad357610ad26109d3565b5b610ade848285610a95565b509392505050565b600082601f830112610afb57610afa6109ce565b5b8135610b0b848260208601610aa4565b91505092915050565b6000819050919050565b610b2781610b14565b8114610b3257600080fd5b50565b600081359050610b4481610b1e565b92915050565b60006fffffffffffffffffffffffffffffffff82169050919050565b610b6f81610b4a565b8114610b7a57600080fd5b50565b600081359050610b8c81610b66565b92915050565b60008060008060008060c08789031215610baf57610bae610966565b5b6000610bbd89828a016109b9565b965050602087013567ffffffffffffffff811115610bde57610bdd61096b565b5b610bea89828a01610ae6565b9550506040610bfb89828a01610b35565b9450506060610c0c89828a016109b9565b9350506080610c1d89828a016109b9565b92505060a0610c2e89828a01610b7d565b9150509295509295509295565b600081600f0b9050919050565b610c5181610c3b565b8114610c5c57600080fd5b50565b600081359050610c6e81610c48565b92915050565b60008060008060808587031215610c8e57610c8d610966565b5b6000610c9c878288016109b9565b945050602085013567ffffffffffffffff811115610cbd57610cbc61096b565b5b610cc987828801610ae6565b9350506040610cda87828801610b35565b9250506060610ceb87828801610c5f565b91505092959194509250565b60008060008060808587031215610d1157610d10610966565b5b6000610d1f878288016109b9565b945050602085013567ffffffffffffffff811115610d4057610d3f61096b565b5b610d4c87828801610ae6565b9350506040610d5d87828801610b35565b925050606085013567ffffffffffffffff811115610d7e57610d7d61096b565b5b610d8a87828801610ae6565b91505092959194509250565b60008060008060808587031215610db057610daf610966565b5b6000610dbe878288016109b9565b945050602085013567ffffffffffffffff811115610ddf57610dde61096b565b5b610deb87828801610ae6565b9350506040610dfc87828801610b35565b9250506060610e0d878288016109b9565b91505092959194509250565b60008060408385031215610e3057610e2f610966565b5b6000610e3e858286016109b9565b925050602083013567ffffffffffffffff811115610e5f57610e5e61096b565b5b610e6b85828601610ae6565b9150509250929050565b610e7e81610b4a565b82525050565b6000602082019050610e996000830184610e75565b92915050565b60008060008060808587031215610eb957610eb8610966565b5b6000610ec7878288016109b9565b945050602085013567ffffffffffffffff811115610ee857610ee761096b565b5b610ef487828801610ae6565b9350506040610f0587828801610b35565b9250506060610f1687828801610b7d565b91505092959194509250565b600080600060608486031215610f3b57610f3a610966565b5b6000610f49868287016109b9565b935050602084013567ffffffffffffffff811115610f6a57610f6961096b565b5b610f7686828701610ae6565b9250506040610f87868287016109b9565b9150509250925092565b60008060008060808587031215610fab57610faa610966565b5b6000610fb9878288016109b9565b945050602085013567ffffffffffffffff811115610fda57610fd961096b565b5b610fe687828801610ae6565b9350506040610ff7878288016109b9565b9250506060611008878288016109b9565b91505092959194509250565b600080600080600060a086880312156110305761102f610966565b5b600061103e888289016109b9565b955050602086013567ffffffffffffffff81111561105f5761105e61096b565b5b61106b88828901610ae6565b945050604061107c88828901610b35565b935050606061108d888289016109b9565b925050608061109e88828901610b7d565b9150509295509295909350565b600081519050919050565b600082825260208201905092915050565b60005b838110156110e55780820151818401526020810190506110ca565b838111156110f4576000848401525b50505050565b6000611105826110ab565b61110f81856110b6565b935061111f8185602086016110c7565b611128816109d8565b840191505092915050565b6000602082019050818103600083015261114d81846110fa565b905092915050565b61115e81610990565b82525050565b60006020820190506111796000830184611155565b92915050565b61118881610c3b565b82525050565b60006020820190506111a3600083018461117f565b92915050565b6111b281610b14565b82525050565b600060c0820190506111cd6000830189611155565b81810360208301526111df81886110fa565b90506111ee60408301876111a9565b6111fb6060830186611155565b6112086080830185611155565b61121560a0830184610e75565b979650505050505050565b60006080820190506112356000830187611155565b818103602083015261124781866110fa565b905061125660408301856111a9565b611263606083018461117f565b95945050505050565b60006080820190506112816000830187611155565b818103602083015261129381866110fa565b90506112a260408301856111a9565b81810360608301526112b481846110fa565b905095945050505050565b60006080820190506112d46000830187611155565b81810360208301526112e681866110fa565b90506112f560408301856111a9565b6113026060830184611155565b95945050505050565b60006040820190506113206000830185611155565b818103602083015261133281846110fa565b90509392505050565b60008151905061134a81610b66565b92915050565b60006020828403121561136657611365610966565b5b60006113748482850161133b565b91505092915050565b60006080820190506113926000830187611155565b81810360208301526113a481866110fa565b90506113b360408301856111a9565b6113c06060830184610e75565b95945050505050565b60006060820190506113de6000830186611155565b81810360208301526113f081856110fa565b90506113ff6040830184611155565b949350505050565b600060808201905061141c6000830187611155565b818103602083015261142e81866110fa565b905061143d6040830185611155565b61144a6060830184611155565b95945050505050565b600060a0820190506114686000830188611155565b818103602083015261147a81876110fa565b905061148960408301866111a9565b6114966060830185611155565b6114a36080830184610e75565b9695505050505050565b7f4e487b7100000000000000000000000000000000000000000000000000000000600052601160045260246000fd5b60006114e782610b14565b91506114f283610b14565b925082821015611505576115046114ad565b5b828203905092915050565b600061152361151e84610a64565b610a49565b90508281526020810184848401111561153f5761153e6109d3565b5b61154a8482856110c7565b509392505050565b600082601f830112611567576115666109ce565b5b8151611577848260208601611510565b91505092915050565b60006020828403121561159657611595610966565b5b600082015167ffffffffffffffff8111156115b4576115b361096b565b5b6115c084828501611552565b91505092915050565b60006115d482610970565b9050919050565b6115e4816115c9565b81146115ef57600080fd5b50565b600081519050611601816115db565b92915050565b60006020828403121561161d5761161c610966565b5b600061162b848285016115f2565b91505092915050565b60008151905061164381610c48565b92915050565b60006020828403121561165f5761165e610966565b5b600061166d84828501611634565b9150509291505056fea2646970667358221220592fc47e00e96ff9ea67fdccc07c939d209ddbce1610fddfc890f88c42ba4cad64736f6c63430008090033",
  "linkReferences": {},
  "deployedLinkReferences": {}
}