{
  "_format": "hh-sol-artifact-1",
  "contractName": "Erroneous",
  "sourceName": "contracts/Erroneous.sol",
  "abi": [
    {
      "inputs": [],
      "name": "foo",
      "outputs": [
        {
          "internalType": "bool",
          "name": "",
          "type": "bool"
        }
      ],
      "stateMutability": "nonpayable",
      "type": "function"
    }
  ],
  "bytecode": "0x608060405234801561001057600080fd5b506103cd806100206000396000f3fe608060405234801561001057600080fd5b506004361061002b5760003560e01c8063c298557814610030575b600080fd5b61003861004e565b6040516100459190610161565b60405180910390f35b60008061100067ffffffffffffffff81111561006d5761006c61017c565b5b6040519080825280601f01601f19166020018201604052801561009f5781602001600182028036833780820191505090505b50905060005b815181101561012b5760ff60f81b8282815181106100c6576100c56101ab565b5b60200101907effffffffffffffffffffffffffffffffffffffffffffffffffffffffffffff1916908160001a9053506000604051602001610106906102cf565b60405160208183030381529060405290505080806101239061034e565b9150506100a5565b5060001515600115151461013e57600080fd5b600191505090565b60008115159050919050565b61015b81610146565b82525050565b60006020820190506101766000830184610152565b92915050565b7f4e487b7100000000000000000000000000000000000000000000000000000000600052604160045260246000fd5b7f4e487b7100000000000000000000000000000000000000000000000000000000600052603260045260246000fd5b600082825260208201905092915050565b7f466f6f0000000000000000000000000000000000000000000000000000000000600082015250565b60006102216003836101da565b915061022c826101eb565b602082019050919050565b7f4261720000000000000000000000000000000000000000000000000000000000600082015250565b600061026d6003836101da565b915061027882610237565b602082019050919050565b7f536f6d6500000000000000000000000000000000000000000000000000000000600082015250565b60006102b96004836101da565b91506102c482610283565b602082019050919050565b600060608201905081810360008301526102e881610214565b905081810360208301526102fb81610260565b9050818103604083015261030e816102ac565b9050919050565b7f4e487b7100000000000000000000000000000000000000000000000000000000600052601160045260246000fd5b6000819050919050565b600061035982610344565b91507fffffffffffffffffffffffffffffffffffffffffffffffffffffffffffffffff82141561038c5761038b610315565b5b60018201905091905056fea2646970667358221220b0d213c911aea4bdf4b1abe6fba26d807924021993dae45efc57e8a754b6553564736f6c63430008090033",
  "linkReferences": {},
  "deployedLinkReferences": {}
}