{
  "_format": "hh-sol-artifact-1",
  "contractName": "MultiParamConstructor",
  "sourceName": "contracts/Deployment.sol",
  "abi": [
    {
      "inputs": [
        {
          "internalType": "string",
          "name": "_name",
          "type": "string"
        },
        {
          "internalType": "uint256",
          "name": "_number",
          "type": "uint256"
        }
      ],
      "stateMutability": "nonpayable",
      "type": "constructor"
    },
    {
      "inputs": [],
      "name": "name",
      "outputs": [
        {
          "internalType": "string",
          "name": "",
          "type": "string"
        }
      ],
      "stateMutability": "view",
      "type": "function"
    },
    {
      "inputs": [],
      "name": "number",
      "outputs": [
        {
          "internalType": "uint256",
          "name": "",
          "type": "uint256"
        }
      ],
      "stateMutability": "view",
      "type": "function"
    }
  ],
  "bytecode": "0x608060405234801561001057600080fd5b5060405161060b38038061060b833981810160405281019061003291906102ae565b8160009080519060200190610048929190610057565b5080600181905550505061036b565b82805461006390610339565b90600052602060002090601f01602090048101928261008557600085556100cc565b82601f1061009e57805160ff19168380011785556100cc565b828001600101855582156100cc579182015b828111156100cb5782518255916020019190600101906100b0565b5b5090506100d991906100dd565b5090565b5b808211156100f65760008160009055506001016100de565b5090565b6000604051905090565b600080fd5b600080fd5b600080fd5b600080fd5b6000601f19601f8301169050919050565b7f4e487b7100000000000000000000000000000000000000000000000000000000600052604160045260246000fd5b61016182610118565b810181811067ffffffffffffffff821117156101805761017f610129565b5b80604052505050565b60006101936100fa565b905061019f8282610158565b919050565b600067ffffffffffffffff8211156101bf576101be610129565b5b6101c882610118565b9050602081019050919050565b60005b838110156101f35780820151818401526020810190506101d8565b83811115610202576000848401525b50505050565b600061021b610216846101a4565b610189565b90508281526020810184848401111561023757610236610113565b5b6102428482856101d5565b509392505050565b600082601f83011261025f5761025e61010e565b5b815161026f848260208601610208565b91505092915050565b6000819050919050565b61028b81610278565b811461029657600080fd5b50565b6000815190506102a881610282565b92915050565b600080604083850312156102c5576102c4610104565b5b600083015167ffffffffffffffff8111156102e3576102e2610109565b5b6102ef8582860161024a565b925050602061030085828601610299565b9150509250929050565b7f4e487b7100000000000000000000000000000000000000000000000000000000600052602260045260246000fd5b6000600282049050600182168061035157607f821691505b602082108114156103655761036461030a565b5b50919050565b6102918061037a6000396000f3fe608060405234801561001057600080fd5b50600436106100365760003560e01c806306fdde031461003b5780638381f58a14610059575b600080fd5b610043610077565b60405161005091906101a4565b60405180910390f35b610061610105565b60405161006e91906101df565b60405180910390f35b6000805461008490610229565b80601f01602080910402602001604051908101604052809291908181526020018280546100b090610229565b80156100fd5780601f106100d2576101008083540402835291602001916100fd565b820191906000526020600020905b8154815290600101906020018083116100e057829003601f168201915b505050505081565b60015481565b600081519050919050565b600082825260208201905092915050565b60005b8381101561014557808201518184015260208101905061012a565b83811115610154576000848401525b50505050565b6000601f19601f8301169050919050565b60006101768261010b565b6101808185610116565b9350610190818560208601610127565b6101998161015a565b840191505092915050565b600060208201905081810360008301526101be818461016b565b905092915050565b6000819050919050565b6101d9816101c6565b82525050565b60006020820190506101f460008301846101d0565b92915050565b7f4e487b7100000000000000000000000000000000000000000000000000000000600052602260045260246000fd5b6000600282049050600182168061024157607f821691505b60208210811415610255576102546101fa565b5b5091905056fea2646970667358221220f9e8d887fa00aa4e73be21097243fa3301f9f53e3dd47cb8ca2a1c75545fc53d64736f6c63430008090033",
  "linkReferences": {},
  "deployedLinkReferences": {}
}