{
  "_format": "hh-sol-artifact-1",
  "contractName": "WithEnumConstructor",
  "sourceName": "contracts/Deployment.sol",
  "abi": [
    {
      "inputs": [
        {
          "internalType": "enum WithEnumConstructor.MyEnum",
          "name": "_enum",
          "type": "uint8"
        }
      ],
      "stateMutability": "nonpayable",
      "type": "constructor"
    },
    {
      "inputs": [],
      "name": "someEnum",
      "outputs": [
        {
          "internalType": "enum WithEnumConstructor.MyEnum",
          "name": "",
          "type": "uint8"
        }
      ],
      "stateMutability": "view",
      "type": "function"
    }
  ],
  "bytecode": "0x608060405234801561001057600080fd5b5060405161020b38038061020b8339818101604052810190610032919061008b565b806000806101000a81548160ff02191690836002811115610056576100556100b8565b5b0217905550506100e7565b600080fd5b6003811061007357600080fd5b50565b60008151905061008581610066565b92915050565b6000602082840312156100a1576100a0610061565b5b60006100af84828501610076565b91505092915050565b7f4e487b7100000000000000000000000000000000000000000000000000000000600052602160045260246000fd5b610115806100f66000396000f3fe6080604052348015600f57600080fd5b506004361060285760003560e01c80635995e80414602d575b600080fd5b60336047565b604051603e919060c6565b60405180910390f35b60008054906101000a900460ff1681565b7f4e487b7100000000000000000000000000000000000000000000000000000000600052602160045260246000fd5b6003811060955760946058565b5b50565b600081905060a4826087565b919050565b600060b2826098565b9050919050565b60c08160a9565b82525050565b600060208201905060d9600083018460b9565b9291505056fea2646970667358221220f3687fa1b6432c876bedea86f256bba866e9c0e6c8ac92954b67b2c5ab12932d64736f6c63430008090033",
  "linkReferences": {},
  "deployedLinkReferences": {}
}