{
  "_format": "hh-sol-artifact-1",
  "contractName": "Event",
  "sourceName": "contracts/Event.sol",
  "abi": [
    {
      "anonymous": false,
      "inputs": [],
      "name": "AnotherLog",
      "type": "event"
    },
    {
      "anonymous": false,
      "inputs": [
        {
          "indexed": true,
          "internalType": "address",
          "name": "sender",
          "type": "address"
        },
        {
          "indexed": false,
          "internalType": "string",
          "name": "message",
          "type": "string"
        }
      ],
      "name": "Log",
      "type": "event"
    },
    {
      "inputs": [],
      "name": "one_log",
      "outputs": [],
      "stateMutability": "nonpayable",
      "type": "function"
    },
    {
      "inputs": [],
      "name": "two_logs",
      "outputs": [],
      "stateMutability": "nonpayable",
      "type": "function"
    }
  ],
  "bytecode": "0x608060405234801561001057600080fd5b506101ca806100206000396000f3fe608060405234801561001057600080fd5b50600436106100365760003560e01c80636af407511461003b57806387bb6c6f14610045575b600080fd5b61004361004f565b005b61004d6100c9565b005b3373ffffffffffffffffffffffffffffffffffffffff167f0738f4da267a110d810e6e89fc59e46be6de0c37b1d5cd559b267dc3688e74e060405161009390610174565b60405180910390a27ffe1a3ad11e425db4b8e6af35d11c50118826a496df73006fc724cb27f2b9994660405160405180910390a1565b3373ffffffffffffffffffffffffffffffffffffffff167f0738f4da267a110d810e6e89fc59e46be6de0c37b1d5cd559b267dc3688e74e060405161010d90610174565b60405180910390a2565b600082825260208201905092915050565b7f48656c6c6f20576f726c64210000000000000000000000000000000000000000600082015250565b600061015e600c83610117565b915061016982610128565b602082019050919050565b6000602082019050818103600083015261018d81610151565b905091905056fea26469706673582212202f11b2dd4e8dadb5efdd30c9007f0466bc23428cc0d79b0dc2fb94269e28ec3464736f6c63430008090033",
  "linkReferences": {},
  "deployedLinkReferences": {}
}