{
  "_format": "hh-sol-artifact-1",
  "contractName": "Subscriptions",
  "sourceName": "contracts/Subscriptions.sol",
  "abi": [
    {
      "anonymous": false,
      "inputs": [
        {
          "indexed": false,
          "internalType": "address",
          "name": "from",
          "type": "address"
        },
        {
          "indexed": false,
          "internalType": "address",
          "name": "to",
          "type": "address"
        },
        {
          "indexed": false,
          "internalType": "uint256",
          "name": "tokens",
          "type": "uint256"
        }
      ],
      "name": "Event0",
      "type": "event"
    },
    {
      "anonymous": false,
      "inputs": [
        {
          "indexed": true,
          "internalType": "address",
          "name": "from",
          "type": "address"
        },
        {
          "indexed": false,
          "internalType": "address",
          "name": "to",
          "type": "address"
        },
        {
          "indexed": false,
          "internalType": "uint256",
          "name": "tokens",
          "type": "uint256"
        }
      ],
      "name": "Event1",
      "type": "event"
    },
    {
      "anonymous": false,
      "inputs": [
        {
          "indexed": true,
          "internalType": "address",
          "name": "from",
          "type": "address"
        },
        {
          "indexed": true,
          "internalType": "address",
          "name": "to",
          "type": "address"
        },
        {
          "indexed": false,
          "internalType": "uint256",
          "name": "tokens",
          "type": "uint256"
        }
      ],
      "name": "Event2",
      "type": "event"
    },
    {
      "anonymous": false,
      "inputs": [
        {
          "indexed": true,
          "internalType": "address",
          "name": "from",
          "type": "address"
        },
        {
          "indexed": true,
          "internalType": "address",
          "name": "to",
          "type": "address"
        },
        {
          "indexed": true,
          "internalType": "uint256",
          "name": "tokens",
          "type": "uint256"
        }
      ],
      "name": "Event3",
      "type": "event"
    },
    {
      "inputs": [
        {
          "internalType": "address",
          "name": "to",
          "type": "address"
        },
        {
          "internalType": "uint256",
          "name": "tokens",
          "type": "uint256"
        }
      ],
      "name": "event0",
      "outputs": [],
      "stateMutability": "nonpayable",
      "type": "function"
    },
    {
      "inputs": [
        {
          "internalType": "address",
          "name": "to",
          "type": "address"
        },
        {
          "internalType": "uint256",
          "name": "tokens",
          "type": "uint256"
        }
      ],
      "name": "event1",
      "outputs": [],
      "stateMutability": "nonpayable",
      "type": "function"
    },
    {
      "inputs": [
        {
          "internalType": "address",
          "name": "to",
          "type": "address"
        },
        {
          "internalType": "uint256",
          "name": "tokens",
          "type": "uint256"
        }
      ],
      "name": "event2",
      "outputs": [],
      "stateMutability": "nonpayable",
      "type": "function"
    },
    {
      "inputs": [
        {
          "internalType": "address",
          "name": "to",
          "type": "address"
        },
        {
          "internalType": "uint256",
          "name": "tokens",
          "type": "uint256"
        }
      ],
      "name": "event3",
      "outputs": [],
      "stateMutability": "nonpayable",
      "type": "function"
    }
  ],
  "bytecode": "0x608060405234801561001057600080fd5b506103c4806100206000396000f3fe608060405234801561001057600080fd5b506004361061004c5760003560e01c80631b9474441461005157806326b0869d1461006d5780635342035a14610089578063922977ff146100a5575b600080fd5b61006b600480360381019061006691906102b5565b6100c1565b005b610087600480360381019061008291906102b5565b610100565b005b6100a3600480360381019061009e91906102b5565b61015f565b005b6100bf60048036038101906100ba91906102b5565b6101b3565b005b7feade2f103cfa021b266971ef5dccd732c8a416e059c31aeaccae0348d7469d6a3383836040516100f493929190610313565b60405180910390a15050565b808273ffffffffffffffffffffffffffffffffffffffff163373ffffffffffffffffffffffffffffffffffffffff167f6d031ee2fbda6b4522f3cd2303e13f6bb11b51b90e73a31287bcf7a40b00a23a60405160405180910390a45050565b3373ffffffffffffffffffffffffffffffffffffffff167f41d74b1c981c78ca73184c16bcf858ec7e63b2da8f301844bd8c2dc614fb64cc83836040516101a792919061034a565b60405180910390a25050565b8173ffffffffffffffffffffffffffffffffffffffff163373ffffffffffffffffffffffffffffffffffffffff167f4b3a31a8aefc42cfeff66988f71f8989252499e75c3911005faa930bcc4ff9e3836040516102109190610373565b60405180910390a35050565b600080fd5b600073ffffffffffffffffffffffffffffffffffffffff82169050919050565b600061024c82610221565b9050919050565b61025c81610241565b811461026757600080fd5b50565b60008135905061027981610253565b92915050565b6000819050919050565b6102928161027f565b811461029d57600080fd5b50565b6000813590506102af81610289565b92915050565b600080604083850312156102cc576102cb61021c565b5b60006102da8582860161026a565b92505060206102eb858286016102a0565b9150509250929050565b6102fe81610241565b82525050565b61030d8161027f565b82525050565b600060608201905061032860008301866102f5565b61033560208301856102f5565b6103426040830184610304565b949350505050565b600060408201905061035f60008301856102f5565b61036c6020830184610304565b9392505050565b60006020820190506103886000830184610304565b9291505056fea2646970667358221220dcba0bffc63656e689f78462f8a641900f820753c1009becd9dbc4a57021d6cd64736f6c63430008090033",
  "linkReferences": {},
  "deployedLinkReferences": {}
}