{
  "_format": "hh-sol-artifact-1",
  "contractName": "Called",
  "sourceName": "contracts/StaticCall.sol",
  "abi": [
    {
      "inputs": [],
      "stateMutability": "nonpayable",
      "type": "constructor"
    },
    {
      "anonymous": false,
      "inputs": [
        {
          "indexed": false,
          "internalType": "uint256",
          "name": "",
          "type": "uint256"
        },
        {
          "indexed": false,
          "internalType": "string",
          "name": "",
          "type": "string"
        }
      ],
      "name": "IncrementMessage",
      "type": "event"
    },
    {
      "inputs": [
        {
          "internalType": "address",
          "name": "caller",
          "type": "address"
        },
        {
          "internalType": "address",
          "name": "called",
          "type": "address"
        }
      ],
      "name": "callCaller",
      "outputs": [],
      "stateMutability": "nonpayable",
      "type": "function"
    },
    {
      "inputs": [],
      "name": "getNumber",
      "outputs": [
        {
          "internalType": "uint256",
          "name": "",
          "type": "uint256"
        }
      ],
      "stateMutability": "view",
      "type": "function"
    },
    {
      "inputs": [],
      "name": "increment",
      "outputs": [
        {
          "internalType": "bool",
          "name": "",
          "type": "bool"
        },
        {
          "internalType": "uint256",
          "name": "",
          "type": "uint256"
        }
      ],
      "stateMutability": "nonpayable",
      "type": "function"
    },
    {
      "inputs": [],
      "name": "number",
      "outputs": [
        {
          "internalType": "uint256",
          "name": "",
          "type": "uint256"
        }
      ],
      "stateMutability": "view",
      "type": "function"
    }
  ],
  "bytecode": "0x608060405234801561001057600080fd5b5060008081905550610537806100276000396000f3fe608060405234801561001057600080fd5b506004361061004c5760003560e01c8063667dff55146100515780638381f58a1461006d578063d09de08a1461008b578063f2c9ecd8146100aa575b600080fd5b61006b6004803603810190610066919061028b565b6100c8565b005b6100756101b9565b60405161008291906102e4565b60405180910390f35b6100936101bf565b6040516100a192919061031a565b60405180910390f35b6100b261021f565b6040516100bf91906102e4565b60405180910390f35b600080819055506000808373ffffffffffffffffffffffffffffffffffffffff16635dd5772460e01b846040516024016101029190610352565b604051602081830303815290604052907bffffffffffffffffffffffffffffffffffffffffffffffffffffffff19166020820180517bffffffffffffffffffffffffffffffffffffffffffffffffffffffff838183161783525050505060405161016c91906103e7565b6000604051808303816000865af19150503d80600081146101a9576040519150601f19603f3d011682016040523d82523d6000602084013e6101ae565b606091505b509150915050505050565b60005481565b6000806000808154809291906101d49061042d565b91905055507f25d612035de75ad6d8b8297a74ba0747a75db4bda14ad92b95331f15b235860560005460405161020a91906104d3565b60405180910390a16001600054915091509091565b60008054905090565b600080fd5b600073ffffffffffffffffffffffffffffffffffffffff82169050919050565b60006102588261022d565b9050919050565b6102688161024d565b811461027357600080fd5b50565b6000813590506102858161025f565b92915050565b600080604083850312156102a2576102a1610228565b5b60006102b085828601610276565b92505060206102c185828601610276565b9150509250929050565b6000819050919050565b6102de816102cb565b82525050565b60006020820190506102f960008301846102d5565b92915050565b60008115159050919050565b610314816102ff565b82525050565b600060408201905061032f600083018561030b565b61033c60208301846102d5565b9392505050565b61034c8161024d565b82525050565b60006020820190506103676000830184610343565b92915050565b600081519050919050565b600081905092915050565b60005b838110156103a1578082015181840152602081019050610386565b838111156103b0576000848401525b50505050565b60006103c18261036d565b6103cb8185610378565b93506103db818560208601610383565b80840191505092915050565b60006103f382846103b6565b915081905092915050565b7f4e487b7100000000000000000000000000000000000000000000000000000000600052601160045260246000fd5b6000610438826102cb565b91507fffffffffffffffffffffffffffffffffffffffffffffffffffffffffffffffff82141561046b5761046a6103fe565b5b600182019050919050565b600082825260208201905092915050565b7f496e6372656d656e74696e672e2e2e0000000000000000000000000000000000600082015250565b60006104bd600f83610476565b91506104c882610487565b602082019050919050565b60006040820190506104e860008301846102d5565b81810360208301526104f9816104b0565b90509291505056fea2646970667358221220374c60c8d0a73cc0cc1eade210c905a1228b8c58e375cd1b14132ceed76dbfa864736f6c63430008090033",
  "linkReferences": {},
  "deployedLinkReferences": {}
}