{
  "_format": "hh-sol-artifact-1",
  "contractName": "Caller",
  "sourceName": "contracts/StaticCall.sol",
  "abi": [
    {
      "inputs": [
        {
          "internalType": "address",
          "name": "called",
          "type": "address"
        }
      ],
      "name": "callCalled",
      "outputs": [
        {
          "internalType": "bool",
          "name": "",
          "type": "bool"
        },
        {
          "internalType": "bytes",
          "name": "",
          "type": "bytes"
        }
      ],
      "stateMutability": "nonpayable",
      "type": "function"
    }
  ],
  "bytecode": "0x608060405234801561001057600080fd5b5061039b806100206000396000f3fe608060405234801561001057600080fd5b506004361061002b5760003560e01c80635dd5772414610030575b600080fd5b61004a600480360381019061004591906101d2565b610061565b6040516100589291906102b3565b60405180910390f35b600060606000808473ffffffffffffffffffffffffffffffffffffffff166040516024016040516020818303038152906040527fd09de08a000000000000000000000000000000000000000000000000000000007bffffffffffffffffffffffffffffffffffffffffffffffffffffffff19166020820180517bffffffffffffffffffffffffffffffffffffffffffffffffffffffff838183161783525050505060405161010f919061031f565b600060405180830381855afa9150503d806000811461014a576040519150601f19603f3d011682016040523d82523d6000602084013e61014f565b606091505b50915091508161016257610161610336565b5b8181935093505050915091565b600080fd5b600073ffffffffffffffffffffffffffffffffffffffff82169050919050565b600061019f82610174565b9050919050565b6101af81610194565b81146101ba57600080fd5b50565b6000813590506101cc816101a6565b92915050565b6000602082840312156101e8576101e761016f565b5b60006101f6848285016101bd565b91505092915050565b60008115159050919050565b610214816101ff565b82525050565b600081519050919050565b600082825260208201905092915050565b60005b83811015610254578082015181840152602081019050610239565b83811115610263576000848401525b50505050565b6000601f19601f8301169050919050565b60006102858261021a565b61028f8185610225565b935061029f818560208601610236565b6102a881610269565b840191505092915050565b60006040820190506102c8600083018561020b565b81810360208301526102da818461027a565b90509392505050565b600081905092915050565b60006102f98261021a565b61030381856102e3565b9350610313818560208601610236565b80840191505092915050565b600061032b82846102ee565b915081905092915050565b7f4e487b7100000000000000000000000000000000000000000000000000000000600052600160045260246000fdfea264697066735822122059b621ea7852d0b687e00f48044cabe87288224a6baf1513ef0c3c67aba7929864736f6c63430008090033",
  "linkReferences": {},
  "deployedLinkReferences": {}
}