{
  "_format": "hh-sol-artifact-1",
  "contractName": "Create2Factory",
  "sourceName": "contracts/Create2.sol",
  "abi": [
    {
      "anonymous": false,
      "inputs": [
        {
          "indexed": true,
          "internalType": "address",
          "name": "addr",
          "type": "address"
        },
        {
          "indexed": false,
          "internalType": "string",
          "name": "message",
          "type": "string"
        }
      ],
      "name": "DebugPrint",
      "type": "event"
    },
    {
      "inputs": [
        {
          "internalType": "uint256",
          "name": "_salt",
          "type": "uint256"
        }
      ],
      "name": "deploy",
      "outputs": [],
      "stateMutability": "nonpayable",
      "type": "function"
    },
    {
      "inputs": [
        {
          "internalType": "bytes",
          "name": "bytecode",
          "type": "bytes"
        },
        {
          "internalType": "uint256",
          "name": "_salt",
          "type": "uint256"
        }
      ],
      "name": "getAddress",
      "outputs": [
        {
          "internalType": "address",
          "name": "",
          "type": "address"
        }
      ],
      "stateMutability": "view",
      "type": "function"
    },
    {
      "inputs": [
        {
          "internalType": "address",
          "name": "_owner",
          "type": "address"
        }
      ],
      "name": "getBytecode",
      "outputs": [
        {
          "internalType": "bytes",
          "name": "",
          "type": "bytes"
        }
      ],
      "stateMutability": "pure",
      "type": "function"
    }
  ],
  "bytecode": "0x608060405234801561001057600080fd5b50610bca806100206000396000f3fe60806040523480156200001157600080fd5b5060043610620000465760003560e01c80630c6008af146200004b57806394ca2cb51462000081578063a5e3875114620000b7575b600080fd5b620000696004803603810190620000639190620002ba565b620000d7565b60405162000078919062000390565b60405180910390f35b6200009f600480360381019062000099919062000540565b62000150565b604051620000ae9190620005b7565b60405180910390f35b620000d56004803603810190620000cf9190620005d4565b6200019c565b005b6060600060405180602001620000ed9062000233565b6020820181038252601f19601f8201166040525090508083604051602001620001179190620005b7565b6040516020818303038152906040526040516020016200013992919062000648565b604051602081830303815290604052915050919050565b60008060ff60f81b3084868051906020012060405160200162000177949392919062000765565b6040516020818303038152906040528051906020012090508060001c91505092915050565b60008160001b33604051620001b19062000233565b620001bd9190620005b7565b8190604051809103906000f5905080158015620001de573d6000803e3d6000fd5b5090508073ffffffffffffffffffffffffffffffffffffffff167fc7cc9da98d4f127ffaa94adf9ff3bc5cca798c4e73fef75f5f878056bef9296f60405162000227906200081c565b60405180910390a25050565b610356806200083f83390190565b6000604051905090565b600080fd5b600080fd5b600073ffffffffffffffffffffffffffffffffffffffff82169050919050565b6000620002828262000255565b9050919050565b620002948162000275565b8114620002a057600080fd5b50565b600081359050620002b48162000289565b92915050565b600060208284031215620002d357620002d26200024b565b5b6000620002e384828501620002a3565b91505092915050565b600081519050919050565b600082825260208201905092915050565b60005b83811015620003285780820151818401526020810190506200030b565b8381111562000338576000848401525b50505050565b6000601f19601f8301169050919050565b60006200035c82620002ec565b620003688185620002f7565b93506200037a81856020860162000308565b62000385816200033e565b840191505092915050565b60006020820190508181036000830152620003ac81846200034f565b905092915050565b600080fd5b600080fd5b7f4e487b7100000000000000000000000000000000000000000000000000000000600052604160045260246000fd5b620003f8826200033e565b810181811067ffffffffffffffff821117156200041a5762000419620003be565b5b80604052505050565b60006200042f62000241565b90506200043d8282620003ed565b919050565b600067ffffffffffffffff82111562000460576200045f620003be565b5b6200046b826200033e565b9050602081019050919050565b82818337600083830152505050565b60006200049e620004988462000442565b62000423565b905082815260208101848484011115620004bd57620004bc620003b9565b5b620004ca84828562000478565b509392505050565b600082601f830112620004ea57620004e9620003b4565b5b8135620004fc84826020860162000487565b91505092915050565b6000819050919050565b6200051a8162000505565b81146200052657600080fd5b50565b6000813590506200053a816200050f565b92915050565b600080604083850312156200055a57620005596200024b565b5b600083013567ffffffffffffffff8111156200057b576200057a62000250565b5b6200058985828601620004d2565b92505060206200059c8582860162000529565b9150509250929050565b620005b18162000275565b82525050565b6000602082019050620005ce6000830184620005a6565b92915050565b600060208284031215620005ed57620005ec6200024b565b5b6000620005fd8482850162000529565b91505092915050565b600081905092915050565b60006200061e82620002ec565b6200062a818562000606565b93506200063c81856020860162000308565b80840191505092915050565b600062000656828562000611565b915062000664828462000611565b91508190509392505050565b60007fff0000000000000000000000000000000000000000000000000000000000000082169050919050565b6000819050919050565b620006bb620006b58262000670565b6200069c565b82525050565b60008160601b9050919050565b6000620006db82620006c1565b9050919050565b6000620006ef82620006ce565b9050919050565b6200070b620007058262000275565b620006e2565b82525050565b6000819050919050565b620007306200072a8262000505565b62000711565b82525050565b6000819050919050565b6000819050919050565b6200075f620007598262000736565b62000740565b82525050565b6000620007738287620006a6565b600182019150620007858286620006f6565b6014820191506200079782856200071b565b602082019150620007a982846200074a565b60208201915081905095945050505050565b600082825260208201905092915050565b7f4465706c6f796564207769746820637265617465322100000000000000000000600082015250565b600062000804601683620007bb565b91506200081182620007cc565b602082019050919050565b600060208201905081810360008301526200083781620007f5565b905091905056fe608060405234801561001057600080fd5b5060405161035638038061035683398181016040528101906100329190610147565b806000806101000a81548173ffffffffffffffffffffffffffffffffffffffff021916908373ffffffffffffffffffffffffffffffffffffffff16021790555060008054906101000a900473ffffffffffffffffffffffffffffffffffffffff1673ffffffffffffffffffffffffffffffffffffffff167feb0eb24c406c7cedff82dc5e0e63c0e4e04a7c1a918002bfaa9fdcdb2f916fb96040516100d6906101d1565b60405180910390a2506101f1565b600080fd5b600073ffffffffffffffffffffffffffffffffffffffff82169050919050565b6000610114826100e9565b9050919050565b61012481610109565b811461012f57600080fd5b50565b6000815190506101418161011b565b92915050565b60006020828403121561015d5761015c6100e4565b5b600061016b84828501610132565b91505092915050565b600082825260208201905092915050565b7f776520636f6e73747275637465642069742e2e2e000000000000000000000000600082015250565b60006101bb601483610174565b91506101c682610185565b602082019050919050565b600060208201905081810360008301526101ea816101ae565b9050919050565b610156806102006000396000f3fe608060405234801561001057600080fd5b50600436106100365760003560e01c8063893d20e81461003b5780638da5cb5b14610059575b600080fd5b610043610077565b6040516100509190610105565b60405180910390f35b6100616100a0565b60405161006e9190610105565b60405180910390f35b60008060009054906101000a900473ffffffffffffffffffffffffffffffffffffffff16905090565b60008054906101000a900473ffffffffffffffffffffffffffffffffffffffff1681565b600073ffffffffffffffffffffffffffffffffffffffff82169050919050565b60006100ef826100c4565b9050919050565b6100ff816100e4565b82525050565b600060208201905061011a60008301846100f6565b9291505056fea264697066735822122039fdf2f39d2ef9b7b4d87b8e0b33921a4b9003032f7ec98b76a07904e3c9785964736f6c63430008090033a2646970667358221220490765ff78b392952bb2a41a227104d2d91ccaf5c38510230462f4cd5bbdbed964736f6c63430008090033",
  "linkReferences": {},
  "deployedLinkReferences": {}
}