{
  "_format": "hh-sol-artifact-1",
  "contractName": "ScillaCall",
  "sourceName": "contracts/rfc75/ScillaCall.sol",
  "abi": [
    {
      "inputs": [
        {
          "internalType": "address",
          "name": "contract_address",
          "type": "address"
        },
        {
          "internalType": "string",
          "name": "tran_name",
          "type": "string"
        },
        {
          "internalType": "int256",
          "name": "keep_origin",
          "type": "int256"
        },
        {
          "internalType": "address",
          "name": "interScilla",
          "type": "address"
        },
        {
          "internalType": "address",
          "name": "evmRecipient",
          "type": "address"
        },
        {
          "internalType": "uint128",
          "name": "value",
          "type": "uint128"
        }
      ],
      "name": "callForwardScilla",
      "outputs": [],
      "stateMutability": "nonpayable",
      "type": "function"
    },
    {
      "inputs": [
        {
          "internalType": "address",
          "name": "contract_address",
          "type": "address"
        },
        {
          "internalType": "string",
          "name": "tran_name",
          "type": "string"
        },
        {
          "internalType": "int256",
          "name": "keep_origin",
          "type": "int256"
        },
        {
          "internalType": "address",
          "name": "recipient",
          "type": "address"
        },
        {
          "internalType": "uint128",
          "name": "value",
          "type": "uint128"
        }
      ],
      "name": "callScilla",
      "outputs": [],
      "stateMutability": "nonpayable",
      "type": "function"
    },
    {
      "inputs": [
        {
          "internalType": "address",
          "name": "contract_address",
          "type": "address"
        },
        {
          "internalType": "string",
          "name": "tran_name",
          "type": "string"
        },
        {
          "internalType": "int256",
          "name": "keep_origin",
          "type": "int256"
        },
        {
          "internalType": "address",
          "name": "recipient",
          "type": "address"
        }
      ],
      "name": "callScillaInsufficientParams",
      "outputs": [],
      "stateMutability": "nonpayable",
      "type": "function"
    }
  ],
  "bytecode": "0x608060405234801561001057600080fd5b506107a3806100206000396000f3fe608060405234801561001057600080fd5b50600436106100415760003560e01c80634aca92fd146100465780634cd361b914610062578063e163c52a1461007e575b600080fd5b610060600480360381019061005b91906103e7565b61009a565b005b61007c60048036038101906100779190610490565b6100fa565b005b61009860048036038101906100939190610527565b610157565b005b60008686868686866040516020016100b79695949392919061065f565b6040516020818303038152906040529050600081519050600080602083602086016000635a494c53615208f19050806100ef57600080fd5b505050505050505050565b600085858585856040516020016101159594939291906106c7565b6040516020818303038152906040529050600081519050600080602083602086016000635a494c53615208f190508061014d57600080fd5b5050505050505050565b6000848484846040516020016101709493929190610721565b6040516020818303038152906040529050600081519050600080602083602086016000635a494c53615208f19050806101a857600080fd5b50505050505050565b6000604051905090565b600080fd5b600080fd5b600073ffffffffffffffffffffffffffffffffffffffff82169050919050565b60006101f0826101c5565b9050919050565b610200816101e5565b811461020b57600080fd5b50565b60008135905061021d816101f7565b92915050565b600080fd5b600080fd5b6000601f19601f8301169050919050565b7f4e487b7100000000000000000000000000000000000000000000000000000000600052604160045260246000fd5b6102768261022d565b810181811067ffffffffffffffff821117156102955761029461023e565b5b80604052505050565b60006102a86101b1565b90506102b4828261026d565b919050565b600067ffffffffffffffff8211156102d4576102d361023e565b5b6102dd8261022d565b9050602081019050919050565b82818337600083830152505050565b600061030c610307846102b9565b61029e565b90508281526020810184848401111561032857610327610228565b5b6103338482856102ea565b509392505050565b600082601f8301126103505761034f610223565b5b81356103608482602086016102f9565b91505092915050565b6000819050919050565b61037c81610369565b811461038757600080fd5b50565b60008135905061039981610373565b92915050565b60006fffffffffffffffffffffffffffffffff82169050919050565b6103c48161039f565b81146103cf57600080fd5b50565b6000813590506103e1816103bb565b92915050565b60008060008060008060c08789031215610404576104036101bb565b5b600061041289828a0161020e565b965050602087013567ffffffffffffffff811115610433576104326101c0565b5b61043f89828a0161033b565b955050604061045089828a0161038a565b945050606061046189828a0161020e565b935050608061047289828a0161020e565b92505060a061048389828a016103d2565b9150509295509295509295565b600080600080600060a086880312156104ac576104ab6101bb565b5b60006104ba8882890161020e565b955050602086013567ffffffffffffffff8111156104db576104da6101c0565b5b6104e78882890161033b565b94505060406104f88882890161038a565b93505060606105098882890161020e565b925050608061051a888289016103d2565b9150509295509295909350565b60008060008060808587031215610541576105406101bb565b5b600061054f8782880161020e565b945050602085013567ffffffffffffffff8111156105705761056f6101c0565b5b61057c8782880161033b565b935050604061058d8782880161038a565b925050606061059e8782880161020e565b91505092959194509250565b6105b3816101e5565b82525050565b600081519050919050565b600082825260208201905092915050565b60005b838110156105f35780820151818401526020810190506105d8565b83811115610602576000848401525b50505050565b6000610613826105b9565b61061d81856105c4565b935061062d8185602086016105d5565b6106368161022d565b840191505092915050565b61064a81610369565b82525050565b6106598161039f565b82525050565b600060c08201905061067460008301896105aa565b81810360208301526106868188610608565b90506106956040830187610641565b6106a260608301866105aa565b6106af60808301856105aa565b6106bc60a0830184610650565b979650505050505050565b600060a0820190506106dc60008301886105aa565b81810360208301526106ee8187610608565b90506106fd6040830186610641565b61070a60608301856105aa565b6107176080830184610650565b9695505050505050565b600060808201905061073660008301876105aa565b81810360208301526107488186610608565b90506107576040830185610641565b61076460608301846105aa565b9594505050505056fea2646970667358221220fd6349f978b74a7d2cf967a2720bee27f480b2c68be04a13ecc90126cbebda9f64736f6c63430008090033",
  "linkReferences": {},
  "deployedLinkReferences": {}
}