{
  "_format": "hh-sol-artifact-1",
  "contractName": "ParentContract",
  "sourceName": "contracts/ParentChildContract.sol",
  "abi": [
    {
      "inputs": [],
      "stateMutability": "payable",
      "type": "constructor"
    },
    {
      "inputs": [],
      "name": "child",
      "outputs": [
        {
          "internalType": "contract ChildContract",
          "name": "",
          "type": "address"
        }
      ],
      "stateMutability": "view",
      "type": "function"
    },
    {
      "inputs": [],
      "name": "childAddress",
      "outputs": [
        {
          "internalType": "address payable",
          "name": "",
          "type": "address"
        }
      ],
      "stateMutability": "view",
      "type": "function"
    },
    {
      "inputs": [],
      "name": "getPaidValue",
      "outputs": [
        {
          "internalType": "uint256",
          "name": "",
          "type": "uint256"
        }
      ],
      "stateMutability": "view",
      "type": "function"
    },
    {
      "inputs": [
        {
          "internalType": "uint256",
          "name": "initial_data",
          "type": "uint256"
        }
      ],
      "name": "installChild",
      "outputs": [
        {
          "internalType": "address payable",
          "name": "",
          "type": "address"
        }
      ],
      "stateMutability": "nonpayable",
      "type": "function"
    },
    {
      "inputs": [
        {
          "internalType": "address",
          "name": "account",
          "type": "address"
        }
      ],
      "name": "returnToSenderAndDestruct",
      "outputs": [],
      "stateMutability": "payable",
      "type": "function"
    },
    {
      "inputs": [],
      "name": "value",
      "outputs": [
        {
          "internalType": "uint256",
          "name": "",
          "type": "uint256"
        }
      ],
      "stateMutability": "view",
      "type": "function"
    },
    {
      "stateMutability": "payable",
      "type": "receive"
    }
  ],
  "bytecode": "0x6080604052346001819055506109098061001a6000396000f3fe6080604052600436106100595760003560e01c80630178295614610065578063237b5e96146100815780633fa4f245146100ac578063b8a947de146100d7578063c250e3ce14610102578063ca511ae61461013f57610060565b3661006057005b600080fd5b61007f600480360381019061007a91906102f1565b61016a565b005b34801561008d57600080fd5b50610096610183565b6040516100a3919061037d565b60405180910390f35b3480156100b857600080fd5b506100c16101a7565b6040516100ce91906103b1565b60405180910390f35b3480156100e357600080fd5b506100ec6101ad565b6040516100f991906103ed565b60405180910390f35b34801561010e57600080fd5b5061012960048036038101906101249190610434565b6101d6565b60405161013691906103ed565b60405180910390f35b34801561014b57600080fd5b50610154610277565b60405161016191906103b1565b60405180910390f35b8073ffffffffffffffffffffffffffffffffffffffff16ff5b60008054906101000a900473ffffffffffffffffffffffffffffffffffffffff1681565b60015481565b60008060009054906101000a900473ffffffffffffffffffffffffffffffffffffffff16905090565b6000600154826040516101e890610281565b6101f291906103b1565b6040518091039082f090508015801561020f573d6000803e3d6000fd5b506000806101000a81548173ffffffffffffffffffffffffffffffffffffffff021916908373ffffffffffffffffffffffffffffffffffffffff16021790555060008054906101000a900473ffffffffffffffffffffffffffffffffffffffff169050919050565b6000600154905090565b6104728061046283390190565b600080fd5b600073ffffffffffffffffffffffffffffffffffffffff82169050919050565b60006102be82610293565b9050919050565b6102ce816102b3565b81146102d957600080fd5b50565b6000813590506102eb816102c5565b92915050565b6000602082840312156103075761030661028e565b5b6000610315848285016102dc565b91505092915050565b6000819050919050565b600061034361033e61033984610293565b61031e565b610293565b9050919050565b600061035582610328565b9050919050565b60006103678261034a565b9050919050565b6103778161035c565b82525050565b6000602082019050610392600083018461036e565b92915050565b6000819050919050565b6103ab81610398565b82525050565b60006020820190506103c660008301846103a2565b92915050565b60006103d782610293565b9050919050565b6103e7816103cc565b82525050565b600060208201905061040260008301846103de565b92915050565b61041181610398565b811461041c57600080fd5b50565b60008135905061042e81610408565b92915050565b60006020828403121561044a5761044961028e565b5b60006104588482850161041f565b9150509291505056fe6080604052604051610472380380610472833981810160405281019061002591906100b5565b806000819055503460018190555033600260006101000a81548173ffffffffffffffffffffffffffffffffffffffff021916908373ffffffffffffffffffffffffffffffffffffffff160217905550506100e2565b600080fd5b6000819050919050565b6100928161007f565b811461009d57600080fd5b50565b6000815190506100af81610089565b92915050565b6000602082840312156100cb576100ca61007a565b5b60006100d9848285016100a0565b91505092915050565b610381806100f16000396000f3fe608060405234801561001057600080fd5b506004361061004c5760003560e01c80633fa4f2451461005157806357de26a41461006f57806367e404ce1461008d578063db171211146100ab575b600080fd5b6100596100b5565b6040516100669190610211565b60405180910390f35b6100776100bb565b6040516100849190610211565b60405180910390f35b6100956100c4565b6040516100a2919061026d565b60405180910390f35b6100b36100ea565b005b60015481565b60008054905090565b600260009054906101000a900473ffffffffffffffffffffffffffffffffffffffff1681565b60004790506000600260009054906101000a900473ffffffffffffffffffffffffffffffffffffffff1673ffffffffffffffffffffffffffffffffffffffff1682604051610137906102b9565b60006040518083038185875af1925050503d8060008114610174576040519150601f19603f3d011682016040523d82523d6000602084013e610179565b606091505b50509050806101bd576040517f08c379a00000000000000000000000000000000000000000000000000000000081526004016101b49061032b565b60405180910390fd5b600260009054906101000a900473ffffffffffffffffffffffffffffffffffffffff1673ffffffffffffffffffffffffffffffffffffffff16ff5b6000819050919050565b61020b816101f8565b82525050565b60006020820190506102266000830184610202565b92915050565b600073ffffffffffffffffffffffffffffffffffffffff82169050919050565b60006102578261022c565b9050919050565b6102678161024c565b82525050565b6000602082019050610282600083018461025e565b92915050565b600081905092915050565b50565b60006102a3600083610288565b91506102ae82610293565b600082019050919050565b60006102c482610296565b9150819050919050565b600082825260208201905092915050565b7f4661696c656420746f2073656e64204574686572000000000000000000000000600082015250565b60006103156014836102ce565b9150610320826102df565b602082019050919050565b6000602082019050818103600083015261034481610308565b905091905056fea26469706673582212205a093e8840d69ee5f29b5c6d5a0a2b514fe6a75b5c6b24d47acff1779625b18564736f6c63430008090033a26469706673582212208ac97f16829c3716025679136ad0c1ff3e1b9f791d9a7bdd8a655c5eb3cfde0b64736f6c63430008090033",
  "linkReferences": {},
  "deployedLinkReferences": {}
}