{
  "_format": "hh-sol-artifact-1",
  "contractName": "ForwardZil",
  "sourceName": "contracts/ForwardZil.sol",
  "abi": [
    {
      "inputs": [],
      "stateMutability": "payable",
      "type": "constructor"
    },
    {
      "inputs": [],
      "name": "deposit",
      "outputs": [],
      "stateMutability": "payable",
      "type": "function"
    },
    {
      "inputs": [],
      "name": "notPayable",
      "outputs": [],
      "stateMutability": "nonpayable",
      "type": "function"
    },
    {
      "inputs": [],
      "name": "owner",
      "outputs": [
        {
          "internalType": "address payable",
          "name": "",
          "type": "address"
        }
      ],
      "stateMutability": "view",
      "type": "function"
    },
    {
      "inputs": [
        {
          "internalType": "address payable",
          "name": "_to",
          "type": "address"
        },
        {
          "internalType": "uint256",
          "name": "_amount",
          "type": "uint256"
        }
      ],
      "name": "transfer",
      "outputs": [],
      "stateMutability": "nonpayable",
      "type": "function"
    },
    {
      "inputs": [],
      "name": "withdraw",
      "outputs": [],
      "stateMutability": "nonpayable",
      "type": "function"
    },
    {
      "stateMutability": "payable",
      "type": "receive"
    }
  ],
  "bytecode": "0x6080604052336000806101000a81548173ffffffffffffffffffffffffffffffffffffffff021916908373ffffffffffffffffffffffffffffffffffffffff16021790555061051b806100536000396000f3fe60806040526004361061004e5760003560e01c8063273884bd1461005a5780633ccfd60b146100715780638da5cb5b14610088578063a9059cbb146100b3578063d0e30db0146100dc57610055565b3661005557005b600080fd5b34801561006657600080fd5b5061006f6100e6565b005b34801561007d57600080fd5b506100866100e8565b005b34801561009457600080fd5b5061009d6101e5565b6040516100aa91906102fd565b60405180910390f35b3480156100bf57600080fd5b506100da60048036038101906100d5919061037f565b610209565b005b6100e46102ba565b005b565b6000479050670de0b6b3a764000081111561011457670de0b6b3a76400008161011191906103ee565b90505b60008060009054906101000a900473ffffffffffffffffffffffffffffffffffffffff1673ffffffffffffffffffffffffffffffffffffffff168260405161015b90610453565b60006040518083038185875af1925050503d8060008114610198576040519150601f19603f3d011682016040523d82523d6000602084013e61019d565b606091505b50509050806101e1576040517f08c379a00000000000000000000000000000000000000000000000000000000081526004016101d8906104c5565b60405180910390fd5b5050565b60008054906101000a900473ffffffffffffffffffffffffffffffffffffffff1681565b60008273ffffffffffffffffffffffffffffffffffffffff168260405161022f90610453565b60006040518083038185875af1925050503d806000811461026c576040519150601f19603f3d011682016040523d82523d6000602084013e610271565b606091505b50509050806102b5576040517f08c379a00000000000000000000000000000000000000000000000000000000081526004016102ac906104c5565b60405180910390fd5b505050565b565b600073ffffffffffffffffffffffffffffffffffffffff82169050919050565b60006102e7826102bc565b9050919050565b6102f7816102dc565b82525050565b600060208201905061031260008301846102ee565b92915050565b600080fd5b610326816102dc565b811461033157600080fd5b50565b6000813590506103438161031d565b92915050565b6000819050919050565b61035c81610349565b811461036757600080fd5b50565b60008135905061037981610353565b92915050565b6000806040838503121561039657610395610318565b5b60006103a485828601610334565b92505060206103b58582860161036a565b9150509250929050565b7f4e487b7100000000000000000000000000000000000000000000000000000000600052601160045260246000fd5b60006103f982610349565b915061040483610349565b925082821015610417576104166103bf565b5b828203905092915050565b600081905092915050565b50565b600061043d600083610422565b91506104488261042d565b600082019050919050565b600061045e82610430565b9150819050919050565b600082825260208201905092915050565b7f4661696c656420746f2073656e64204574686572000000000000000000000000600082015250565b60006104af601483610468565b91506104ba82610479565b602082019050919050565b600060208201905081810360008301526104de816104a2565b905091905056fea26469706673582212204db596c562c82beb740efda77c9b421230f5fed431b06094c55d7d1a5138417664736f6c63430008090033",
  "linkReferences": {},
  "deployedLinkReferences": {}
}