{
  "_format": "hh-sol-artifact-1",
  "contractName": "ScillaCallRevert",
  "sourceName": "contracts/rfc75/ScillaCallRevert.sol",
  "abi": [
    {
      "inputs": [
        {
          "internalType": "address",
          "name": "contract_address",
          "type": "address"
        },
        {
          "internalType": "string",
          "name": "tran_name",
          "type": "string"
        },
        {
          "internalType": "int256",
          "name": "keep_origin",
          "type": "int256"
        },
        {
          "internalType": "uint128",
          "name": "value",
          "type": "uint128"
        },
        {
          "internalType": "address",
          "name": "recipient1",
          "type": "address"
        },
        {
          "internalType": "address",
          "name": "recipient2",
          "type": "address"
        }
      ],
      "name": "callScilla",
      "outputs": [],
      "stateMutability": "nonpayable",
      "type": "function"
    },
    {
      "inputs": [
        {
          "internalType": "address",
          "name": "contract_address",
          "type": "address"
        },
        {
          "internalType": "string",
          "name": "tran_name",
          "type": "string"
        },
        {
          "internalType": "int256",
          "name": "keep_origin",
          "type": "int256"
        },
        {
          "internalType": "uint128",
          "name": "value",
          "type": "uint128"
        },
        {
          "internalType": "address",
          "name": "next_scilla_address",
          "type": "address"
        },
        {
          "internalType": "address",
          "name": "recipient1",
          "type": "address"
        },
        {
          "internalType": "address",
          "name": "recipient2",
          "type": "address"
        }
      ],
      "name": "callScillaChain",
      "outputs": [],
      "stateMutability": "nonpayable",
      "type": "function"
    }
  ],
  "bytecode": "0x608060405234801561001057600080fd5b50610688806100206000396000f3fe608060405234801561001057600080fd5b50600436106100365760003560e01c80635bef5e4f1461003b578063be3a54b314610057575b600080fd5b61005560048036038101906100509190610358565b610073565b005b610071600480360381019061006c9190610401565b6100c9565b005b600086868686868660405160200161009096959493929190610574565b6040516020818303038152906040529050600081519050600080602083602086016000635a494c53615208f19050505050505050505050565b6000878787878787876040516020016100e897969594939291906105dc565b6040516020818303038152906040529050600081519050600080602083602086016000635a494c53615208f1905050505050505050505050565b6000604051905090565b600080fd5b600080fd5b600073ffffffffffffffffffffffffffffffffffffffff82169050919050565b600061016182610136565b9050919050565b61017181610156565b811461017c57600080fd5b50565b60008135905061018e81610168565b92915050565b600080fd5b600080fd5b6000601f19601f8301169050919050565b7f4e487b7100000000000000000000000000000000000000000000000000000000600052604160045260246000fd5b6101e78261019e565b810181811067ffffffffffffffff82111715610206576102056101af565b5b80604052505050565b6000610219610122565b905061022582826101de565b919050565b600067ffffffffffffffff821115610245576102446101af565b5b61024e8261019e565b9050602081019050919050565b82818337600083830152505050565b600061027d6102788461022a565b61020f565b90508281526020810184848401111561029957610298610199565b5b6102a484828561025b565b509392505050565b600082601f8301126102c1576102c0610194565b5b81356102d184826020860161026a565b91505092915050565b6000819050919050565b6102ed816102da565b81146102f857600080fd5b50565b60008135905061030a816102e4565b92915050565b60006fffffffffffffffffffffffffffffffff82169050919050565b61033581610310565b811461034057600080fd5b50565b6000813590506103528161032c565b92915050565b60008060008060008060c087890312156103755761037461012c565b5b600061038389828a0161017f565b965050602087013567ffffffffffffffff8111156103a4576103a3610131565b5b6103b089828a016102ac565b95505060406103c189828a016102fb565b94505060606103d289828a01610343565b93505060806103e389828a0161017f565b92505060a06103f489828a0161017f565b9150509295509295509295565b600080600080600080600060e0888a0312156104205761041f61012c565b5b600061042e8a828b0161017f565b975050602088013567ffffffffffffffff81111561044f5761044e610131565b5b61045b8a828b016102ac565b965050604061046c8a828b016102fb565b955050606061047d8a828b01610343565b945050608061048e8a828b0161017f565b93505060a061049f8a828b0161017f565b92505060c06104b08a828b0161017f565b91505092959891949750929550565b6104c881610156565b82525050565b600081519050919050565b600082825260208201905092915050565b60005b838110156105085780820151818401526020810190506104ed565b83811115610517576000848401525b50505050565b6000610528826104ce565b61053281856104d9565b93506105428185602086016104ea565b61054b8161019e565b840191505092915050565b61055f816102da565b82525050565b61056e81610310565b82525050565b600060c08201905061058960008301896104bf565b818103602083015261059b818861051d565b90506105aa6040830187610556565b6105b76060830186610565565b6105c460808301856104bf565b6105d160a08301846104bf565b979650505050505050565b600060e0820190506105f1600083018a6104bf565b8181036020830152610603818961051d565b90506106126040830188610556565b61061f6060830187610565565b61062c60808301866104bf565b61063960a08301856104bf565b61064660c08301846104bf565b9897505050505050505056fea26469706673582212207eaf16190a341533b67285e1ed5cd6dea25fea35d155fcdb876e5b0a10ee3a6664736f6c63430008090033",
  "linkReferences": {},
  "deployedLinkReferences": {}
}