{
  "_format": "hh-sol-artifact-1",
  "contractName": "WithSettersAndGetters",
  "sourceName": "contracts/Interaction.sol",
  "abi": [
    {
      "anonymous": true,
      "inputs": [],
      "name": "logAnonymous",
      "type": "event"
    },
    {
      "anonymous": true,
      "inputs": [
        {
          "indexed": false,
          "internalType": "string",
          "name": "param",
          "type": "string"
        }
      ],
      "name": "logAnonymousWithParam",
      "type": "event"
    },
    {
      "anonymous": false,
      "inputs": [
        {
          "indexed": false,
          "internalType": "address",
          "name": "param",
          "type": "address"
        }
      ],
      "name": "logWithAddressParam",
      "type": "event"
    },
    {
      "anonymous": false,
      "inputs": [
        {
          "indexed": false,
          "internalType": "enum WithSettersAndGetters.MyEnum",
          "name": "param",
          "type": "uint8"
        }
      ],
      "name": "logWithEnumParam",
      "type": "event"
    },
    {
      "anonymous": false,
      "inputs": [
        {
          "indexed": true,
          "internalType": "address",
          "name": "param",
          "type": "address"
        }
      ],
      "name": "logWithIndexedAddressParam",
      "type": "event"
    },
    {
      "anonymous": false,
      "inputs": [
        {
          "indexed": false,
          "internalType": "uint256",
          "name": "param1",
          "type": "uint256"
        },
        {
          "indexed": false,
          "internalType": "string",
          "name": "param2",
          "type": "string"
        }
      ],
      "name": "logWithMultiParams",
      "type": "event"
    },
    {
      "anonymous": false,
      "inputs": [
        {
          "indexed": false,
          "internalType": "string",
          "name": "param",
          "type": "string"
        }
      ],
      "name": "logWithStringParam",
      "type": "event"
    },
    {
      "anonymous": false,
      "inputs": [
        {
          "indexed": false,
          "internalType": "uint256",
          "name": "value",
          "type": "uint256"
        }
      ],
      "name": "logWithUint256Param",
      "type": "event"
    },
    {
      "anonymous": false,
      "inputs": [],
      "name": "logWithoutParam",
      "type": "event"
    },
    {
      "inputs": [],
      "name": "emitLogAnonymous",
      "outputs": [],
      "stateMutability": "nonpayable",
      "type": "function"
    },
    {
      "inputs": [],
      "name": "emitLogAnonymousWithParam",
      "outputs": [],
      "stateMutability": "nonpayable",
      "type": "function"
    },
    {
      "inputs": [],
      "name": "emitLogWithAddressParam",
      "outputs": [],
      "stateMutability": "nonpayable",
      "type": "function"
    },
    {
      "inputs": [],
      "name": "emitLogWithEnumParam",
      "outputs": [],
      "stateMutability": "nonpayable",
      "type": "function"
    },
    {
      "inputs": [],
      "name": "emitLogWithMultiParams",
      "outputs": [],
      "stateMutability": "nonpayable",
      "type": "function"
    },
    {
      "inputs": [],
      "name": "emitLogWithStringParam",
      "outputs": [],
      "stateMutability": "nonpayable",
      "type": "function"
    },
    {
      "inputs": [],
      "name": "emitLogWithUint256Param",
      "outputs": [],
      "stateMutability": "nonpayable",
      "type": "function"
    },
    {
      "inputs": [],
      "name": "emitLogWithoutParam",
      "outputs": [],
      "stateMutability": "nonpayable",
      "type": "function"
    },
    {
      "inputs": [],
      "name": "getAddressExternal",
      "outputs": [
        {
          "internalType": "address",
          "name": "",
          "type": "address"
        }
      ],
      "stateMutability": "view",
      "type": "function"
    },
    {
      "inputs": [],
      "name": "getAddressPublic",
      "outputs": [
        {
          "internalType": "address",
          "name": "",
          "type": "address"
        }
      ],
      "stateMutability": "view",
      "type": "function"
    },
    {
      "inputs": [],
      "name": "getEnumExternal",
      "outputs": [
        {
          "internalType": "enum WithSettersAndGetters.MyEnum",
          "name": "",
          "type": "uint8"
        }
      ],
      "stateMutability": "view",
      "type": "function"
    },
    {
      "inputs": [],
      "name": "getEnumPublic",
      "outputs": [
        {
          "internalType": "enum WithSettersAndGetters.MyEnum",
          "name": "",
          "type": "uint8"
        }
      ],
      "stateMutability": "view",
      "type": "function"
    },
    {
      "inputs": [],
      "name": "getEnumPure",
      "outputs": [
        {
          "internalType": "enum WithSettersAndGetters.MyEnum",
          "name": "",
          "type": "uint8"
        }
      ],
      "stateMutability": "pure",
      "type": "function"
    },
    {
      "inputs": [],
      "name": "getEnumPureExternal",
      "outputs": [
        {
          "internalType": "enum WithSettersAndGetters.MyEnum",
          "name": "",
          "type": "uint8"
        }
      ],
      "stateMutability": "pure",
      "type": "function"
    },
    {
      "inputs": [],
      "name": "getNameExternal",
      "outputs": [
        {
          "internalType": "string",
          "name": "",
          "type": "string"
        }
      ],
      "stateMutability": "view",
      "type": "function"
    },
    {
      "inputs": [],
      "name": "getNumberExternal",
      "outputs": [
        {
          "internalType": "uint256",
          "name": "",
          "type": "uint256"
        }
      ],
      "stateMutability": "view",
      "type": "function"
    },
    {
      "inputs": [],
      "name": "getNumberPublic",
      "outputs": [
        {
          "internalType": "uint256",
          "name": "",
          "type": "uint256"
        }
      ],
      "stateMutability": "view",
      "type": "function"
    },
    {
      "inputs": [],
      "name": "getNumberPure",
      "outputs": [
        {
          "internalType": "uint256",
          "name": "",
          "type": "uint256"
        }
      ],
      "stateMutability": "pure",
      "type": "function"
    },
    {
      "inputs": [],
      "name": "getNumberPureExternal",
      "outputs": [
        {
          "internalType": "uint256",
          "name": "",
          "type": "uint256"
        }
      ],
      "stateMutability": "pure",
      "type": "function"
    },
    {
      "inputs": [],
      "name": "getStringPublic",
      "outputs": [
        {
          "internalType": "string",
          "name": "",
          "type": "string"
        }
      ],
      "stateMutability": "view",
      "type": "function"
    },
    {
      "inputs": [],
      "name": "getStringPure",
      "outputs": [
        {
          "internalType": "string",
          "name": "",
          "type": "string"
        }
      ],
      "stateMutability": "pure",
      "type": "function"
    },
    {
      "inputs": [],
      "name": "getStringPureExternal",
      "outputs": [
        {
          "internalType": "string",
          "name": "",
          "type": "string"
        }
      ],
      "stateMutability": "pure",
      "type": "function"
    },
    {
      "inputs": [],
      "name": "getTuplePure",
      "outputs": [
        {
          "internalType": "uint256",
          "name": "",
          "type": "uint256"
        },
        {
          "internalType": "string",
          "name": "",
          "type": "string"
        }
      ],
      "stateMutability": "pure",
      "type": "function"
    },
    {
      "inputs": [],
      "name": "getTuplePureExternal",
      "outputs": [
        {
          "internalType": "uint256",
          "name": "",
          "type": "uint256"
        },
        {
          "internalType": "string",
          "name": "",
          "type": "string"
        }
      ],
      "stateMutability": "pure",
      "type": "function"
    },
    {
      "inputs": [],
      "name": "name",
      "outputs": [
        {
          "internalType": "string",
          "name": "",
          "type": "string"
        }
      ],
      "stateMutability": "view",
      "type": "function"
    },
    {
      "inputs": [],
      "name": "number",
      "outputs": [
        {
          "internalType": "uint256",
          "name": "",
          "type": "uint256"
        }
      ],
      "stateMutability": "view",
      "type": "function"
    },
    {
      "inputs": [
        {
          "internalType": "address",
          "name": "_address",
          "type": "address"
        }
      ],
      "name": "setAddress",
      "outputs": [],
      "stateMutability": "nonpayable",
      "type": "function"
    },
    {
      "inputs": [
        {
          "internalType": "address",
          "name": "_address",
          "type": "address"
        }
      ],
      "name": "setAddressExternal",
      "outputs": [],
      "stateMutability": "nonpayable",
      "type": "function"
    },
    {
      "inputs": [
        {
          "internalType": "enum WithSettersAndGetters.MyEnum",
          "name": "_enum",
          "type": "uint8"
        }
      ],
      "name": "setEnum",
      "outputs": [],
      "stateMutability": "nonpayable",
      "type": "function"
    },
    {
      "inputs": [
        {
          "internalType": "enum WithSettersAndGetters.MyEnum",
          "name": "_enum",
          "type": "uint8"
        }
      ],
      "name": "setEnumExternal",
      "outputs": [],
      "stateMutability": "nonpayable",
      "type": "function"
    },
    {
      "inputs": [
        {
          "internalType": "string",
          "name": "_name",
          "type": "string"
        }
      ],
      "name": "setName",
      "outputs": [],
      "stateMutability": "nonpayable",
      "type": "function"
    },
    {
      "inputs": [
        {
          "internalType": "string",
          "name": "_name",
          "type": "string"
        }
      ],
      "name": "setNameExternal",
      "outputs": [],
      "stateMutability": "nonpayable",
      "type": "function"
    },
    {
      "inputs": [
        {
          "internalType": "uint256",
          "name": "_number",
          "type": "uint256"
        }
      ],
      "name": "setNumber",
      "outputs": [],
      "stateMutability": "nonpayable",
      "type": "function"
    },
    {
      "inputs": [
        {
          "internalType": "uint256",
          "name": "_number",
          "type": "uint256"
        }
      ],
      "name": "setNumberExternal",
      "outputs": [],
      "stateMutability": "nonpayable",
      "type": "function"
    },
    {
      "inputs": [],
      "name": "someAddress",
      "outputs": [
        {
          "internalType": "address",
          "name": "",
          "type": "address"
        }
      ],
      "stateMutability": "view",
      "type": "function"
    },
    {
      "inputs": [],
      "name": "someEnum",
      "outputs": [
        {
          "internalType": "enum WithSettersAndGetters.MyEnum",
          "name": "",
          "type": "uint8"
        }
      ],
      "stateMutability": "view",
      "type": "function"
    }
  ],
  "bytecode": "0x608060405234801561001057600080fd5b50611301806100206000396000f3fe608060405234801561001057600080fd5b506004361061021c5760003560e01c80638381f58a11610125578063ce8fb2cc116100ad578063d2623c0b1161007c578063d2623c0b14610519578063d7ffe9e214610537578063e30081a014610555578063ec1dfc7b14610571578063f216db091461058d5761021c565b8063ce8fb2cc146104b7578063cea8ea36146104d5578063d0e04b2e146104f1578063d13c786c146104fb5761021c565b8063b7f2dab7116100f4578063b7f2dab714610425578063c47f002714610443578063c66f93781461045f578063c9dffb681461047d578063cc258c771461049b5761021c565b80638381f58a146103ac57806397da973e146103ca5780639af6b3e6146103e8578063b522ea09146104075761021c565b806342072952116101a85780636b9fb667116101775780636b9fb667146103415780636c3ba96e1461034b57806371422614146103675780637d3e609a1461038657806380bd10d0146103a25761021c565b806342072952146102dd578063514fcc4e146102fb5780635995e804146103055780635c56345f146103235761021c565b806318e5f16b116101ef57806318e5f16b146102715780632e803fb91461028f57806330039172146102ad57806336b44139146102b75780633fb5c1cb146102c15761021c565b806306fdde03146102215780630905c0741461023f5780630afa8d141461025d5780631481488514610267575b600080fd5b6102296105ab565b6040516102369190610d2b565b60405180910390f35b610247610639565b6040516102549190610d66565b60405180910390f35b610265610642565b005b61026f61067c565b005b610279610692565b6040516102869190610dc2565b60405180910390f35b6102976106b8565b6040516102a49190610d66565b60405180910390f35b6102b56106c1565b005b6102bf6106fb565b005b6102db60048036038101906102d69190610e1d565b610735565b005b6102e561073f565b6040516102f29190610ec1565b60405180910390f35b610303610756565b005b61030d61078f565b60405161031a9190610ec1565b60405180910390f35b61032b6107a2565b6040516103389190610d2b565b60405180910390f35b6103496107df565b005b61036560048036038101906103609190611011565b610816565b005b61036f610830565b60405161037d92919061105a565b60405180910390f35b6103a0600480360381019061039b91906110b6565b610874565b005b6103aa6108b8565b005b6103b46108c5565b6040516103c19190610d66565b60405180910390f35b6103d26108cb565b6040516103df9190610dc2565b60405180910390f35b6103f06108f5565b6040516103fe92919061105a565b60405180910390f35b61040f610939565b60405161041c9190610dc2565b60405180910390f35b61042d610963565b60405161043a9190610d2b565b60405180910390f35b61045d60048036038101906104589190611011565b6109f5565b005b610467610a0f565b6040516104749190610d2b565b60405180910390f35b610485610aa1565b6040516104929190610d66565b60405180910390f35b6104b560048036038101906104b09190611108565b610aaa565b005b6104bf610ad7565b6040516104cc9190610ec1565b60405180910390f35b6104ef60048036038101906104ea9190610e1d565b610ae0565b005b6104f9610aea565b005b610503610b18565b6040516105109190610ec1565b60405180910390f35b610521610b21565b60405161052e9190610d66565b60405180910390f35b61053f610b2a565b60405161054c9190610ec1565b60405180910390f35b61056f600480360381019061056a91906110b6565b610b41565b005b61058b60048036038101906105869190611108565b610b85565b005b610595610bb2565b6040516105a29190610d2b565b60405180910390f35b600180546105b890611164565b80601f01602080910402602001604051908101604052809291908181526020018280546105e490611164565b80156106315780601f1061060657610100808354040283529160200191610631565b820191906000526020600020905b81548152906001019060200180831161061457829003601f168201915b505050505081565b60008054905090565b7f1f68d9be218e56964de5b62b4381b3e7b21914ba5408f653bd46f30ce222379e60ea60405161067291906111db565b60405180910390a1565b60405161068890611242565b60405180910390a0565b600260019054906101000a900473ffffffffffffffffffffffffffffffffffffffff1681565b60008054905090565b7f2e55e5d9c4f54f4d0d6743f3ef536b2106e324a0db4521d57cf4e3e0b7be36f0607b6040516106f1919061129d565b60405180910390a1565b7fca6dbd9371c33f46d2a9e6235574a5b461a6f60b9d621e890fa30a7003f3025e600060405161072b9190610ec1565b60405180910390a1565b8060008190555050565b6000600260009054906101000a900460ff16905090565b7f30be839d8f55679bce2edf62e611dfc38889b63d4bba92f88402f3c1cbdcabe9306040516107859190610dc2565b60405180910390a1565b600260009054906101000a900460ff1681565b60606040518060400160405280600781526020017f5a696c6c69716100000000000000000000000000000000000000000000000000815250905090565b7fe583129daea52e6781a131504cc894de02617fd78f3102c10910d288f84b76a160405161080c90611242565b60405180910390a1565b806001908051906020019061082c929190610bef565b5050565b60006060607b6040518060400160405280600781526020017f7a696c6c69716100000000000000000000000000000000000000000000000000815250915091509091565b80600260016101000a81548173ffffffffffffffffffffffffffffffffffffffff021916908373ffffffffffffffffffffffffffffffffffffffff16021790555050565b60405160405180910390a0565b60005481565b6000600260019054906101000a900473ffffffffffffffffffffffffffffffffffffffff16905090565b60006060607b6040518060400160405280600781526020017f7a696c6c69716100000000000000000000000000000000000000000000000000815250915091509091565b6000600260019054906101000a900473ffffffffffffffffffffffffffffffffffffffff16905090565b60606001805461097290611164565b80601f016020809104026020016040519081016040528092919081815260200182805461099e90611164565b80156109eb5780601f106109c0576101008083540402835291602001916109eb565b820191906000526020600020905b8154815290600101906020018083116109ce57829003601f168201915b5050505050905090565b8060019080519060200190610a0b929190610bef565b5050565b606060018054610a1e90611164565b80601f0160208091040260200160405190810160405280929190818152602001828054610a4a90611164565b8015610a975780601f10610a6c57610100808354040283529160200191610a97565b820191906000526020600020905b815481529060010190602001808311610a7a57829003601f168201915b5050505050905090565b60006001905090565b80600260006101000a81548160ff02191690836002811115610acf57610ace610e4a565b5b021790555050565b60006002905090565b8060008190555050565b7fae18432970b0d734b2ea17670561840d60e9c59db742a7f6f5874997de45e66a60405160405180910390a1565b60006002905090565b60006001905090565b6000600260009054906101000a900460ff16905090565b80600260016101000a81548173ffffffffffffffffffffffffffffffffffffffff021916908373ffffffffffffffffffffffffffffffffffffffff16021790555050565b80600260006101000a81548160ff02191690836002811115610baa57610ba9610e4a565b5b021790555050565b60606040518060400160405280600781526020017f5a696c6c69716100000000000000000000000000000000000000000000000000815250905090565b828054610bfb90611164565b90600052602060002090601f016020900481019282610c1d5760008555610c64565b82601f10610c3657805160ff1916838001178555610c64565b82800160010185558215610c64579182015b82811115610c63578251825591602001919060010190610c48565b5b509050610c719190610c75565b5090565b5b80821115610c8e576000816000905550600101610c76565b5090565b600081519050919050565b600082825260208201905092915050565b60005b83811015610ccc578082015181840152602081019050610cb1565b83811115610cdb576000848401525b50505050565b6000601f19601f8301169050919050565b6000610cfd82610c92565b610d078185610c9d565b9350610d17818560208601610cae565b610d2081610ce1565b840191505092915050565b60006020820190508181036000830152610d458184610cf2565b905092915050565b6000819050919050565b610d6081610d4d565b82525050565b6000602082019050610d7b6000830184610d57565b92915050565b600073ffffffffffffffffffffffffffffffffffffffff82169050919050565b6000610dac82610d81565b9050919050565b610dbc81610da1565b82525050565b6000602082019050610dd76000830184610db3565b92915050565b6000604051905090565b600080fd5b600080fd5b610dfa81610d4d565b8114610e0557600080fd5b50565b600081359050610e1781610df1565b92915050565b600060208284031215610e3357610e32610de7565b5b6000610e4184828501610e08565b91505092915050565b7f4e487b7100000000000000000000000000000000000000000000000000000000600052602160045260246000fd5b60038110610e8a57610e89610e4a565b5b50565b6000819050610e9b82610e79565b919050565b6000610eab82610e8d565b9050919050565b610ebb81610ea0565b82525050565b6000602082019050610ed66000830184610eb2565b92915050565b600080fd5b600080fd5b7f4e487b7100000000000000000000000000000000000000000000000000000000600052604160045260246000fd5b610f1e82610ce1565b810181811067ffffffffffffffff82111715610f3d57610f3c610ee6565b5b80604052505050565b6000610f50610ddd565b9050610f5c8282610f15565b919050565b600067ffffffffffffffff821115610f7c57610f7b610ee6565b5b610f8582610ce1565b9050602081019050919050565b82818337600083830152505050565b6000610fb4610faf84610f61565b610f46565b905082815260208101848484011115610fd057610fcf610ee1565b5b610fdb848285610f92565b509392505050565b600082601f830112610ff857610ff7610edc565b5b8135611008848260208601610fa1565b91505092915050565b60006020828403121561102757611026610de7565b5b600082013567ffffffffffffffff81111561104557611044610dec565b5b61105184828501610fe3565b91505092915050565b600060408201905061106f6000830185610d57565b81810360208301526110818184610cf2565b90509392505050565b61109381610da1565b811461109e57600080fd5b50565b6000813590506110b08161108a565b92915050565b6000602082840312156110cc576110cb610de7565b5b60006110da848285016110a1565b91505092915050565b600381106110f057600080fd5b50565b600081359050611102816110e3565b92915050565b60006020828403121561111e5761111d610de7565b5b600061112c848285016110f3565b91505092915050565b7f4e487b7100000000000000000000000000000000000000000000000000000000600052602260045260246000fd5b6000600282049050600182168061117c57607f821691505b602082108114156111905761118f611135565b5b50919050565b6000819050919050565b6000819050919050565b60006111c56111c06111bb84611196565b6111a0565b610d4d565b9050919050565b6111d5816111aa565b82525050565b60006020820190506111f060008301846111cc565b92915050565b7f7a696c6c69716100000000000000000000000000000000000000000000000000600082015250565b600061122c600783610c9d565b9150611237826111f6565b602082019050919050565b6000602082019050818103600083015261125b8161121f565b9050919050565b6000819050919050565b600061128761128261127d84611262565b6111a0565b610d4d565b9050919050565b6112978161126c565b82525050565b60006040820190506112b2600083018461128e565b81810360208301526112c38161121f565b90509291505056fea26469706673582212204b7a294a5323f20de224f63a3df982efe778ef9004c0c3b756b7408a0d97863b64736f6c63430008090033",
  "linkReferences": {},
  "deployedLinkReferences": {}
}