{
  "_format": "hh-sol-artifact-1",
  "contractName": "ScillaCallReceiver",
  "sourceName": "contracts/rfc75/ScillaCallReceiver.sol",
  "abi": [
    {
      "inputs": [
        {
          "internalType": "address",
          "name": "contract_address",
          "type": "address"
        },
        {
          "internalType": "string",
          "name": "tran_name",
          "type": "string"
        },
        {
          "internalType": "int256",
          "name": "keep_origin",
          "type": "int256"
        },
        {
          "internalType": "address",
          "name": "recipient",
          "type": "address"
        },
        {
          "internalType": "uint128",
          "name": "value",
          "type": "uint128"
        }
      ],
      "name": "callScilla",
      "outputs": [],
      "stateMutability": "nonpayable",
      "type": "function"
    },
    {
      "inputs": [
        {
          "internalType": "address",
          "name": "contract_address",
          "type": "address"
        },
        {
          "internalType": "string",
          "name": "tran_name",
          "type": "string"
        },
        {
          "internalType": "int256",
          "name": "keep_origin",
          "type": "int256"
        },
        {
          "internalType": "address",
          "name": "recipient",
          "type": "address"
        }
      ],
      "name": "callScillaInsufficientParams",
      "outputs": [],
      "stateMutability": "nonpayable",
      "type": "function"
    },
    {
      "inputs": [
        {
          "internalType": "string",
          "name": "",
          "type": "string"
        },
        {
          "internalType": "bytes",
          "name": "",
          "type": "bytes"
        }
      ],
      "name": "handle_scilla_message",
      "outputs": [],
      "stateMutability": "payable",
      "type": "function"
    },
    {
      "inputs": [
        {
          "internalType": "bytes4",
          "name": "interfaceID",
          "type": "bytes4"
        }
      ],
      "name": "supportsInterface",
      "outputs": [
        {
          "internalType": "bool",
          "name": "",
          "type": "bool"
        }
      ],
      "stateMutability": "view",
      "type": "function"
    }
  ],
  "bytecode": "0x608060405234801561001057600080fd5b506108c3806100206000396000f3fe60806040526004361061003f5760003560e01c806301ffc9a7146100445780634cd361b914610081578063e163c52a146100aa578063ebc8a27f146100d3575b600080fd5b34801561005057600080fd5b5061006b600480360381019061006691906102b7565b6100ef565b60405161007891906102ff565b60405180910390f35b34801561008d57600080fd5b506100a860048036038101906100a3919061053c565b61018f565b005b3480156100b657600080fd5b506100d160048036038101906100cc91906105d3565b6101ec565b005b6100ed60048036038101906100e891906106b6565b610246565b005b60006301ffc9a760e01b7bffffffffffffffffffffffffffffffffffffffffffffffffffffffff1916827bffffffffffffffffffffffffffffffffffffffffffffffffffffffff19161480610188575063ebc8a27f60e01b7bffffffffffffffffffffffffffffffffffffffffffffffffffffffff1916827bffffffffffffffffffffffffffffffffffffffffffffffffffffffff1916145b9050919050565b600085858585856040516020016101aa9594939291906107e7565b6040516020818303038152906040529050600081519050600080602083602086016000635a494c53615208f19050806101e257600080fd5b5050505050505050565b6000848484846040516020016102059493929190610841565b6040516020818303038152906040529050600081519050600080602083602086016000635a494c53615208f190508061023d57600080fd5b50505050505050565b505050565b6000604051905090565b600080fd5b600080fd5b60007fffffffff0000000000000000000000000000000000000000000000000000000082169050919050565b6102948161025f565b811461029f57600080fd5b50565b6000813590506102b18161028b565b92915050565b6000602082840312156102cd576102cc610255565b5b60006102db848285016102a2565b91505092915050565b60008115159050919050565b6102f9816102e4565b82525050565b600060208201905061031460008301846102f0565b92915050565b600073ffffffffffffffffffffffffffffffffffffffff82169050919050565b60006103458261031a565b9050919050565b6103558161033a565b811461036057600080fd5b50565b6000813590506103728161034c565b92915050565b600080fd5b600080fd5b6000601f19601f8301169050919050565b7f4e487b7100000000000000000000000000000000000000000000000000000000600052604160045260246000fd5b6103cb82610382565b810181811067ffffffffffffffff821117156103ea576103e9610393565b5b80604052505050565b60006103fd61024b565b905061040982826103c2565b919050565b600067ffffffffffffffff82111561042957610428610393565b5b61043282610382565b9050602081019050919050565b82818337600083830152505050565b600061046161045c8461040e565b6103f3565b90508281526020810184848401111561047d5761047c61037d565b5b61048884828561043f565b509392505050565b600082601f8301126104a5576104a4610378565b5b81356104b584826020860161044e565b91505092915050565b6000819050919050565b6104d1816104be565b81146104dc57600080fd5b50565b6000813590506104ee816104c8565b92915050565b60006fffffffffffffffffffffffffffffffff82169050919050565b610519816104f4565b811461052457600080fd5b50565b60008135905061053681610510565b92915050565b600080600080600060a0868803121561055857610557610255565b5b600061056688828901610363565b955050602086013567ffffffffffffffff8111156105875761058661025a565b5b61059388828901610490565b94505060406105a4888289016104df565b93505060606105b588828901610363565b92505060806105c688828901610527565b9150509295509295909350565b600080600080608085870312156105ed576105ec610255565b5b60006105fb87828801610363565b945050602085013567ffffffffffffffff81111561061c5761061b61025a565b5b61062887828801610490565b9350506040610639878288016104df565b925050606061064a87828801610363565b91505092959194509250565b600080fd5b600080fd5b60008083601f84011261067657610675610378565b5b8235905067ffffffffffffffff81111561069357610692610656565b5b6020830191508360018202830111156106af576106ae61065b565b5b9250929050565b6000806000604084860312156106cf576106ce610255565b5b600084013567ffffffffffffffff8111156106ed576106ec61025a565b5b6106f986828701610490565b935050602084013567ffffffffffffffff81111561071a5761071961025a565b5b61072686828701610660565b92509250509250925092565b61073b8161033a565b82525050565b600081519050919050565b600082825260208201905092915050565b60005b8381101561077b578082015181840152602081019050610760565b8381111561078a576000848401525b50505050565b600061079b82610741565b6107a5818561074c565b93506107b581856020860161075d565b6107be81610382565b840191505092915050565b6107d2816104be565b82525050565b6107e1816104f4565b82525050565b600060a0820190506107fc6000830188610732565b818103602083015261080e8187610790565b905061081d60408301866107c9565b61082a6060830185610732565b61083760808301846107d8565b9695505050505050565b60006080820190506108566000830187610732565b81810360208301526108688186610790565b905061087760408301856107c9565b6108846060830184610732565b9594505050505056fea264697066735822122027fae1a6686af07f115a9fb2656a83de4cb7c98c9446cfb88fe10752f002020f64736f6c63430008090033",
  "linkReferences": {},
  "deployedLinkReferences": {}
}