{
  "_format": "hh-sol-artifact-1",
  "contractName": "Precompiles",
  "sourceName": "contracts/Precompiles.sol",
  "abi": [
    {
      "inputs": [],
      "stateMutability": "nonpayable",
      "type": "constructor"
    },
    {
      "inputs": [],
      "name": "idStored",
      "outputs": [
        {
          "internalType": "bytes",
          "name": "",
          "type": "bytes"
        }
      ],
      "stateMutability": "view",
      "type": "function"
    },
    {
      "inputs": [],
      "name": "modExpResult",
      "outputs": [
        {
          "internalType": "uint256",
          "name": "",
          "type": "uint256"
        }
      ],
      "stateMutability": "view",
      "type": "function"
    },
    {
      "inputs": [
        {
          "internalType": "uint32",
          "name": "rounds",
          "type": "uint32"
        },
        {
          "internalType": "bytes32[2]",
          "name": "h",
          "type": "bytes32[2]"
        },
        {
          "internalType": "bytes32[4]",
          "name": "m",
          "type": "bytes32[4]"
        },
        {
          "internalType": "bytes8[2]",
          "name": "t",
          "type": "bytes8[2]"
        },
        {
          "internalType": "bool",
          "name": "f",
          "type": "bool"
        }
      ],
      "name": "testBlake2",
      "outputs": [
        {
          "internalType": "bytes32[2]",
          "name": "",
          "type": "bytes32[2]"
        }
      ],
      "stateMutability": "nonpayable",
      "type": "function"
    },
    {
      "inputs": [
        {
          "internalType": "uint256",
          "name": "a_x",
          "type": "uint256"
        },
        {
          "internalType": "uint256",
          "name": "a_y",
          "type": "uint256"
        },
        {
          "internalType": "uint256",
          "name": "b_x",
          "type": "uint256"
        },
        {
          "internalType": "uint256",
          "name": "b_y",
          "type": "uint256"
        }
      ],
      "name": "testEcAdd",
      "outputs": [
        {
          "internalType": "uint256[2]",
          "name": "p",
          "type": "uint256[2]"
        }
      ],
      "stateMutability": "nonpayable",
      "type": "function"
    },
    {
      "inputs": [
        {
          "internalType": "uint256",
          "name": "p_x",
          "type": "uint256"
        },
        {
          "internalType": "uint256",
          "name": "p_y",
          "type": "uint256"
        },
        {
          "internalType": "uint256",
          "name": "s",
          "type": "uint256"
        }
      ],
      "name": "testEcMul",
      "outputs": [
        {
          "internalType": "uint256[2]",
          "name": "p",
          "type": "uint256[2]"
        }
      ],
      "stateMutability": "nonpayable",
      "type": "function"
    },
    {
      "inputs": [
        {
          "internalType": "uint256[]",
          "name": "pairs",
          "type": "uint256[]"
        }
      ],
      "name": "testEcPairing",
      "outputs": [
        {
          "internalType": "uint256",
          "name": "",
          "type": "uint256"
        }
      ],
      "stateMutability": "nonpayable",
      "type": "function"
    },
    {
      "inputs": [
        {
          "internalType": "bytes",
          "name": "data",
          "type": "bytes"
        }
      ],
      "name": "testIdentity",
      "outputs": [],
      "stateMutability": "nonpayable",
      "type": "function"
    },
    {
      "inputs": [
        {
          "internalType": "uint256",
          "name": "_base",
          "type": "uint256"
        },
        {
          "internalType": "uint256",
          "name": "_exp",
          "type": "uint256"
        },
        {
          "internalType": "uint256",
          "name": "_modulus",
          "type": "uint256"
        }
      ],
      "name": "testModexp",
      "outputs": [],
      "stateMutability": "nonpayable",
      "type": "function"
    },
    {
      "inputs": [
        {
          "internalType": "bytes32",
          "name": "documentHash",
          "type": "bytes32"
        },
        {
          "internalType": "uint8",
          "name": "v",
          "type": "uint8"
        },
        {
          "internalType": "bytes32",
          "name": "r",
          "type": "bytes32"
        },
        {
          "internalType": "bytes32",
          "name": "s",
          "type": "bytes32"
        }
      ],
      "name": "testRecovery",
      "outputs": [
        {
          "internalType": "address",
          "name": "",
          "type": "address"
        }
      ],
      "stateMutability": "pure",
      "type": "function"
    },
    {
      "inputs": [
        {
          "internalType": "string",
          "name": "word",
          "type": "string"
        }
      ],
      "name": "testRipemd160",
      "outputs": [
        {
          "internalType": "bytes20",
          "name": "",
          "type": "bytes20"
        }
      ],
      "stateMutability": "pure",
      "type": "function"
    },
    {
      "inputs": [
        {
          "internalType": "string",
          "name": "word",
          "type": "string"
        }
      ],
      "name": "testSHA256",
      "outputs": [
        {
          "internalType": "bytes32",
          "name": "",
          "type": "bytes32"
        }
      ],
      "stateMutability": "pure",
      "type": "function"
    }
  ],
  "bytecode": "0x608060405234801561001057600080fd5b5061186d806100206000396000f3fe608060405234801561001057600080fd5b50600436106100a95760003560e01c806381b437cc1161007157806381b437cc1461019e5780639cce7cf9146101bc578063a3971a0f146101d8578063abc418e3146101f6578063de43385c14610212578063fa25b72214610242576100a9565b80630242a5fc146100ae5780631ebaf60e146100de5780633560cf9f1461010e5780633af4cdfd1461013e5780635f86e0bd1461016e575b600080fd5b6100c860048036038101906100c391906109a9565b610272565b6040516100d59190610a51565b60405180910390f35b6100f860048036038101906100f39190610de1565b61033b565b6040516101059190610f09565b60405180910390f35b61012860048036038101906101239190610f5a565b610467565b6040516101359190611058565b60405180910390f35b61015860048036038101906101539190611136565b6104ee565b604051610165919061118e565b60405180910390f35b6101886004803603810190610183919061125e565b610535565b60405161019591906112e2565b60405180910390f35b6101a661057a565b6040516101b39190611385565b60405180910390f35b6101d660048036038101906101d19190611448565b610608565b005b6101e061068e565b6040516101ed919061118e565b60405180910390f35b610210600480360381019061020b9190610f5a565b610694565b005b61022c60048036038101906102279190611491565b6106aa565b6040516102399190611058565b60405180910390f35b61025c6004803603810190610257919061125e565b610750565b6040516102699190611507565b60405180910390f35b6000806040518060400160405280601c81526020017f19457468657265756d205369676e6564204d6573736167653a0a3332000000008152509050600081876040516020016102c292919061157f565b6040516020818303038152906040528051906020012090506000600182888888604051600081526020016040526040516102ff94939291906115b6565b6020604051602081039080840390855afa158015610321573d6000803e3d6000fd5b505050602060405103519050809350505050949350505050565b6103436107fb565b61034b6107fb565b60008787600060028110610362576103616115fb565b5b60200201518860016002811061037b5761037a6115fb565b5b602002015188600060048110610394576103936115fb565b5b6020020151896001600481106103ad576103ac6115fb565b5b60200201518a6002600481106103c6576103c56115fb565b5b60200201518b6003600481106103df576103de6115fb565b5b60200201518b6000600281106103f8576103f76115fb565b5b60200201518c600160028110610411576104106115fb565b5b60200201518c6040516020016104309a999897969594939291906116c9565b604051602081830303815290604052905060408260d560208401600060095af161045957600080fd5b819250505095945050505050565b61046f61081d565b61047761083f565b848160006003811061048c5761048b6115fb565b5b60200201818152505083816001600381106104aa576104a96115fb565b5b60200201818152505082816002600381106104c8576104c76115fb565b5b602002018181525050604082606083600060075af16104e657600080fd5b509392505050565b6000808251905060208084016020830260208601600060085af161051157600080fd5b82600081518110610525576105246115fb565b5b6020026020010151915050919050565b600080600383604051610548919061177d565b602060405180830381855afa158015610565573d6000803e3d6000fd5b5050506040515160601b905080915050919050565b60008054610587906117c3565b80601f01602080910402602001604051908101604052809291908181526020018280546105b3906117c3565b80156106005780601f106105d557610100808354040283529160200191610600565b820191906000526020600020905b8154815290600101906020018083116105e357829003601f168201915b505050505081565b6000815167ffffffffffffffff81111561062557610624610abe565b5b6040519080825280601f01601f1916602001820160405280156106575781602001600182028036833780820191505090505b509050815180602083018260208601600060045af161067257fe5b508060009080519060200190610689929190610861565b505050565b60015481565b61069f8383836107ae565b600181905550505050565b6106b261081d565b6106ba6108e7565b85816000600481106106cf576106ce6115fb565b5b60200201818152505084816001600481106106ed576106ec6115fb565b5b602002018181525050838160026004811061070b5761070a6115fb565b5b6020020181815250508281600360048110610729576107286115fb565b5b602002018181525050604082608083600060065af161074757600080fd5b50949350505050565b600080600283604051610763919061177d565b602060405180830381855afa158015610780573d6000803e3d6000fd5b5050506040513d601f19601f820116820180604052508101906107a3919061180a565b905080915050919050565b600060405160208152602080820152602060408201528460608201528360808201528260a082015260c05160208160c084600060055af16107ee57600080fd5b8051925050509392505050565b6040518060400160405280600290602082028036833780820191505090505090565b6040518060400160405280600290602082028036833780820191505090505090565b6040518060600160405280600390602082028036833780820191505090505090565b82805461086d906117c3565b90600052602060002090601f01602090048101928261088f57600085556108d6565b82601f106108a857805160ff19168380011785556108d6565b828001600101855582156108d6579182015b828111156108d55782518255916020019190600101906108ba565b5b5090506108e39190610909565b5090565b6040518060800160405280600490602082028036833780820191505090505090565b5b8082111561092257600081600090555060010161090a565b5090565b6000604051905090565b600080fd5b600080fd5b6000819050919050565b61094d8161093a565b811461095857600080fd5b50565b60008135905061096a81610944565b92915050565b600060ff82169050919050565b61098681610970565b811461099157600080fd5b50565b6000813590506109a38161097d565b92915050565b600080600080608085870312156109c3576109c2610930565b5b60006109d18782880161095b565b94505060206109e287828801610994565b93505060406109f38782880161095b565b9250506060610a048782880161095b565b91505092959194509250565b600073ffffffffffffffffffffffffffffffffffffffff82169050919050565b6000610a3b82610a10565b9050919050565b610a4b81610a30565b82525050565b6000602082019050610a666000830184610a42565b92915050565b600063ffffffff82169050919050565b610a8581610a6c565b8114610a9057600080fd5b50565b600081359050610aa281610a7c565b92915050565b600080fd5b6000601f19601f8301169050919050565b7f4e487b7100000000000000000000000000000000000000000000000000000000600052604160045260246000fd5b610af682610aad565b810181811067ffffffffffffffff82111715610b1557610b14610abe565b5b80604052505050565b6000610b28610926565b9050610b348282610aed565b919050565b600067ffffffffffffffff821115610b5457610b53610abe565b5b602082029050919050565b600080fd5b6000610b77610b7284610b39565b610b1e565b90508060208402830185811115610b9157610b90610b5f565b5b835b81811015610bba5780610ba6888261095b565b845260208401935050602081019050610b93565b5050509392505050565b600082601f830112610bd957610bd8610aa8565b5b6002610be6848285610b64565b91505092915050565b600067ffffffffffffffff821115610c0a57610c09610abe565b5b602082029050919050565b6000610c28610c2384610bef565b610b1e565b90508060208402830185811115610c4257610c41610b5f565b5b835b81811015610c6b5780610c57888261095b565b845260208401935050602081019050610c44565b5050509392505050565b600082601f830112610c8a57610c89610aa8565b5b6004610c97848285610c15565b91505092915050565b600067ffffffffffffffff821115610cbb57610cba610abe565b5b602082029050919050565b60007fffffffffffffffff00000000000000000000000000000000000000000000000082169050919050565b610cfb81610cc6565b8114610d0657600080fd5b50565b600081359050610d1881610cf2565b92915050565b6000610d31610d2c84610ca0565b610b1e565b90508060208402830185811115610d4b57610d4a610b5f565b5b835b81811015610d745780610d608882610d09565b845260208401935050602081019050610d4d565b5050509392505050565b600082601f830112610d9357610d92610aa8565b5b6002610da0848285610d1e565b91505092915050565b60008115159050919050565b610dbe81610da9565b8114610dc957600080fd5b50565b600081359050610ddb81610db5565b92915050565b60008060008060006101408688031215610dfe57610dfd610930565b5b6000610e0c88828901610a93565b9550506020610e1d88828901610bc4565b9450506060610e2e88828901610c75565b93505060e0610e3f88828901610d7e565b925050610120610e5188828901610dcc565b9150509295509295909350565b600060029050919050565b600081905092915050565b6000819050919050565b610e878161093a565b82525050565b6000610e998383610e7e565b60208301905092915050565b6000602082019050919050565b610ebb81610e5e565b610ec58184610e69565b9250610ed082610e74565b8060005b83811015610f01578151610ee88782610e8d565b9650610ef383610ea5565b925050600181019050610ed4565b505050505050565b6000604082019050610f1e6000830184610eb2565b92915050565b6000819050919050565b610f3781610f24565b8114610f4257600080fd5b50565b600081359050610f5481610f2e565b92915050565b600080600060608486031215610f7357610f72610930565b5b6000610f8186828701610f45565b9350506020610f9286828701610f45565b9250506040610fa386828701610f45565b9150509250925092565b600060029050919050565b600081905092915050565b6000819050919050565b610fd681610f24565b82525050565b6000610fe88383610fcd565b60208301905092915050565b6000602082019050919050565b61100a81610fad565b6110148184610fb8565b925061101f82610fc3565b8060005b838110156110505781516110378782610fdc565b965061104283610ff4565b925050600181019050611023565b505050505050565b600060408201905061106d6000830184611001565b92915050565b600067ffffffffffffffff82111561108e5761108d610abe565b5b602082029050602081019050919050565b60006110b26110ad84611073565b610b1e565b905080838252602082019050602084028301858111156110d5576110d4610b5f565b5b835b818110156110fe57806110ea8882610f45565b8452602084019350506020810190506110d7565b5050509392505050565b600082601f83011261111d5761111c610aa8565b5b813561112d84826020860161109f565b91505092915050565b60006020828403121561114c5761114b610930565b5b600082013567ffffffffffffffff81111561116a57611169610935565b5b61117684828501611108565b91505092915050565b61118881610f24565b82525050565b60006020820190506111a3600083018461117f565b92915050565b600080fd5b600067ffffffffffffffff8211156111c9576111c8610abe565b5b6111d282610aad565b9050602081019050919050565b82818337600083830152505050565b60006112016111fc846111ae565b610b1e565b90508281526020810184848401111561121d5761121c6111a9565b5b6112288482856111df565b509392505050565b600082601f83011261124557611244610aa8565b5b81356112558482602086016111ee565b91505092915050565b60006020828403121561127457611273610930565b5b600082013567ffffffffffffffff81111561129257611291610935565b5b61129e84828501611230565b91505092915050565b60007fffffffffffffffffffffffffffffffffffffffff00000000000000000000000082169050919050565b6112dc816112a7565b82525050565b60006020820190506112f760008301846112d3565b92915050565b600081519050919050565b600082825260208201905092915050565b60005b8381101561133757808201518184015260208101905061131c565b83811115611346576000848401525b50505050565b6000611357826112fd565b6113618185611308565b9350611371818560208601611319565b61137a81610aad565b840191505092915050565b6000602082019050818103600083015261139f818461134c565b905092915050565b600067ffffffffffffffff8211156113c2576113c1610abe565b5b6113cb82610aad565b9050602081019050919050565b60006113eb6113e6846113a7565b610b1e565b905082815260208101848484011115611407576114066111a9565b5b6114128482856111df565b509392505050565b600082601f83011261142f5761142e610aa8565b5b813561143f8482602086016113d8565b91505092915050565b60006020828403121561145e5761145d610930565b5b600082013567ffffffffffffffff81111561147c5761147b610935565b5b6114888482850161141a565b91505092915050565b600080600080608085870312156114ab576114aa610930565b5b60006114b987828801610f45565b94505060206114ca87828801610f45565b93505060406114db87828801610f45565b92505060606114ec87828801610f45565b91505092959194509250565b6115018161093a565b82525050565b600060208201905061151c60008301846114f8565b92915050565b600081905092915050565b6000611538826112fd565b6115428185611522565b9350611552818560208601611319565b80840191505092915050565b6000819050919050565b6115796115748261093a565b61155e565b82525050565b600061158b828561152d565b91506115978284611568565b6020820191508190509392505050565b6115b081610970565b82525050565b60006080820190506115cb60008301876114f8565b6115d860208301866115a7565b6115e560408301856114f8565b6115f260608301846114f8565b95945050505050565b7f4e487b7100000000000000000000000000000000000000000000000000000000600052603260045260246000fd5b60008160e01b9050919050565b60006116428261162a565b9050919050565b61165a61165582610a6c565b611637565b82525050565b6000819050919050565b61167b61167682610cc6565b611660565b82525050565b60008160f81b9050919050565b600061169982611681565b9050919050565b60006116ab8261168e565b9050919050565b6116c36116be82610da9565b6116a0565b82525050565b60006116d5828d611649565b6004820191506116e5828c611568565b6020820191506116f5828b611568565b602082019150611705828a611568565b6020820191506117158289611568565b6020820191506117258288611568565b6020820191506117358287611568565b602082019150611745828661166a565b600882019150611755828561166a565b60088201915061176582846116b2565b6001820191508190509b9a5050505050505050505050565b6000611789828461152d565b915081905092915050565b7f4e487b7100000000000000000000000000000000000000000000000000000000600052602260045260246000fd5b600060028204905060018216806117db57607f821691505b602082108114156117ef576117ee611794565b5b50919050565b60008151905061180481610944565b92915050565b6000602082840312156118205761181f610930565b5b600061182e848285016117f5565b9150509291505056fea26469706673582212203f132abc7446de064d9f039d5c689061f5c82098ee6a3cd4e48021ddbe34013064736f6c63430008090033",
  "linkReferences": {},
  "deployedLinkReferences": {}
}